{"abi":[{"inputs":[{"internalType":"string","name":"_post","type":"string"},{"internalType":"string","name":"_dept","type":"string"},{"internalType":"string","name":"_name","type":"string"},{"internalType":"address","name":"_userAddress","type":"address"},{"internalType":"bool","name":"request","type":"bool"}],"name":"addOrRequestMember","outputs":[],"stateMutability":"nonpayable","type":"function"},{"inputs":[{"internalType":"address","name":"_userAddress","type":"address"},{"internalType":"address","name":"approvingUserAddress","type":"address"}],"name":"approoveRequest","outputs":[],"stateMutability":"nonpayable","type":"function"},{"inputs":[{"internalType":"address","name":"_userAddress","type":"address"},{"internalType":"bool","name":"requestedMember","type":"bool"}],"name":"findMember","outputs":[{"components":[{"internalType":"string","name":"post","type":"string"},{"internalType":"string","name":"dept","type":"string"},{"internalType":"string","name":"name","type":"string"},{"internalType":"address","name":"userAddress","type":"address"},{"internalType":"uint256","name":"power","type":"uint256"}],"internalType":"struct MainContract.MemberStruct","name":"","type":"tuple"}],"stateMutability":"view","type":"function"},{"inputs":[{"internalType":"bool","name":"request","type":"bool"}],"name":"getApprovedOrRequestedMember","outputs":[{"components":[{"internalType":"string","name":"post","type":"string"},{"internalType":"string","name":"dept","type":"string"},{"internalType":"string","name":"name","type":"string"},{"internalType":"address","name":"userAddress","type":"address"},{"internalType":"uint256","name":"power","type":"uint256"}],"internalType":"struct MainContract.MemberStruct[]","name":"","type":"tuple[]"}],"stateMutability":"view","type":"function"},{"inputs":[{"internalType":"address","name":"_userAddress","type":"address"}],"name":"memberExistOrNot","outputs":[{"internalType":"bool","name":"","type":"bool"}],"stateMutability":"view","type":"function"},{"inputs":[],"name":"recieve","outputs":[],"stateMutability":"payable","type":"function"}],"devdoc":{"kind":"dev","methods":{},"version":1},"evm":{"assembly":"    /* \"MainContract.sol\":294:6573  contract MainContract {... */\n  mstore(0x40, 0x80)\n    /* \"MainContract.sol\":755:756  0 */\n  0x00\n    /* \"MainContract.sol\":732:756  uint256 requestIndex = 0 */\n  dup1\n  sstore\n    /* \"MainContract.sol\":784:785  0 */\n  0x00\n    /* \"MainContract.sol\":762:785  uint256 memberIndex = 0 */\n  0x01\n  sstore\n    /* \"MainContract.sol\":294:6573  contract MainContract {... */\n  callvalue\n  dup1\n  iszero\n  tag_1\n  jumpi\n  0x00\n  dup1\n  revert\ntag_1:\n  pop\n  dataSize(sub_0)\n  dup1\n  dataOffset(sub_0)\n  0x00\n  codecopy\n  0x00\n  return\nstop\n\nsub_0: assembly {\n        /* \"MainContract.sol\":294:6573  contract MainContract {... */\n      mstore(0x40, 0x80)\n      jumpi(tag_1, lt(calldatasize, 0x04))\n      shr(0xe0, calldataload(0x00))\n      dup1\n      0x4cd6f25e\n      eq\n      tag_2\n      jumpi\n      dup1\n      0x64e47536\n      eq\n      tag_3\n      jumpi\n      dup1\n      0xa9e10bf2\n      eq\n      tag_4\n      jumpi\n      dup1\n      0xbafa08c1\n      eq\n      tag_5\n      jumpi\n      dup1\n      0xe070dd12\n      eq\n      tag_6\n      jumpi\n      dup1\n      0xe473f6cd\n      eq\n      tag_7\n      jumpi\n    tag_1:\n      0x00\n      dup1\n      revert\n        /* \"MainContract.sol\":1891:4518  function addOrRequestMember(... */\n    tag_2:\n      callvalue\n      dup1\n      iszero\n      tag_8\n      jumpi\n      0x00\n      dup1\n      revert\n    tag_8:\n      pop\n      tag_9\n      0x04\n      dup1\n      calldatasize\n      sub\n      dup2\n      add\n      swap1\n      tag_10\n      swap2\n      swap1\n      tag_11\n      jump\t// in\n    tag_10:\n      tag_12\n      jump\t// in\n    tag_9:\n      stop\n        /* \"MainContract.sol\":6360:6571  function memberExistOrNot(address _userAddress) public view returns (bool) {... */\n    tag_3:\n      callvalue\n      dup1\n      iszero\n      tag_13\n      jumpi\n      0x00\n      dup1\n      revert\n    tag_13:\n      pop\n      tag_14\n      0x04\n      dup1\n      calldatasize\n      sub\n      dup2\n      add\n      swap1\n      tag_15\n      swap2\n      swap1\n      tag_16\n      jump\t// in\n    tag_15:\n      tag_17\n      jump\t// in\n    tag_14:\n      mload(0x40)\n      tag_18\n      swap2\n      swap1\n      tag_19\n      jump\t// in\n    tag_18:\n      mload(0x40)\n      dup1\n      swap2\n      sub\n      swap1\n      return\n        /* \"MainContract.sol\":322:360  function recieve() external payable {} */\n    tag_4:\n      tag_20\n      tag_21\n      jump\t// in\n    tag_20:\n      stop\n        /* \"MainContract.sol\":4635:4955  function findMember(... */\n    tag_5:\n      callvalue\n      dup1\n      iszero\n      tag_22\n      jumpi\n      0x00\n      dup1\n      revert\n    tag_22:\n      pop\n      tag_23\n      0x04\n      dup1\n      calldatasize\n      sub\n      dup2\n      add\n      swap1\n      tag_24\n      swap2\n      swap1\n      tag_25\n      jump\t// in\n    tag_24:\n      tag_26\n      jump\t// in\n    tag_23:\n      mload(0x40)\n      tag_27\n      swap2\n      swap1\n      tag_28\n      jump\t// in\n    tag_27:\n      mload(0x40)\n      dup1\n      swap2\n      sub\n      swap1\n      return\n        /* \"MainContract.sol\":4997:6262  function approoveRequest(... */\n    tag_6:\n      callvalue\n      dup1\n      iszero\n      tag_29\n      jumpi\n      0x00\n      dup1\n      revert\n    tag_29:\n      pop\n      tag_30\n      0x04\n      dup1\n      calldatasize\n      sub\n      dup2\n      add\n      swap1\n      tag_31\n      swap2\n      swap1\n      tag_32\n      jump\t// in\n    tag_31:\n      tag_33\n      jump\t// in\n    tag_30:\n      stop\n        /* \"MainContract.sol\":1403:1657  function getApprovedOrRequestedMember(... */\n    tag_7:\n      callvalue\n      dup1\n      iszero\n      tag_34\n      jumpi\n      0x00\n      dup1\n      revert\n    tag_34:\n      pop\n      tag_35\n      0x04\n      dup1\n      calldatasize\n      sub\n      dup2\n      add\n      swap1\n      tag_36\n      swap2\n      swap1\n      tag_37\n      jump\t// in\n    tag_36:\n      tag_38\n      jump\t// in\n    tag_35:\n      mload(0x40)\n      tag_39\n      swap2\n      swap1\n      tag_40\n      jump\t// in\n    tag_39:\n      mload(0x40)\n      dup1\n      swap2\n      sub\n      swap1\n      return\n        /* \"MainContract.sol\":1891:4518  function addOrRequestMember(... */\n    tag_12:\n        /* \"MainContract.sol\":2164:2169  _post */\n      dup5\n        /* \"MainContract.sol\":2134:2156  instanceOfMemberStruct */\n      0x0a\n        /* \"MainContract.sol\":2134:2161  instanceOfMemberStruct.post */\n      0x00\n      add\n        /* \"MainContract.sol\":2134:2169  instanceOfMemberStruct.post = _post */\n      swap1\n      dup2\n      tag_42\n      swap2\n      swap1\n      tag_43\n      jump\t// in\n    tag_42:\n      pop\n        /* \"MainContract.sol\":2209:2214  _dept */\n      dup4\n        /* \"MainContract.sol\":2179:2201  instanceOfMemberStruct */\n      0x0a\n        /* \"MainContract.sol\":2179:2206  instanceOfMemberStruct.dept */\n      0x01\n      add\n        /* \"MainContract.sol\":2179:2214  instanceOfMemberStruct.dept = _dept */\n      swap1\n      dup2\n      tag_44\n      swap2\n      swap1\n      tag_43\n      jump\t// in\n    tag_44:\n      pop\n        /* \"MainContract.sol\":2254:2259  _name */\n      dup3\n        /* \"MainContract.sol\":2224:2246  instanceOfMemberStruct */\n      0x0a\n        /* \"MainContract.sol\":2224:2251  instanceOfMemberStruct.name */\n      0x02\n      add\n        /* \"MainContract.sol\":2224:2259  instanceOfMemberStruct.name = _name */\n      swap1\n      dup2\n      tag_45\n      swap2\n      swap1\n      tag_43\n      jump\t// in\n    tag_45:\n      pop\n        /* \"MainContract.sol\":2306:2318  _userAddress */\n      dup2\n        /* \"MainContract.sol\":2269:2291  instanceOfMemberStruct */\n      0x0a\n        /* \"MainContract.sol\":2269:2303  instanceOfMemberStruct.userAddress */\n      0x03\n      add\n      0x00\n        /* \"MainContract.sol\":2269:2318  instanceOfMemberStruct.userAddress = _userAddress */\n      0x0100\n      exp\n      dup2\n      sload\n      dup2\n      0xffffffffffffffffffffffffffffffffffffffff\n      mul\n      not\n      and\n      swap1\n      dup4\n      0xffffffffffffffffffffffffffffffffffffffff\n      and\n      mul\n      or\n      swap1\n      sstore\n      pop\n        /* \"MainContract.sol\":2446:2471  abi.encodePacked(\"ROLE1\") */\n      add(0x20, mload(0x40))\n      tag_46\n      swap1\n      tag_47\n      jump\t// in\n    tag_46:\n      mload(0x40)\n      0x20\n      dup2\n      dup4\n      sub\n      sub\n      dup2\n      mstore\n      swap1\n      0x40\n      mstore\n        /* \"MainContract.sol\":2436:2472  keccak256(abi.encodePacked(\"ROLE1\")) */\n      dup1\n      mload\n      swap1\n      0x20\n      add\n      keccak256\n        /* \"MainContract.sol\":2413:2418  _post */\n      dup6\n        /* \"MainContract.sol\":2396:2419  abi.encodePacked(_post) */\n      add(0x20, mload(0x40))\n      tag_48\n      swap2\n      swap1\n      tag_49\n      jump\t// in\n    tag_48:\n      mload(0x40)\n      0x20\n      dup2\n      dup4\n      sub\n      sub\n      dup2\n      mstore\n      swap1\n      0x40\n      mstore\n        /* \"MainContract.sol\":2386:2420  keccak256(abi.encodePacked(_post)) */\n      dup1\n      mload\n      swap1\n      0x20\n      add\n      keccak256\n        /* \"MainContract.sol\":2386:2472  keccak256(abi.encodePacked(_post)) ==... */\n      sub\n        /* \"MainContract.sol\":2369:3134  if (... */\n      tag_50\n      jumpi\n        /* \"MainContract.sol\":2528:2529  1 */\n      0x01\n        /* \"MainContract.sol\":2497:2519  instanceOfMemberStruct */\n      0x0a\n        /* \"MainContract.sol\":2497:2525  instanceOfMemberStruct.power */\n      0x04\n      add\n        /* \"MainContract.sol\":2497:2529  instanceOfMemberStruct.power = 1 */\n      dup2\n      swap1\n      sstore\n      pop\n        /* \"MainContract.sol\":2369:3134  if (... */\n      jump(tag_51)\n    tag_50:\n        /* \"MainContract.sol\":2623:2648  abi.encodePacked(\"ROLE2\") */\n      add(0x20, mload(0x40))\n      tag_52\n      swap1\n      tag_53\n      jump\t// in\n    tag_52:\n      mload(0x40)\n      0x20\n      dup2\n      dup4\n      sub\n      sub\n      dup2\n      mstore\n      swap1\n      0x40\n      mstore\n        /* \"MainContract.sol\":2613:2649  keccak256(abi.encodePacked(\"ROLE2\")) */\n      dup1\n      mload\n      swap1\n      0x20\n      add\n      keccak256\n        /* \"MainContract.sol\":2590:2595  _post */\n      dup6\n        /* \"MainContract.sol\":2573:2596  abi.encodePacked(_post) */\n      add(0x20, mload(0x40))\n      tag_54\n      swap2\n      swap1\n      tag_49\n      jump\t// in\n    tag_54:\n      mload(0x40)\n      0x20\n      dup2\n      dup4\n      sub\n      sub\n      dup2\n      mstore\n      swap1\n      0x40\n      mstore\n        /* \"MainContract.sol\":2563:2597  keccak256(abi.encodePacked(_post)) */\n      dup1\n      mload\n      swap1\n      0x20\n      add\n      keccak256\n        /* \"MainContract.sol\":2563:2649  keccak256(abi.encodePacked(_post)) ==... */\n      sub\n        /* \"MainContract.sol\":2546:3134  if (... */\n      tag_55\n      jumpi\n        /* \"MainContract.sol\":2705:2706  2 */\n      0x02\n        /* \"MainContract.sol\":2674:2696  instanceOfMemberStruct */\n      0x0a\n        /* \"MainContract.sol\":2674:2702  instanceOfMemberStruct.power */\n      0x04\n      add\n        /* \"MainContract.sol\":2674:2706  instanceOfMemberStruct.power = 2 */\n      dup2\n      swap1\n      sstore\n      pop\n        /* \"MainContract.sol\":2546:3134  if (... */\n      jump(tag_56)\n    tag_55:\n        /* \"MainContract.sol\":2800:2825  abi.encodePacked(\"ROLE3\") */\n      add(0x20, mload(0x40))\n      tag_57\n      swap1\n      tag_58\n      jump\t// in\n    tag_57:\n      mload(0x40)\n      0x20\n      dup2\n      dup4\n      sub\n      sub\n      dup2\n      mstore\n      swap1\n      0x40\n      mstore\n        /* \"MainContract.sol\":2790:2826  keccak256(abi.encodePacked(\"ROLE3\")) */\n      dup1\n      mload\n      swap1\n      0x20\n      add\n      keccak256\n        /* \"MainContract.sol\":2767:2772  _post */\n      dup6\n        /* \"MainContract.sol\":2750:2773  abi.encodePacked(_post) */\n      add(0x20, mload(0x40))\n      tag_59\n      swap2\n      swap1\n      tag_49\n      jump\t// in\n    tag_59:\n      mload(0x40)\n      0x20\n      dup2\n      dup4\n      sub\n      sub\n      dup2\n      mstore\n      swap1\n      0x40\n      mstore\n        /* \"MainContract.sol\":2740:2774  keccak256(abi.encodePacked(_post)) */\n      dup1\n      mload\n      swap1\n      0x20\n      add\n      keccak256\n        /* \"MainContract.sol\":2740:2826  keccak256(abi.encodePacked(_post)) ==... */\n      sub\n        /* \"MainContract.sol\":2723:3134  if (... */\n      tag_60\n      jumpi\n        /* \"MainContract.sol\":2882:2883  3 */\n      0x03\n        /* \"MainContract.sol\":2851:2873  instanceOfMemberStruct */\n      0x0a\n        /* \"MainContract.sol\":2851:2879  instanceOfMemberStruct.power */\n      0x04\n      add\n        /* \"MainContract.sol\":2851:2883  instanceOfMemberStruct.power = 3 */\n      dup2\n      swap1\n      sstore\n      pop\n        /* \"MainContract.sol\":2723:3134  if (... */\n      jump(tag_61)\n    tag_60:\n        /* \"MainContract.sol\":2977:3002  abi.encodePacked(\"ROLE4\") */\n      add(0x20, mload(0x40))\n      tag_62\n      swap1\n      tag_63\n      jump\t// in\n    tag_62:\n      mload(0x40)\n      0x20\n      dup2\n      dup4\n      sub\n      sub\n      dup2\n      mstore\n      swap1\n      0x40\n      mstore\n        /* \"MainContract.sol\":2967:3003  keccak256(abi.encodePacked(\"ROLE4\")) */\n      dup1\n      mload\n      swap1\n      0x20\n      add\n      keccak256\n        /* \"MainContract.sol\":2944:2949  _post */\n      dup6\n        /* \"MainContract.sol\":2927:2950  abi.encodePacked(_post) */\n      add(0x20, mload(0x40))\n      tag_64\n      swap2\n      swap1\n      tag_49\n      jump\t// in\n    tag_64:\n      mload(0x40)\n      0x20\n      dup2\n      dup4\n      sub\n      sub\n      dup2\n      mstore\n      swap1\n      0x40\n      mstore\n        /* \"MainContract.sol\":2917:2951  keccak256(abi.encodePacked(_post)) */\n      dup1\n      mload\n      swap1\n      0x20\n      add\n      keccak256\n        /* \"MainContract.sol\":2917:3003  keccak256(abi.encodePacked(_post)) ==... */\n      sub\n        /* \"MainContract.sol\":2900:3134  if (... */\n      tag_65\n      jumpi\n        /* \"MainContract.sol\":3059:3060  4 */\n      0x04\n        /* \"MainContract.sol\":3028:3050  instanceOfMemberStruct */\n      0x0a\n        /* \"MainContract.sol\":3028:3056  instanceOfMemberStruct.power */\n      0x04\n      add\n        /* \"MainContract.sol\":3028:3060  instanceOfMemberStruct.power = 4 */\n      dup2\n      swap1\n      sstore\n      pop\n        /* \"MainContract.sol\":2900:3134  if (... */\n      jump(tag_66)\n    tag_65:\n        /* \"MainContract.sol\":3122:3123  5 */\n      0x05\n        /* \"MainContract.sol\":3091:3113  instanceOfMemberStruct */\n      0x0a\n        /* \"MainContract.sol\":3091:3119  instanceOfMemberStruct.power */\n      0x04\n      add\n        /* \"MainContract.sol\":3091:3123  instanceOfMemberStruct.power = 5 */\n      dup2\n      swap1\n      sstore\n      pop\n        /* \"MainContract.sol\":2900:3134  if (... */\n    tag_66:\n        /* \"MainContract.sol\":2723:3134  if (... */\n    tag_61:\n        /* \"MainContract.sol\":2546:3134  if (... */\n    tag_56:\n        /* \"MainContract.sol\":2369:3134  if (... */\n    tag_51:\n        /* \"MainContract.sol\":3196:3200  true */\n      0x01\n        /* \"MainContract.sol\":3185:3200  request == true */\n      iszero\n      iszero\n        /* \"MainContract.sol\":3185:3192  request */\n      dup2\n        /* \"MainContract.sol\":3185:3200  request == true */\n      iszero\n      iszero\n      eq\n        /* \"MainContract.sol\":3185:3302  request == true &&... */\n      dup1\n      iszero\n      tag_67\n      jumpi\n      pop\n        /* \"MainContract.sol\":3276:3301  abi.encodePacked(\"ROLE1\") */\n      add(0x20, mload(0x40))\n      tag_68\n      swap1\n      tag_47\n      jump\t// in\n    tag_68:\n      mload(0x40)\n      0x20\n      dup2\n      dup4\n      sub\n      sub\n      dup2\n      mstore\n      swap1\n      0x40\n      mstore\n        /* \"MainContract.sol\":3266:3302  keccak256(abi.encodePacked(\"ROLE1\")) */\n      dup1\n      mload\n      swap1\n      0x20\n      add\n      keccak256\n        /* \"MainContract.sol\":3243:3248  _post */\n      dup6\n        /* \"MainContract.sol\":3226:3249  abi.encodePacked(_post) */\n      add(0x20, mload(0x40))\n      tag_69\n      swap2\n      swap1\n      tag_49\n      jump\t// in\n    tag_69:\n      mload(0x40)\n      0x20\n      dup2\n      dup4\n      sub\n      sub\n      dup2\n      mstore\n      swap1\n      0x40\n      mstore\n        /* \"MainContract.sol\":3216:3250  keccak256(abi.encodePacked(_post)) */\n      dup1\n      mload\n      swap1\n      0x20\n      add\n      keccak256\n        /* \"MainContract.sol\":3216:3302  keccak256(abi.encodePacked(_post)) !=... */\n      eq\n      iszero\n        /* \"MainContract.sol\":3185:3302  request == true &&... */\n    tag_67:\n        /* \"MainContract.sol\":3168:4512  if (... */\n      iszero\n      tag_70\n      jumpi\n        /* \"MainContract.sol\":3408:3413  false */\n      0x00\n        /* \"MainContract.sol\":3375:3413  memberRequested[_userAddress] == false */\n      iszero\n      iszero\n        /* \"MainContract.sol\":3375:3390  memberRequested */\n      0x09\n        /* \"MainContract.sol\":3375:3404  memberRequested[_userAddress] */\n      0x00\n        /* \"MainContract.sol\":3391:3403  _userAddress */\n      dup5\n        /* \"MainContract.sol\":3375:3404  memberRequested[_userAddress] */\n      0xffffffffffffffffffffffffffffffffffffffff\n      and\n      0xffffffffffffffffffffffffffffffffffffffff\n      and\n      dup2\n      mstore\n      0x20\n      add\n      swap1\n      dup2\n      mstore\n      0x20\n      add\n      0x00\n      keccak256\n      0x00\n      swap1\n      sload\n      swap1\n      0x0100\n      exp\n      swap1\n      div\n      0xff\n      and\n        /* \"MainContract.sol\":3375:3413  memberRequested[_userAddress] == false */\n      iszero\n      iszero\n      eq\n        /* \"MainContract.sol\":3367:3434  require(memberRequested[_userAddress] == false, \"Member Requested\") */\n      tag_71\n      jumpi\n      mload(0x40)\n      0x08c379a000000000000000000000000000000000000000000000000000000000\n      dup2\n      mstore\n      0x04\n      add\n      tag_72\n      swap1\n      tag_73\n      jump\t// in\n    tag_72:\n      mload(0x40)\n      dup1\n      swap2\n      sub\n      swap1\n      revert\n    tag_71:\n        /* \"MainContract.sol\":3485:3490  false */\n      0x00\n        /* \"MainContract.sol\":3456:3490  memberExist[_userAddress] == false */\n      iszero\n      iszero\n        /* \"MainContract.sol\":3456:3467  memberExist */\n      0x06\n        /* \"MainContract.sol\":3456:3481  memberExist[_userAddress] */\n      0x00\n        /* \"MainContract.sol\":3468:3480  _userAddress */\n      dup5\n        /* \"MainContract.sol\":3456:3481  memberExist[_userAddress] */\n      0xffffffffffffffffffffffffffffffffffffffff\n      and\n      0xffffffffffffffffffffffffffffffffffffffff\n      and\n      dup2\n      mstore\n      0x20\n      add\n      swap1\n      dup2\n      mstore\n      0x20\n      add\n      0x00\n      keccak256\n      0x00\n      swap1\n      sload\n      swap1\n      0x0100\n      exp\n      swap1\n      div\n      0xff\n      and\n        /* \"MainContract.sol\":3456:3490  memberExist[_userAddress] == false */\n      iszero\n      iszero\n      eq\n        /* \"MainContract.sol\":3448:3507  require(memberExist[_userAddress] == false, \"Member Exist\") */\n      tag_74\n      jumpi\n      mload(0x40)\n      0x08c379a000000000000000000000000000000000000000000000000000000000\n      dup2\n      mstore\n      0x04\n      add\n      tag_75\n      swap1\n      tag_76\n      jump\t// in\n    tag_75:\n      mload(0x40)\n      dup1\n      swap2\n      sub\n      swap1\n      revert\n    tag_74:\n        /* \"MainContract.sol\":3583:3606  arrayOfRequestedMembers */\n      0x08\n        /* \"MainContract.sol\":3612:3634  instanceOfMemberStruct */\n      0x0a\n        /* \"MainContract.sol\":3583:3635  arrayOfRequestedMembers.push(instanceOfMemberStruct) */\n      swap1\n      dup1\n      0x01\n      dup2\n      sload\n      add\n      dup1\n      dup3\n      sstore\n      dup1\n      swap2\n      pop\n      pop\n      0x01\n      swap1\n      sub\n      swap1\n      0x00\n      mstore\n      keccak256(0x00, 0x20)\n      swap1\n      0x05\n      mul\n      add\n      0x00\n      swap1\n      swap2\n      swap1\n      swap2\n      swap1\n      swap2\n      pop\n      0x00\n      dup3\n      add\n      dup2\n      0x00\n      add\n      swap1\n      dup2\n      tag_78\n      swap2\n      swap1\n      tag_79\n      jump\t// in\n    tag_78:\n      pop\n      0x01\n      dup3\n      add\n      dup2\n      0x01\n      add\n      swap1\n      dup2\n      tag_80\n      swap2\n      swap1\n      tag_79\n      jump\t// in\n    tag_80:\n      pop\n      0x02\n      dup3\n      add\n      dup2\n      0x02\n      add\n      swap1\n      dup2\n      tag_81\n      swap2\n      swap1\n      tag_79\n      jump\t// in\n    tag_81:\n      pop\n      0x03\n      dup3\n      add\n      0x00\n      swap1\n      sload\n      swap1\n      0x0100\n      exp\n      swap1\n      div\n      0xffffffffffffffffffffffffffffffffffffffff\n      and\n      dup2\n      0x03\n      add\n      exp(0x0100, 0x00)\n      dup2\n      sload\n      dup2\n      0xffffffffffffffffffffffffffffffffffffffff\n      mul\n      not\n      and\n      swap1\n      dup4\n      0xffffffffffffffffffffffffffffffffffffffff\n      and\n      mul\n      or\n      swap1\n      sstore\n      pop\n      0x04\n      dup3\n      add\n      sload\n      dup2\n      0x04\n      add\n      sstore\n      pop\n      pop\n        /* \"MainContract.sol\":3725:3747  instanceOfMemberStruct */\n      0x0a\n        /* \"MainContract.sol\":3649:3678  getRequestedMemberWithAddress */\n      0x07\n        /* \"MainContract.sol\":3649:3722  getRequestedMemberWithAddress[... */\n      0x00\n        /* \"MainContract.sol\":3696:3708  _userAddress */\n      dup5\n        /* \"MainContract.sol\":3649:3722  getRequestedMemberWithAddress[... */\n      0xffffffffffffffffffffffffffffffffffffffff\n      and\n      0xffffffffffffffffffffffffffffffffffffffff\n      and\n      dup2\n      mstore\n      0x20\n      add\n      swap1\n      dup2\n      mstore\n      0x20\n      add\n      0x00\n      keccak256\n        /* \"MainContract.sol\":3649:3747  getRequestedMemberWithAddress[... */\n      0x00\n      dup3\n      add\n      dup2\n      0x00\n      add\n      swap1\n      dup2\n      tag_82\n      swap2\n      swap1\n      tag_79\n      jump\t// in\n    tag_82:\n      pop\n      0x01\n      dup3\n      add\n      dup2\n      0x01\n      add\n      swap1\n      dup2\n      tag_83\n      swap2\n      swap1\n      tag_79\n      jump\t// in\n    tag_83:\n      pop\n      0x02\n      dup3\n      add\n      dup2\n      0x02\n      add\n      swap1\n      dup2\n      tag_84\n      swap2\n      swap1\n      tag_79\n      jump\t// in\n    tag_84:\n      pop\n      0x03\n      dup3\n      add\n      0x00\n      swap1\n      sload\n      swap1\n      0x0100\n      exp\n      swap1\n      div\n      0xffffffffffffffffffffffffffffffffffffffff\n      and\n      dup2\n      0x03\n      add\n      exp(0x0100, 0x00)\n      dup2\n      sload\n      dup2\n      0xffffffffffffffffffffffffffffffffffffffff\n      mul\n      not\n      and\n      swap1\n      dup4\n      0xffffffffffffffffffffffffffffffffffffffff\n      and\n      mul\n      or\n      swap1\n      sstore\n      pop\n      0x04\n      dup3\n      add\n      sload\n      dup2\n      0x04\n      add\n      sstore\n      swap1\n      pop\n      pop\n        /* \"MainContract.sol\":3793:3797  true */\n      0x01\n        /* \"MainContract.sol\":3761:3776  memberRequested */\n      0x09\n        /* \"MainContract.sol\":3761:3790  memberRequested[_userAddress] */\n      0x00\n        /* \"MainContract.sol\":3777:3789  _userAddress */\n      dup5\n        /* \"MainContract.sol\":3761:3790  memberRequested[_userAddress] */\n      0xffffffffffffffffffffffffffffffffffffffff\n      and\n      0xffffffffffffffffffffffffffffffffffffffff\n      and\n      dup2\n      mstore\n      0x20\n      add\n      swap1\n      dup2\n      mstore\n      0x20\n      add\n      0x00\n      keccak256\n      0x00\n        /* \"MainContract.sol\":3761:3797  memberRequested[_userAddress] = true */\n      0x0100\n      exp\n      dup2\n      sload\n      dup2\n      0xff\n      mul\n      not\n      and\n      swap1\n      dup4\n      iszero\n      iszero\n      mul\n      or\n      swap1\n      sstore\n      pop\n        /* \"MainContract.sol\":3168:4512  if (... */\n      jump(tag_85)\n    tag_70:\n        /* \"MainContract.sol\":3940:3965  abi.encodePacked(\"ROLE1\") */\n      add(0x20, mload(0x40))\n      tag_86\n      swap1\n      tag_47\n      jump\t// in\n    tag_86:\n      mload(0x40)\n      0x20\n      dup2\n      dup4\n      sub\n      sub\n      dup2\n      mstore\n      swap1\n      0x40\n      mstore\n        /* \"MainContract.sol\":3930:3966  keccak256(abi.encodePacked(\"ROLE1\")) */\n      dup1\n      mload\n      swap1\n      0x20\n      add\n      keccak256\n        /* \"MainContract.sol\":3903:3908  _post */\n      dup6\n        /* \"MainContract.sol\":3886:3909  abi.encodePacked(_post) */\n      add(0x20, mload(0x40))\n      tag_87\n      swap2\n      swap1\n      tag_49\n      jump\t// in\n    tag_87:\n      mload(0x40)\n      0x20\n      dup2\n      dup4\n      sub\n      sub\n      dup2\n      mstore\n      swap1\n      0x40\n      mstore\n        /* \"MainContract.sol\":3876:3910  keccak256(abi.encodePacked(_post)) */\n      dup1\n      mload\n      swap1\n      0x20\n      add\n      keccak256\n        /* \"MainContract.sol\":3876:3966  keccak256(abi.encodePacked(_post)) !=... */\n      eq\n        /* \"MainContract.sol\":3855:4191  if (... */\n      tag_88\n      jumpi\n        /* \"MainContract.sol\":4105:4109  true */\n      0x01\n        /* \"MainContract.sol\":4072:4109  memberRequested[_userAddress] == true */\n      iszero\n      iszero\n        /* \"MainContract.sol\":4072:4087  memberRequested */\n      0x09\n        /* \"MainContract.sol\":4072:4101  memberRequested[_userAddress] */\n      0x00\n        /* \"MainContract.sol\":4088:4100  _userAddress */\n      dup5\n        /* \"MainContract.sol\":4072:4101  memberRequested[_userAddress] */\n      0xffffffffffffffffffffffffffffffffffffffff\n      and\n      0xffffffffffffffffffffffffffffffffffffffff\n      and\n      dup2\n      mstore\n      0x20\n      add\n      swap1\n      dup2\n      mstore\n      0x20\n      add\n      0x00\n      keccak256\n      0x00\n      swap1\n      sload\n      swap1\n      0x0100\n      exp\n      swap1\n      div\n      0xff\n      and\n        /* \"MainContract.sol\":4072:4109  memberRequested[_userAddress] == true */\n      iszero\n      iszero\n      eq\n        /* \"MainContract.sol\":4043:4176  require(... */\n      tag_89\n      jumpi\n      mload(0x40)\n      0x08c379a000000000000000000000000000000000000000000000000000000000\n      dup2\n      mstore\n      0x04\n      add\n      tag_90\n      swap1\n      tag_91\n      jump\t// in\n    tag_90:\n      mload(0x40)\n      dup1\n      swap2\n      sub\n      swap1\n      revert\n    tag_89:\n        /* \"MainContract.sol\":3855:4191  if (... */\n    tag_88:\n        /* \"MainContract.sol\":4242:4247  false */\n      0x00\n        /* \"MainContract.sol\":4213:4247  memberExist[_userAddress] == false */\n      iszero\n      iszero\n        /* \"MainContract.sol\":4213:4224  memberExist */\n      0x06\n        /* \"MainContract.sol\":4213:4238  memberExist[_userAddress] */\n      0x00\n        /* \"MainContract.sol\":4225:4237  _userAddress */\n      dup5\n        /* \"MainContract.sol\":4213:4238  memberExist[_userAddress] */\n      0xffffffffffffffffffffffffffffffffffffffff\n      and\n      0xffffffffffffffffffffffffffffffffffffffff\n      and\n      dup2\n      mstore\n      0x20\n      add\n      swap1\n      dup2\n      mstore\n      0x20\n      add\n      0x00\n      keccak256\n      0x00\n      swap1\n      sload\n      swap1\n      0x0100\n      exp\n      swap1\n      div\n      0xff\n      and\n        /* \"MainContract.sol\":4213:4247  memberExist[_userAddress] == false */\n      iszero\n      iszero\n      eq\n        /* \"MainContract.sol\":4205:4264  require(memberExist[_userAddress] == false, \"Member Exist\") */\n      tag_92\n      jumpi\n      mload(0x40)\n      0x08c379a000000000000000000000000000000000000000000000000000000000\n      dup2\n      mstore\n      0x04\n      add\n      tag_93\n      swap1\n      tag_76\n      jump\t// in\n    tag_93:\n      mload(0x40)\n      dup1\n      swap2\n      sub\n      swap1\n      revert\n    tag_92:\n        /* \"MainContract.sol\":4339:4353  arrayOfMembers */\n      0x05\n        /* \"MainContract.sol\":4359:4381  instanceOfMemberStruct */\n      0x0a\n        /* \"MainContract.sol\":4339:4382  arrayOfMembers.push(instanceOfMemberStruct) */\n      swap1\n      dup1\n      0x01\n      dup2\n      sload\n      add\n      dup1\n      dup3\n      sstore\n      dup1\n      swap2\n      pop\n      pop\n      0x01\n      swap1\n      sub\n      swap1\n      0x00\n      mstore\n      keccak256(0x00, 0x20)\n      swap1\n      0x05\n      mul\n      add\n      0x00\n      swap1\n      swap2\n      swap1\n      swap2\n      swap1\n      swap2\n      pop\n      0x00\n      dup3\n      add\n      dup2\n      0x00\n      add\n      swap1\n      dup2\n      tag_95\n      swap2\n      swap1\n      tag_79\n      jump\t// in\n    tag_95:\n      pop\n      0x01\n      dup3\n      add\n      dup2\n      0x01\n      add\n      swap1\n      dup2\n      tag_96\n      swap2\n      swap1\n      tag_79\n      jump\t// in\n    tag_96:\n      pop\n      0x02\n      dup3\n      add\n      dup2\n      0x02\n      add\n      swap1\n      dup2\n      tag_97\n      swap2\n      swap1\n      tag_79\n      jump\t// in\n    tag_97:\n      pop\n      0x03\n      dup3\n      add\n      0x00\n      swap1\n      sload\n      swap1\n      0x0100\n      exp\n      swap1\n      div\n      0xffffffffffffffffffffffffffffffffffffffff\n      and\n      dup2\n      0x03\n      add\n      exp(0x0100, 0x00)\n      dup2\n      sload\n      dup2\n      0xffffffffffffffffffffffffffffffffffffffff\n      mul\n      not\n      and\n      swap1\n      dup4\n      0xffffffffffffffffffffffffffffffffffffffff\n      and\n      mul\n      or\n      swap1\n      sstore\n      pop\n      0x04\n      dup3\n      add\n      sload\n      dup2\n      0x04\n      add\n      sstore\n      pop\n      pop\n        /* \"MainContract.sol\":4433:4455  instanceOfMemberStruct */\n      0x0a\n        /* \"MainContract.sol\":4396:4416  getMemberWithAddress */\n      0x04\n        /* \"MainContract.sol\":4396:4430  getMemberWithAddress[_userAddress] */\n      0x00\n        /* \"MainContract.sol\":4417:4429  _userAddress */\n      dup5\n        /* \"MainContract.sol\":4396:4430  getMemberWithAddress[_userAddress] */\n      0xffffffffffffffffffffffffffffffffffffffff\n      and\n      0xffffffffffffffffffffffffffffffffffffffff\n      and\n      dup2\n      mstore\n      0x20\n      add\n      swap1\n      dup2\n      mstore\n      0x20\n      add\n      0x00\n      keccak256\n        /* \"MainContract.sol\":4396:4455  getMemberWithAddress[_userAddress] = instanceOfMemberStruct */\n      0x00\n      dup3\n      add\n      dup2\n      0x00\n      add\n      swap1\n      dup2\n      tag_98\n      swap2\n      swap1\n      tag_79\n      jump\t// in\n    tag_98:\n      pop\n      0x01\n      dup3\n      add\n      dup2\n      0x01\n      add\n      swap1\n      dup2\n      tag_99\n      swap2\n      swap1\n      tag_79\n      jump\t// in\n    tag_99:\n      pop\n      0x02\n      dup3\n      add\n      dup2\n      0x02\n      add\n      swap1\n      dup2\n      tag_100\n      swap2\n      swap1\n      tag_79\n      jump\t// in\n    tag_100:\n      pop\n      0x03\n      dup3\n      add\n      0x00\n      swap1\n      sload\n      swap1\n      0x0100\n      exp\n      swap1\n      div\n      0xffffffffffffffffffffffffffffffffffffffff\n      and\n      dup2\n      0x03\n      add\n      exp(0x0100, 0x00)\n      dup2\n      sload\n      dup2\n      0xffffffffffffffffffffffffffffffffffffffff\n      mul\n      not\n      and\n      swap1\n      dup4\n      0xffffffffffffffffffffffffffffffffffffffff\n      and\n      mul\n      or\n      swap1\n      sstore\n      pop\n      0x04\n      dup3\n      add\n      sload\n      dup2\n      0x04\n      add\n      sstore\n      swap1\n      pop\n      pop\n        /* \"MainContract.sol\":4497:4501  true */\n      0x01\n        /* \"MainContract.sol\":4469:4480  memberExist */\n      0x06\n        /* \"MainContract.sol\":4469:4494  memberExist[_userAddress] */\n      0x00\n        /* \"MainContract.sol\":4481:4493  _userAddress */\n      dup5\n        /* \"MainContract.sol\":4469:4494  memberExist[_userAddress] */\n      0xffffffffffffffffffffffffffffffffffffffff\n      and\n      0xffffffffffffffffffffffffffffffffffffffff\n      and\n      dup2\n      mstore\n      0x20\n      add\n      swap1\n      dup2\n      mstore\n      0x20\n      add\n      0x00\n      keccak256\n      0x00\n        /* \"MainContract.sol\":4469:4501  memberExist[_userAddress] = true */\n      0x0100\n      exp\n      dup2\n      sload\n      dup2\n      0xff\n      mul\n      not\n      and\n      swap1\n      dup4\n      iszero\n      iszero\n      mul\n      or\n      swap1\n      sstore\n      pop\n        /* \"MainContract.sol\":3168:4512  if (... */\n    tag_85:\n        /* \"MainContract.sol\":1891:4518  function addOrRequestMember(... */\n      pop\n      pop\n      pop\n      pop\n      pop\n      jump\t// out\n        /* \"MainContract.sol\":6360:6571  function memberExistOrNot(address _userAddress) public view returns (bool) {... */\n    tag_17:\n        /* \"MainContract.sol\":6429:6433  bool */\n      0x00\n        /* \"MainContract.sol\":6479:6483  true */\n      0x01\n        /* \"MainContract.sol\":6450:6483  memberExist[_userAddress] == true */\n      iszero\n      iszero\n        /* \"MainContract.sol\":6450:6461  memberExist */\n      0x06\n        /* \"MainContract.sol\":6450:6475  memberExist[_userAddress] */\n      0x00\n        /* \"MainContract.sol\":6462:6474  _userAddress */\n      dup5\n        /* \"MainContract.sol\":6450:6475  memberExist[_userAddress] */\n      0xffffffffffffffffffffffffffffffffffffffff\n      and\n      0xffffffffffffffffffffffffffffffffffffffff\n      and\n      dup2\n      mstore\n      0x20\n      add\n      swap1\n      dup2\n      mstore\n      0x20\n      add\n      0x00\n      keccak256\n      0x00\n      swap1\n      sload\n      swap1\n      0x0100\n      exp\n      swap1\n      div\n      0xff\n      and\n        /* \"MainContract.sol\":6450:6483  memberExist[_userAddress] == true */\n      iszero\n      iszero\n      sub\n        /* \"MainContract.sol\":6445:6565  if ((memberExist[_userAddress] == true)) {... */\n      tag_102\n      jumpi\n        /* \"MainContract.sol\":6507:6511  true */\n      0x01\n        /* \"MainContract.sol\":6500:6511  return true */\n      swap1\n      pop\n      jump(tag_101)\n        /* \"MainContract.sol\":6445:6565  if ((memberExist[_userAddress] == true)) {... */\n    tag_102:\n        /* \"MainContract.sol\":6549:6554  false */\n      0x00\n        /* \"MainContract.sol\":6542:6554  return false */\n      swap1\n      pop\n        /* \"MainContract.sol\":6360:6571  function memberExistOrNot(address _userAddress) public view returns (bool) {... */\n    tag_101:\n      swap2\n      swap1\n      pop\n      jump\t// out\n        /* \"MainContract.sol\":322:360  function recieve() external payable {} */\n    tag_21:\n      jump\t// out\n        /* \"MainContract.sol\":4635:4955  function findMember(... */\n    tag_26:\n        /* \"MainContract.sol\":4742:4761  MemberStruct memory */\n      tag_105\n      tag_106\n      jump\t// in\n    tag_105:\n        /* \"MainContract.sol\":4796:4800  true */\n      0x01\n        /* \"MainContract.sol\":4777:4800  requestedMember == true */\n      iszero\n      iszero\n        /* \"MainContract.sol\":4777:4792  requestedMember */\n      dup3\n        /* \"MainContract.sol\":4777:4800  requestedMember == true */\n      iszero\n      iszero\n      sub\n        /* \"MainContract.sol\":4773:4949  if (requestedMember == true) {... */\n      tag_108\n      jumpi\n        /* \"MainContract.sol\":4823:4852  getRequestedMemberWithAddress */\n      0x07\n        /* \"MainContract.sol\":4823:4866  getRequestedMemberWithAddress[_userAddress] */\n      0x00\n        /* \"MainContract.sol\":4853:4865  _userAddress */\n      dup5\n        /* \"MainContract.sol\":4823:4866  getRequestedMemberWithAddress[_userAddress] */\n      0xffffffffffffffffffffffffffffffffffffffff\n      and\n      0xffffffffffffffffffffffffffffffffffffffff\n      and\n      dup2\n      mstore\n      0x20\n      add\n      swap1\n      dup2\n      mstore\n      0x20\n      add\n      0x00\n      keccak256\n        /* \"MainContract.sol\":4816:4866  return getRequestedMemberWithAddress[_userAddress] */\n      mload(0x40)\n      dup1\n      0xa0\n      add\n      0x40\n      mstore\n      swap1\n      dup2\n      0x00\n      dup3\n      add\n      dup1\n      sload\n      tag_109\n      swap1\n      tag_110\n      jump\t// in\n    tag_109:\n      dup1\n      0x1f\n      add\n      0x20\n      dup1\n      swap2\n      div\n      mul\n      0x20\n      add\n      mload(0x40)\n      swap1\n      dup2\n      add\n      0x40\n      mstore\n      dup1\n      swap3\n      swap2\n      swap1\n      dup2\n      dup2\n      mstore\n      0x20\n      add\n      dup3\n      dup1\n      sload\n      tag_111\n      swap1\n      tag_110\n      jump\t// in\n    tag_111:\n      dup1\n      iszero\n      tag_112\n      jumpi\n      dup1\n      0x1f\n      lt\n      tag_113\n      jumpi\n      0x0100\n      dup1\n      dup4\n      sload\n      div\n      mul\n      dup4\n      mstore\n      swap2\n      0x20\n      add\n      swap2\n      jump(tag_112)\n    tag_113:\n      dup3\n      add\n      swap2\n      swap1\n      0x00\n      mstore\n      keccak256(0x00, 0x20)\n      swap1\n    tag_114:\n      dup2\n      sload\n      dup2\n      mstore\n      swap1\n      0x01\n      add\n      swap1\n      0x20\n      add\n      dup1\n      dup4\n      gt\n      tag_114\n      jumpi\n      dup3\n      swap1\n      sub\n      0x1f\n      and\n      dup3\n      add\n      swap2\n    tag_112:\n      pop\n      pop\n      pop\n      pop\n      pop\n      dup2\n      mstore\n      0x20\n      add\n      0x01\n      dup3\n      add\n      dup1\n      sload\n      tag_115\n      swap1\n      tag_110\n      jump\t// in\n    tag_115:\n      dup1\n      0x1f\n      add\n      0x20\n      dup1\n      swap2\n      div\n      mul\n      0x20\n      add\n      mload(0x40)\n      swap1\n      dup2\n      add\n      0x40\n      mstore\n      dup1\n      swap3\n      swap2\n      swap1\n      dup2\n      dup2\n      mstore\n      0x20\n      add\n      dup3\n      dup1\n      sload\n      tag_116\n      swap1\n      tag_110\n      jump\t// in\n    tag_116:\n      dup1\n      iszero\n      tag_117\n      jumpi\n      dup1\n      0x1f\n      lt\n      tag_118\n      jumpi\n      0x0100\n      dup1\n      dup4\n      sload\n      div\n      mul\n      dup4\n      mstore\n      swap2\n      0x20\n      add\n      swap2\n      jump(tag_117)\n    tag_118:\n      dup3\n      add\n      swap2\n      swap1\n      0x00\n      mstore\n      keccak256(0x00, 0x20)\n      swap1\n    tag_119:\n      dup2\n      sload\n      dup2\n      mstore\n      swap1\n      0x01\n      add\n      swap1\n      0x20\n      add\n      dup1\n      dup4\n      gt\n      tag_119\n      jumpi\n      dup3\n      swap1\n      sub\n      0x1f\n      and\n      dup3\n      add\n      swap2\n    tag_117:\n      pop\n      pop\n      pop\n      pop\n      pop\n      dup2\n      mstore\n      0x20\n      add\n      0x02\n      dup3\n      add\n      dup1\n      sload\n      tag_120\n      swap1\n      tag_110\n      jump\t// in\n    tag_120:\n      dup1\n      0x1f\n      add\n      0x20\n      dup1\n      swap2\n      div\n      mul\n      0x20\n      add\n      mload(0x40)\n      swap1\n      dup2\n      add\n      0x40\n      mstore\n      dup1\n      swap3\n      swap2\n      swap1\n      dup2\n      dup2\n      mstore\n      0x20\n      add\n      dup3\n      dup1\n      sload\n      tag_121\n      swap1\n      tag_110\n      jump\t// in\n    tag_121:\n      dup1\n      iszero\n      tag_122\n      jumpi\n      dup1\n      0x1f\n      lt\n      tag_123\n      jumpi\n      0x0100\n      dup1\n      dup4\n      sload\n      div\n      mul\n      dup4\n      mstore\n      swap2\n      0x20\n      add\n      swap2\n      jump(tag_122)\n    tag_123:\n      dup3\n      add\n      swap2\n      swap1\n      0x00\n      mstore\n      keccak256(0x00, 0x20)\n      swap1\n    tag_124:\n      dup2\n      sload\n      dup2\n      mstore\n      swap1\n      0x01\n      add\n      swap1\n      0x20\n      add\n      dup1\n      dup4\n      gt\n      tag_124\n      jumpi\n      dup3\n      swap1\n      sub\n      0x1f\n      and\n      dup3\n      add\n      swap2\n    tag_122:\n      pop\n      pop\n      pop\n      pop\n      pop\n      dup2\n      mstore\n      0x20\n      add\n      0x03\n      dup3\n      add\n      0x00\n      swap1\n      sload\n      swap1\n      0x0100\n      exp\n      swap1\n      div\n      0xffffffffffffffffffffffffffffffffffffffff\n      and\n      0xffffffffffffffffffffffffffffffffffffffff\n      and\n      0xffffffffffffffffffffffffffffffffffffffff\n      and\n      dup2\n      mstore\n      0x20\n      add\n      0x04\n      dup3\n      add\n      sload\n      dup2\n      mstore\n      pop\n      pop\n      swap1\n      pop\n      jump(tag_107)\n        /* \"MainContract.sol\":4773:4949  if (requestedMember == true) {... */\n    tag_108:\n        /* \"MainContract.sol\":4904:4924  getMemberWithAddress */\n      0x04\n        /* \"MainContract.sol\":4904:4938  getMemberWithAddress[_userAddress] */\n      0x00\n        /* \"MainContract.sol\":4925:4937  _userAddress */\n      dup5\n        /* \"MainContract.sol\":4904:4938  getMemberWithAddress[_userAddress] */\n      0xffffffffffffffffffffffffffffffffffffffff\n      and\n      0xffffffffffffffffffffffffffffffffffffffff\n      and\n      dup2\n      mstore\n      0x20\n      add\n      swap1\n      dup2\n      mstore\n      0x20\n      add\n      0x00\n      keccak256\n        /* \"MainContract.sol\":4897:4938  return getMemberWithAddress[_userAddress] */\n      mload(0x40)\n      dup1\n      0xa0\n      add\n      0x40\n      mstore\n      swap1\n      dup2\n      0x00\n      dup3\n      add\n      dup1\n      sload\n      tag_126\n      swap1\n      tag_110\n      jump\t// in\n    tag_126:\n      dup1\n      0x1f\n      add\n      0x20\n      dup1\n      swap2\n      div\n      mul\n      0x20\n      add\n      mload(0x40)\n      swap1\n      dup2\n      add\n      0x40\n      mstore\n      dup1\n      swap3\n      swap2\n      swap1\n      dup2\n      dup2\n      mstore\n      0x20\n      add\n      dup3\n      dup1\n      sload\n      tag_127\n      swap1\n      tag_110\n      jump\t// in\n    tag_127:\n      dup1\n      iszero\n      tag_128\n      jumpi\n      dup1\n      0x1f\n      lt\n      tag_129\n      jumpi\n      0x0100\n      dup1\n      dup4\n      sload\n      div\n      mul\n      dup4\n      mstore\n      swap2\n      0x20\n      add\n      swap2\n      jump(tag_128)\n    tag_129:\n      dup3\n      add\n      swap2\n      swap1\n      0x00\n      mstore\n      keccak256(0x00, 0x20)\n      swap1\n    tag_130:\n      dup2\n      sload\n      dup2\n      mstore\n      swap1\n      0x01\n      add\n      swap1\n      0x20\n      add\n      dup1\n      dup4\n      gt\n      tag_130\n      jumpi\n      dup3\n      swap1\n      sub\n      0x1f\n      and\n      dup3\n      add\n      swap2\n    tag_128:\n      pop\n      pop\n      pop\n      pop\n      pop\n      dup2\n      mstore\n      0x20\n      add\n      0x01\n      dup3\n      add\n      dup1\n      sload\n      tag_131\n      swap1\n      tag_110\n      jump\t// in\n    tag_131:\n      dup1\n      0x1f\n      add\n      0x20\n      dup1\n      swap2\n      div\n      mul\n      0x20\n      add\n      mload(0x40)\n      swap1\n      dup2\n      add\n      0x40\n      mstore\n      dup1\n      swap3\n      swap2\n      swap1\n      dup2\n      dup2\n      mstore\n      0x20\n      add\n      dup3\n      dup1\n      sload\n      tag_132\n      swap1\n      tag_110\n      jump\t// in\n    tag_132:\n      dup1\n      iszero\n      tag_133\n      jumpi\n      dup1\n      0x1f\n      lt\n      tag_134\n      jumpi\n      0x0100\n      dup1\n      dup4\n      sload\n      div\n      mul\n      dup4\n      mstore\n      swap2\n      0x20\n      add\n      swap2\n      jump(tag_133)\n    tag_134:\n      dup3\n      add\n      swap2\n      swap1\n      0x00\n      mstore\n      keccak256(0x00, 0x20)\n      swap1\n    tag_135:\n      dup2\n      sload\n      dup2\n      mstore\n      swap1\n      0x01\n      add\n      swap1\n      0x20\n      add\n      dup1\n      dup4\n      gt\n      tag_135\n      jumpi\n      dup3\n      swap1\n      sub\n      0x1f\n      and\n      dup3\n      add\n      swap2\n    tag_133:\n      pop\n      pop\n      pop\n      pop\n      pop\n      dup2\n      mstore\n      0x20\n      add\n      0x02\n      dup3\n      add\n      dup1\n      sload\n      tag_136\n      swap1\n      tag_110\n      jump\t// in\n    tag_136:\n      dup1\n      0x1f\n      add\n      0x20\n      dup1\n      swap2\n      div\n      mul\n      0x20\n      add\n      mload(0x40)\n      swap1\n      dup2\n      add\n      0x40\n      mstore\n      dup1\n      swap3\n      swap2\n      swap1\n      dup2\n      dup2\n      mstore\n      0x20\n      add\n      dup3\n      dup1\n      sload\n      tag_137\n      swap1\n      tag_110\n      jump\t// in\n    tag_137:\n      dup1\n      iszero\n      tag_138\n      jumpi\n      dup1\n      0x1f\n      lt\n      tag_139\n      jumpi\n      0x0100\n      dup1\n      dup4\n      sload\n      div\n      mul\n      dup4\n      mstore\n      swap2\n      0x20\n      add\n      swap2\n      jump(tag_138)\n    tag_139:\n      dup3\n      add\n      swap2\n      swap1\n      0x00\n      mstore\n      keccak256(0x00, 0x20)\n      swap1\n    tag_140:\n      dup2\n      sload\n      dup2\n      mstore\n      swap1\n      0x01\n      add\n      swap1\n      0x20\n      add\n      dup1\n      dup4\n      gt\n      tag_140\n      jumpi\n      dup3\n      swap1\n      sub\n      0x1f\n      and\n      dup3\n      add\n      swap2\n    tag_138:\n      pop\n      pop\n      pop\n      pop\n      pop\n      dup2\n      mstore\n      0x20\n      add\n      0x03\n      dup3\n      add\n      0x00\n      swap1\n      sload\n      swap1\n      0x0100\n      exp\n      swap1\n      div\n      0xffffffffffffffffffffffffffffffffffffffff\n      and\n      0xffffffffffffffffffffffffffffffffffffffff\n      and\n      0xffffffffffffffffffffffffffffffffffffffff\n      and\n      dup2\n      mstore\n      0x20\n      add\n      0x04\n      dup3\n      add\n      sload\n      dup2\n      mstore\n      pop\n      pop\n      swap1\n      pop\n        /* \"MainContract.sol\":4635:4955  function findMember(... */\n    tag_107:\n      swap3\n      swap2\n      pop\n      pop\n      jump\t// out\n        /* \"MainContract.sol\":4997:6262  function approoveRequest(... */\n    tag_33:\n        /* \"MainContract.sol\":5113:5151  MemberStruct memory memberTobeApproved */\n      0x00\n        /* \"MainContract.sol\":5154:5183  getRequestedMemberWithAddress */\n      0x07\n        /* \"MainContract.sol\":5154:5219  getRequestedMemberWithAddress[... */\n      0x00\n        /* \"MainContract.sol\":5197:5209  _userAddress */\n      dup5\n        /* \"MainContract.sol\":5154:5219  getRequestedMemberWithAddress[... */\n      0xffffffffffffffffffffffffffffffffffffffff\n      and\n      0xffffffffffffffffffffffffffffffffffffffff\n      and\n      dup2\n      mstore\n      0x20\n      add\n      swap1\n      dup2\n      mstore\n      0x20\n      add\n      0x00\n      keccak256\n        /* \"MainContract.sol\":5113:5219  MemberStruct memory memberTobeApproved = getRequestedMemberWithAddress[... */\n      mload(0x40)\n      dup1\n      0xa0\n      add\n      0x40\n      mstore\n      swap1\n      dup2\n      0x00\n      dup3\n      add\n      dup1\n      sload\n      tag_142\n      swap1\n      tag_110\n      jump\t// in\n    tag_142:\n      dup1\n      0x1f\n      add\n      0x20\n      dup1\n      swap2\n      div\n      mul\n      0x20\n      add\n      mload(0x40)\n      swap1\n      dup2\n      add\n      0x40\n      mstore\n      dup1\n      swap3\n      swap2\n      swap1\n      dup2\n      dup2\n      mstore\n      0x20\n      add\n      dup3\n      dup1\n      sload\n      tag_143\n      swap1\n      tag_110\n      jump\t// in\n    tag_143:\n      dup1\n      iszero\n      tag_144\n      jumpi\n      dup1\n      0x1f\n      lt\n      tag_145\n      jumpi\n      0x0100\n      dup1\n      dup4\n      sload\n      div\n      mul\n      dup4\n      mstore\n      swap2\n      0x20\n      add\n      swap2\n      jump(tag_144)\n    tag_145:\n      dup3\n      add\n      swap2\n      swap1\n      0x00\n      mstore\n      keccak256(0x00, 0x20)\n      swap1\n    tag_146:\n      dup2\n      sload\n      dup2\n      mstore\n      swap1\n      0x01\n      add\n      swap1\n      0x20\n      add\n      dup1\n      dup4\n      gt\n      tag_146\n      jumpi\n      dup3\n      swap1\n      sub\n      0x1f\n      and\n      dup3\n      add\n      swap2\n    tag_144:\n      pop\n      pop\n      pop\n      pop\n      pop\n      dup2\n      mstore\n      0x20\n      add\n      0x01\n      dup3\n      add\n      dup1\n      sload\n      tag_147\n      swap1\n      tag_110\n      jump\t// in\n    tag_147:\n      dup1\n      0x1f\n      add\n      0x20\n      dup1\n      swap2\n      div\n      mul\n      0x20\n      add\n      mload(0x40)\n      swap1\n      dup2\n      add\n      0x40\n      mstore\n      dup1\n      swap3\n      swap2\n      swap1\n      dup2\n      dup2\n      mstore\n      0x20\n      add\n      dup3\n      dup1\n      sload\n      tag_148\n      swap1\n      tag_110\n      jump\t// in\n    tag_148:\n      dup1\n      iszero\n      tag_149\n      jumpi\n      dup1\n      0x1f\n      lt\n      tag_150\n      jumpi\n      0x0100\n      dup1\n      dup4\n      sload\n      div\n      mul\n      dup4\n      mstore\n      swap2\n      0x20\n      add\n      swap2\n      jump(tag_149)\n    tag_150:\n      dup3\n      add\n      swap2\n      swap1\n      0x00\n      mstore\n      keccak256(0x00, 0x20)\n      swap1\n    tag_151:\n      dup2\n      sload\n      dup2\n      mstore\n      swap1\n      0x01\n      add\n      swap1\n      0x20\n      add\n      dup1\n      dup4\n      gt\n      tag_151\n      jumpi\n      dup3\n      swap1\n      sub\n      0x1f\n      and\n      dup3\n      add\n      swap2\n    tag_149:\n      pop\n      pop\n      pop\n      pop\n      pop\n      dup2\n      mstore\n      0x20\n      add\n      0x02\n      dup3\n      add\n      dup1\n      sload\n      tag_152\n      swap1\n      tag_110\n      jump\t// in\n    tag_152:\n      dup1\n      0x1f\n      add\n      0x20\n      dup1\n      swap2\n      div\n      mul\n      0x20\n      add\n      mload(0x40)\n      swap1\n      dup2\n      add\n      0x40\n      mstore\n      dup1\n      swap3\n      swap2\n      swap1\n      dup2\n      dup2\n      mstore\n      0x20\n      add\n      dup3\n      dup1\n      sload\n      tag_153\n      swap1\n      tag_110\n      jump\t// in\n    tag_153:\n      dup1\n      iszero\n      tag_154\n      jumpi\n      dup1\n      0x1f\n      lt\n      tag_155\n      jumpi\n      0x0100\n      dup1\n      dup4\n      sload\n      div\n      mul\n      dup4\n      mstore\n      swap2\n      0x20\n      add\n      swap2\n      jump(tag_154)\n    tag_155:\n      dup3\n      add\n      swap2\n      swap1\n      0x00\n      mstore\n      keccak256(0x00, 0x20)\n      swap1\n    tag_156:\n      dup2\n      sload\n      dup2\n      mstore\n      swap1\n      0x01\n      add\n      swap1\n      0x20\n      add\n      dup1\n      dup4\n      gt\n      tag_156\n      jumpi\n      dup3\n      swap1\n      sub\n      0x1f\n      and\n      dup3\n      add\n      swap2\n    tag_154:\n      pop\n      pop\n      pop\n      pop\n      pop\n      dup2\n      mstore\n      0x20\n      add\n      0x03\n      dup3\n      add\n      0x00\n      swap1\n      sload\n      swap1\n      0x0100\n      exp\n      swap1\n      div\n      0xffffffffffffffffffffffffffffffffffffffff\n      and\n      0xffffffffffffffffffffffffffffffffffffffff\n      and\n      0xffffffffffffffffffffffffffffffffffffffff\n      and\n      dup2\n      mstore\n      0x20\n      add\n      0x04\n      dup3\n      add\n      sload\n      dup2\n      mstore\n      pop\n      pop\n      swap1\n      pop\n        /* \"MainContract.sol\":5229:5264  MemberStruct memory approvingMember */\n      0x00\n        /* \"MainContract.sol\":5267:5287  getMemberWithAddress */\n      0x04\n        /* \"MainContract.sol\":5267:5331  getMemberWithAddress[... */\n      0x00\n        /* \"MainContract.sol\":5301:5321  approvingUserAddress */\n      dup5\n        /* \"MainContract.sol\":5267:5331  getMemberWithAddress[... */\n      0xffffffffffffffffffffffffffffffffffffffff\n      and\n      0xffffffffffffffffffffffffffffffffffffffff\n      and\n      dup2\n      mstore\n      0x20\n      add\n      swap1\n      dup2\n      mstore\n      0x20\n      add\n      0x00\n      keccak256\n        /* \"MainContract.sol\":5229:5331  MemberStruct memory approvingMember = getMemberWithAddress[... */\n      mload(0x40)\n      dup1\n      0xa0\n      add\n      0x40\n      mstore\n      swap1\n      dup2\n      0x00\n      dup3\n      add\n      dup1\n      sload\n      tag_157\n      swap1\n      tag_110\n      jump\t// in\n    tag_157:\n      dup1\n      0x1f\n      add\n      0x20\n      dup1\n      swap2\n      div\n      mul\n      0x20\n      add\n      mload(0x40)\n      swap1\n      dup2\n      add\n      0x40\n      mstore\n      dup1\n      swap3\n      swap2\n      swap1\n      dup2\n      dup2\n      mstore\n      0x20\n      add\n      dup3\n      dup1\n      sload\n      tag_158\n      swap1\n      tag_110\n      jump\t// in\n    tag_158:\n      dup1\n      iszero\n      tag_159\n      jumpi\n      dup1\n      0x1f\n      lt\n      tag_160\n      jumpi\n      0x0100\n      dup1\n      dup4\n      sload\n      div\n      mul\n      dup4\n      mstore\n      swap2\n      0x20\n      add\n      swap2\n      jump(tag_159)\n    tag_160:\n      dup3\n      add\n      swap2\n      swap1\n      0x00\n      mstore\n      keccak256(0x00, 0x20)\n      swap1\n    tag_161:\n      dup2\n      sload\n      dup2\n      mstore\n      swap1\n      0x01\n      add\n      swap1\n      0x20\n      add\n      dup1\n      dup4\n      gt\n      tag_161\n      jumpi\n      dup3\n      swap1\n      sub\n      0x1f\n      and\n      dup3\n      add\n      swap2\n    tag_159:\n      pop\n      pop\n      pop\n      pop\n      pop\n      dup2\n      mstore\n      0x20\n      add\n      0x01\n      dup3\n      add\n      dup1\n      sload\n      tag_162\n      swap1\n      tag_110\n      jump\t// in\n    tag_162:\n      dup1\n      0x1f\n      add\n      0x20\n      dup1\n      swap2\n      div\n      mul\n      0x20\n      add\n      mload(0x40)\n      swap1\n      dup2\n      add\n      0x40\n      mstore\n      dup1\n      swap3\n      swap2\n      swap1\n      dup2\n      dup2\n      mstore\n      0x20\n      add\n      dup3\n      dup1\n      sload\n      tag_163\n      swap1\n      tag_110\n      jump\t// in\n    tag_163:\n      dup1\n      iszero\n      tag_164\n      jumpi\n      dup1\n      0x1f\n      lt\n      tag_165\n      jumpi\n      0x0100\n      dup1\n      dup4\n      sload\n      div\n      mul\n      dup4\n      mstore\n      swap2\n      0x20\n      add\n      swap2\n      jump(tag_164)\n    tag_165:\n      dup3\n      add\n      swap2\n      swap1\n      0x00\n      mstore\n      keccak256(0x00, 0x20)\n      swap1\n    tag_166:\n      dup2\n      sload\n      dup2\n      mstore\n      swap1\n      0x01\n      add\n      swap1\n      0x20\n      add\n      dup1\n      dup4\n      gt\n      tag_166\n      jumpi\n      dup3\n      swap1\n      sub\n      0x1f\n      and\n      dup3\n      add\n      swap2\n    tag_164:\n      pop\n      pop\n      pop\n      pop\n      pop\n      dup2\n      mstore\n      0x20\n      add\n      0x02\n      dup3\n      add\n      dup1\n      sload\n      tag_167\n      swap1\n      tag_110\n      jump\t// in\n    tag_167:\n      dup1\n      0x1f\n      add\n      0x20\n      dup1\n      swap2\n      div\n      mul\n      0x20\n      add\n      mload(0x40)\n      swap1\n      dup2\n      add\n      0x40\n      mstore\n      dup1\n      swap3\n      swap2\n      swap1\n      dup2\n      dup2\n      mstore\n      0x20\n      add\n      dup3\n      dup1\n      sload\n      tag_168\n      swap1\n      tag_110\n      jump\t// in\n    tag_168:\n      dup1\n      iszero\n      tag_169\n      jumpi\n      dup1\n      0x1f\n      lt\n      tag_170\n      jumpi\n      0x0100\n      dup1\n      dup4\n      sload\n      div\n      mul\n      dup4\n      mstore\n      swap2\n      0x20\n      add\n      swap2\n      jump(tag_169)\n    tag_170:\n      dup3\n      add\n      swap2\n      swap1\n      0x00\n      mstore\n      keccak256(0x00, 0x20)\n      swap1\n    tag_171:\n      dup2\n      sload\n      dup2\n      mstore\n      swap1\n      0x01\n      add\n      swap1\n      0x20\n      add\n      dup1\n      dup4\n      gt\n      tag_171\n      jumpi\n      dup3\n      swap1\n      sub\n      0x1f\n      and\n      dup3\n      add\n      swap2\n    tag_169:\n      pop\n      pop\n      pop\n      pop\n      pop\n      dup2\n      mstore\n      0x20\n      add\n      0x03\n      dup3\n      add\n      0x00\n      swap1\n      sload\n      swap1\n      0x0100\n      exp\n      swap1\n      div\n      0xffffffffffffffffffffffffffffffffffffffff\n      and\n      0xffffffffffffffffffffffffffffffffffffffff\n      and\n      0xffffffffffffffffffffffffffffffffffffffff\n      and\n      dup2\n      mstore\n      0x20\n      add\n      0x04\n      dup3\n      add\n      sload\n      dup2\n      mstore\n      pop\n      pop\n      swap1\n      pop\n        /* \"MainContract.sol\":5341:5359  string memory post */\n      0x00\n        /* \"MainContract.sol\":5362:5380  memberTobeApproved */\n      dup3\n        /* \"MainContract.sol\":5362:5385  memberTobeApproved.post */\n      0x00\n      add\n      mload\n        /* \"MainContract.sol\":5341:5385  string memory post = memberTobeApproved.post */\n      swap1\n      pop\n        /* \"MainContract.sol\":5395:5413  string memory dept */\n      0x00\n        /* \"MainContract.sol\":5416:5434  memberTobeApproved */\n      dup4\n        /* \"MainContract.sol\":5416:5439  memberTobeApproved.dept */\n      0x20\n      add\n      mload\n        /* \"MainContract.sol\":5395:5439  string memory dept = memberTobeApproved.dept */\n      swap1\n      pop\n        /* \"MainContract.sol\":5449:5467  string memory name */\n      0x00\n        /* \"MainContract.sol\":5470:5488  memberTobeApproved */\n      dup5\n        /* \"MainContract.sol\":5470:5493  memberTobeApproved.name */\n      0x40\n      add\n      mload\n        /* \"MainContract.sol\":5449:5493  string memory name = memberTobeApproved.name */\n      swap1\n      pop\n        /* \"MainContract.sol\":5503:5522  address userAddress */\n      0x00\n        /* \"MainContract.sol\":5525:5543  memberTobeApproved */\n      dup6\n        /* \"MainContract.sol\":5525:5555  memberTobeApproved.userAddress */\n      0x60\n      add\n      mload\n        /* \"MainContract.sol\":5503:5555  address userAddress = memberTobeApproved.userAddress */\n      swap1\n      pop\n        /* \"MainContract.sol\":5565:5592  uint256 requestingUserPower */\n      0x00\n        /* \"MainContract.sol\":5595:5613  memberTobeApproved */\n      dup7\n        /* \"MainContract.sol\":5595:5619  memberTobeApproved.power */\n      0x80\n      add\n      mload\n        /* \"MainContract.sol\":5565:5619  uint256 requestingUserPower = memberTobeApproved.power */\n      swap1\n      pop\n        /* \"MainContract.sol\":5629:5655  uint256 approvingUserPower */\n      0x00\n        /* \"MainContract.sol\":5658:5673  approvingMember */\n      dup7\n        /* \"MainContract.sol\":5658:5679  approvingMember.power */\n      0x80\n      add\n      mload\n        /* \"MainContract.sol\":5629:5679  uint256 approvingUserPower = approvingMember.power */\n      swap1\n      pop\n        /* \"MainContract.sol\":5733:5752  requestingUserPower */\n      dup2\n        /* \"MainContract.sol\":5711:5729  approvingUserPower */\n      dup2\n        /* \"MainContract.sol\":5711:5752  approvingUserPower <= requestingUserPower */\n      gt\n      iszero\n        /* \"MainContract.sol\":5690:5820  require(... */\n      tag_172\n      jumpi\n      mload(0x40)\n      0x08c379a000000000000000000000000000000000000000000000000000000000\n      dup2\n      mstore\n      0x04\n      add\n      tag_173\n      swap1\n      tag_174\n      jump\t// in\n    tag_173:\n      mload(0x40)\n      dup1\n      swap2\n      sub\n      swap1\n      revert\n    tag_172:\n        /* \"MainContract.sol\":5928:5984  addOrRequestMember(post, dept, name, userAddress, false) */\n      tag_175\n        /* \"MainContract.sol\":5947:5951  post */\n      dup7\n        /* \"MainContract.sol\":5953:5957  dept */\n      dup7\n        /* \"MainContract.sol\":5959:5963  name */\n      dup7\n        /* \"MainContract.sol\":5965:5976  userAddress */\n      dup7\n        /* \"MainContract.sol\":5978:5983  false */\n      0x00\n        /* \"MainContract.sol\":5928:5946  addOrRequestMember */\n      tag_12\n        /* \"MainContract.sol\":5928:5984  addOrRequestMember(post, dept, name, userAddress, false) */\n      jump\t// in\n    tag_175:\n        /* \"MainContract.sol\":6046:6059  uint256 index */\n      0x00\n        /* \"MainContract.sol\":6062:6078  indexFromRequest */\n      0x02\n        /* \"MainContract.sol\":6062:6092  indexFromRequest[_userAddress] */\n      0x00\n        /* \"MainContract.sol\":6079:6091  _userAddress */\n      dup13\n        /* \"MainContract.sol\":6062:6092  indexFromRequest[_userAddress] */\n      0xffffffffffffffffffffffffffffffffffffffff\n      and\n      0xffffffffffffffffffffffffffffffffffffffff\n      and\n      dup2\n      mstore\n      0x20\n      add\n      swap1\n      dup2\n      mstore\n      0x20\n      add\n      0x00\n      keccak256\n      sload\n        /* \"MainContract.sol\":6046:6092  uint256 index = indexFromRequest[_userAddress] */\n      swap1\n      pop\n        /* \"MainContract.sol\":6135:6158  arrayOfRequestedMembers */\n      0x08\n        /* \"MainContract.sol\":6205:6206  1 */\n      0x01\n        /* \"MainContract.sol\":6172:6195  arrayOfRequestedMembers */\n      0x08\n        /* \"MainContract.sol\":6172:6202  arrayOfRequestedMembers.length */\n      dup1\n      sload\n      swap1\n      pop\n        /* \"MainContract.sol\":6172:6206  arrayOfRequestedMembers.length - 1 */\n      tag_176\n      swap2\n      swap1\n      tag_177\n      jump\t// in\n    tag_176:\n        /* \"MainContract.sol\":6135:6216  arrayOfRequestedMembers[... */\n      dup2\n      sload\n      dup2\n      lt\n      tag_178\n      jumpi\n      tag_179\n      tag_180\n      jump\t// in\n    tag_179:\n    tag_178:\n      swap1\n      0x00\n      mstore\n      keccak256(0x00, 0x20)\n      swap1\n      0x05\n      mul\n      add\n        /* \"MainContract.sol\":6102:6125  arrayOfRequestedMembers */\n      0x08\n        /* \"MainContract.sol\":6126:6131  index */\n      dup3\n        /* \"MainContract.sol\":6102:6132  arrayOfRequestedMembers[index] */\n      dup2\n      sload\n      dup2\n      lt\n      tag_182\n      jumpi\n      tag_183\n      tag_180\n      jump\t// in\n    tag_183:\n    tag_182:\n      swap1\n      0x00\n      mstore\n      keccak256(0x00, 0x20)\n      swap1\n      0x05\n      mul\n      add\n        /* \"MainContract.sol\":6102:6216  arrayOfRequestedMembers[index] = arrayOfRequestedMembers[... */\n      0x00\n      dup3\n      add\n      dup2\n      0x00\n      add\n      swap1\n      dup2\n      tag_185\n      swap2\n      swap1\n      tag_79\n      jump\t// in\n    tag_185:\n      pop\n      0x01\n      dup3\n      add\n      dup2\n      0x01\n      add\n      swap1\n      dup2\n      tag_186\n      swap2\n      swap1\n      tag_79\n      jump\t// in\n    tag_186:\n      pop\n      0x02\n      dup3\n      add\n      dup2\n      0x02\n      add\n      swap1\n      dup2\n      tag_187\n      swap2\n      swap1\n      tag_79\n      jump\t// in\n    tag_187:\n      pop\n      0x03\n      dup3\n      add\n      0x00\n      swap1\n      sload\n      swap1\n      0x0100\n      exp\n      swap1\n      div\n      0xffffffffffffffffffffffffffffffffffffffff\n      and\n      dup2\n      0x03\n      add\n      exp(0x0100, 0x00)\n      dup2\n      sload\n      dup2\n      0xffffffffffffffffffffffffffffffffffffffff\n      mul\n      not\n      and\n      swap1\n      dup4\n      0xffffffffffffffffffffffffffffffffffffffff\n      and\n      mul\n      or\n      swap1\n      sstore\n      pop\n      0x04\n      dup3\n      add\n      sload\n      dup2\n      0x04\n      add\n      sstore\n      swap1\n      pop\n      pop\n        /* \"MainContract.sol\":6226:6249  arrayOfRequestedMembers */\n      0x08\n        /* \"MainContract.sol\":6226:6255  arrayOfRequestedMembers.pop() */\n      dup1\n      sload\n      dup1\n      tag_188\n      jumpi\n      tag_189\n      tag_190\n      jump\t// in\n    tag_189:\n    tag_188:\n      0x01\n      swap1\n      sub\n      dup2\n      dup2\n      swap1\n      0x00\n      mstore\n      keccak256(0x00, 0x20)\n      swap1\n      0x05\n      mul\n      add\n      0x00\n      dup1\n      dup3\n      add\n      0x00\n      tag_192\n      swap2\n      swap1\n      tag_193\n      jump\t// in\n    tag_192:\n      0x01\n      dup3\n      add\n      0x00\n      tag_194\n      swap2\n      swap1\n      tag_193\n      jump\t// in\n    tag_194:\n      0x02\n      dup3\n      add\n      0x00\n      tag_195\n      swap2\n      swap1\n      tag_193\n      jump\t// in\n    tag_195:\n      0x03\n      dup3\n      add\n      exp(0x0100, 0x00)\n      dup2\n      sload\n      swap1\n      0xffffffffffffffffffffffffffffffffffffffff\n      mul\n      not\n      and\n      swap1\n      sstore\n      0x04\n      dup3\n      add\n      0x00\n      swap1\n      sstore\n      pop\n      pop\n      swap1\n      sstore\n        /* \"MainContract.sol\":5103:6262  {... */\n      pop\n      pop\n      pop\n      pop\n      pop\n      pop\n      pop\n      pop\n      pop\n        /* \"MainContract.sol\":4997:6262  function approoveRequest(... */\n      pop\n      pop\n      jump\t// out\n        /* \"MainContract.sol\":1403:1657  function getApprovedOrRequestedMember(... */\n    tag_38:\n        /* \"MainContract.sol\":1490:1511  MemberStruct[] memory */\n      0x60\n        /* \"MainContract.sol\":1538:1542  true */\n      0x01\n        /* \"MainContract.sol\":1527:1542  request == true */\n      iszero\n      iszero\n        /* \"MainContract.sol\":1527:1534  request */\n      dup3\n        /* \"MainContract.sol\":1527:1542  request == true */\n      iszero\n      iszero\n      sub\n        /* \"MainContract.sol\":1523:1651  if (request == true) {... */\n      tag_197\n      jumpi\n        /* \"MainContract.sol\":1565:1588  arrayOfRequestedMembers */\n      0x08\n        /* \"MainContract.sol\":1558:1588  return arrayOfRequestedMembers */\n      dup1\n      sload\n      dup1\n      0x20\n      mul\n      0x20\n      add\n      mload(0x40)\n      swap1\n      dup2\n      add\n      0x40\n      mstore\n      dup1\n      swap3\n      swap2\n      swap1\n      dup2\n      dup2\n      mstore\n      0x20\n      add\n      0x00\n      swap1\n    tag_198:\n      dup3\n      dup3\n      lt\n      iszero\n      tag_199\n      jumpi\n      dup4\n      dup3\n      swap1\n      0x00\n      mstore\n      keccak256(0x00, 0x20)\n      swap1\n      0x05\n      mul\n      add\n      mload(0x40)\n      dup1\n      0xa0\n      add\n      0x40\n      mstore\n      swap1\n      dup2\n      0x00\n      dup3\n      add\n      dup1\n      sload\n      tag_201\n      swap1\n      tag_110\n      jump\t// in\n    tag_201:\n      dup1\n      0x1f\n      add\n      0x20\n      dup1\n      swap2\n      div\n      mul\n      0x20\n      add\n      mload(0x40)\n      swap1\n      dup2\n      add\n      0x40\n      mstore\n      dup1\n      swap3\n      swap2\n      swap1\n      dup2\n      dup2\n      mstore\n      0x20\n      add\n      dup3\n      dup1\n      sload\n      tag_202\n      swap1\n      tag_110\n      jump\t// in\n    tag_202:\n      dup1\n      iszero\n      tag_203\n      jumpi\n      dup1\n      0x1f\n      lt\n      tag_204\n      jumpi\n      0x0100\n      dup1\n      dup4\n      sload\n      div\n      mul\n      dup4\n      mstore\n      swap2\n      0x20\n      add\n      swap2\n      jump(tag_203)\n    tag_204:\n      dup3\n      add\n      swap2\n      swap1\n      0x00\n      mstore\n      keccak256(0x00, 0x20)\n      swap1\n    tag_205:\n      dup2\n      sload\n      dup2\n      mstore\n      swap1\n      0x01\n      add\n      swap1\n      0x20\n      add\n      dup1\n      dup4\n      gt\n      tag_205\n      jumpi\n      dup3\n      swap1\n      sub\n      0x1f\n      and\n      dup3\n      add\n      swap2\n    tag_203:\n      pop\n      pop\n      pop\n      pop\n      pop\n      dup2\n      mstore\n      0x20\n      add\n      0x01\n      dup3\n      add\n      dup1\n      sload\n      tag_206\n      swap1\n      tag_110\n      jump\t// in\n    tag_206:\n      dup1\n      0x1f\n      add\n      0x20\n      dup1\n      swap2\n      div\n      mul\n      0x20\n      add\n      mload(0x40)\n      swap1\n      dup2\n      add\n      0x40\n      mstore\n      dup1\n      swap3\n      swap2\n      swap1\n      dup2\n      dup2\n      mstore\n      0x20\n      add\n      dup3\n      dup1\n      sload\n      tag_207\n      swap1\n      tag_110\n      jump\t// in\n    tag_207:\n      dup1\n      iszero\n      tag_208\n      jumpi\n      dup1\n      0x1f\n      lt\n      tag_209\n      jumpi\n      0x0100\n      dup1\n      dup4\n      sload\n      div\n      mul\n      dup4\n      mstore\n      swap2\n      0x20\n      add\n      swap2\n      jump(tag_208)\n    tag_209:\n      dup3\n      add\n      swap2\n      swap1\n      0x00\n      mstore\n      keccak256(0x00, 0x20)\n      swap1\n    tag_210:\n      dup2\n      sload\n      dup2\n      mstore\n      swap1\n      0x01\n      add\n      swap1\n      0x20\n      add\n      dup1\n      dup4\n      gt\n      tag_210\n      jumpi\n      dup3\n      swap1\n      sub\n      0x1f\n      and\n      dup3\n      add\n      swap2\n    tag_208:\n      pop\n      pop\n      pop\n      pop\n      pop\n      dup2\n      mstore\n      0x20\n      add\n      0x02\n      dup3\n      add\n      dup1\n      sload\n      tag_211\n      swap1\n      tag_110\n      jump\t// in\n    tag_211:\n      dup1\n      0x1f\n      add\n      0x20\n      dup1\n      swap2\n      div\n      mul\n      0x20\n      add\n      mload(0x40)\n      swap1\n      dup2\n      add\n      0x40\n      mstore\n      dup1\n      swap3\n      swap2\n      swap1\n      dup2\n      dup2\n      mstore\n      0x20\n      add\n      dup3\n      dup1\n      sload\n      tag_212\n      swap1\n      tag_110\n      jump\t// in\n    tag_212:\n      dup1\n      iszero\n      tag_213\n      jumpi\n      dup1\n      0x1f\n      lt\n      tag_214\n      jumpi\n      0x0100\n      dup1\n      dup4\n      sload\n      div\n      mul\n      dup4\n      mstore\n      swap2\n      0x20\n      add\n      swap2\n      jump(tag_213)\n    tag_214:\n      dup3\n      add\n      swap2\n      swap1\n      0x00\n      mstore\n      keccak256(0x00, 0x20)\n      swap1\n    tag_215:\n      dup2\n      sload\n      dup2\n      mstore\n      swap1\n      0x01\n      add\n      swap1\n      0x20\n      add\n      dup1\n      dup4\n      gt\n      tag_215\n      jumpi\n      dup3\n      swap1\n      sub\n      0x1f\n      and\n      dup3\n      add\n      swap2\n    tag_213:\n      pop\n      pop\n      pop\n      pop\n      pop\n      dup2\n      mstore\n      0x20\n      add\n      0x03\n      dup3\n      add\n      0x00\n      swap1\n      sload\n      swap1\n      0x0100\n      exp\n      swap1\n      div\n      0xffffffffffffffffffffffffffffffffffffffff\n      and\n      0xffffffffffffffffffffffffffffffffffffffff\n      and\n      0xffffffffffffffffffffffffffffffffffffffff\n      and\n      dup2\n      mstore\n      0x20\n      add\n      0x04\n      dup3\n      add\n      sload\n      dup2\n      mstore\n      pop\n      pop\n      dup2\n      mstore\n      0x20\n      add\n      swap1\n      0x01\n      add\n      swap1\n      jump(tag_198)\n    tag_199:\n      pop\n      pop\n      pop\n      pop\n      swap1\n      pop\n      jump(tag_196)\n        /* \"MainContract.sol\":1523:1651  if (request == true) {... */\n    tag_197:\n        /* \"MainContract.sol\":1626:1640  arrayOfMembers */\n      0x05\n        /* \"MainContract.sol\":1619:1640  return arrayOfMembers */\n      dup1\n      sload\n      dup1\n      0x20\n      mul\n      0x20\n      add\n      mload(0x40)\n      swap1\n      dup2\n      add\n      0x40\n      mstore\n      dup1\n      swap3\n      swap2\n      swap1\n      dup2\n      dup2\n      mstore\n      0x20\n      add\n      0x00\n      swap1\n    tag_217:\n      dup3\n      dup3\n      lt\n      iszero\n      tag_218\n      jumpi\n      dup4\n      dup3\n      swap1\n      0x00\n      mstore\n      keccak256(0x00, 0x20)\n      swap1\n      0x05\n      mul\n      add\n      mload(0x40)\n      dup1\n      0xa0\n      add\n      0x40\n      mstore\n      swap1\n      dup2\n      0x00\n      dup3\n      add\n      dup1\n      sload\n      tag_220\n      swap1\n      tag_110\n      jump\t// in\n    tag_220:\n      dup1\n      0x1f\n      add\n      0x20\n      dup1\n      swap2\n      div\n      mul\n      0x20\n      add\n      mload(0x40)\n      swap1\n      dup2\n      add\n      0x40\n      mstore\n      dup1\n      swap3\n      swap2\n      swap1\n      dup2\n      dup2\n      mstore\n      0x20\n      add\n      dup3\n      dup1\n      sload\n      tag_221\n      swap1\n      tag_110\n      jump\t// in\n    tag_221:\n      dup1\n      iszero\n      tag_222\n      jumpi\n      dup1\n      0x1f\n      lt\n      tag_223\n      jumpi\n      0x0100\n      dup1\n      dup4\n      sload\n      div\n      mul\n      dup4\n      mstore\n      swap2\n      0x20\n      add\n      swap2\n      jump(tag_222)\n    tag_223:\n      dup3\n      add\n      swap2\n      swap1\n      0x00\n      mstore\n      keccak256(0x00, 0x20)\n      swap1\n    tag_224:\n      dup2\n      sload\n      dup2\n      mstore\n      swap1\n      0x01\n      add\n      swap1\n      0x20\n      add\n      dup1\n      dup4\n      gt\n      tag_224\n      jumpi\n      dup3\n      swap1\n      sub\n      0x1f\n      and\n      dup3\n      add\n      swap2\n    tag_222:\n      pop\n      pop\n      pop\n      pop\n      pop\n      dup2\n      mstore\n      0x20\n      add\n      0x01\n      dup3\n      add\n      dup1\n      sload\n      tag_225\n      swap1\n      tag_110\n      jump\t// in\n    tag_225:\n      dup1\n      0x1f\n      add\n      0x20\n      dup1\n      swap2\n      div\n      mul\n      0x20\n      add\n      mload(0x40)\n      swap1\n      dup2\n      add\n      0x40\n      mstore\n      dup1\n      swap3\n      swap2\n      swap1\n      dup2\n      dup2\n      mstore\n      0x20\n      add\n      dup3\n      dup1\n      sload\n      tag_226\n      swap1\n      tag_110\n      jump\t// in\n    tag_226:\n      dup1\n      iszero\n      tag_227\n      jumpi\n      dup1\n      0x1f\n      lt\n      tag_228\n      jumpi\n      0x0100\n      dup1\n      dup4\n      sload\n      div\n      mul\n      dup4\n      mstore\n      swap2\n      0x20\n      add\n      swap2\n      jump(tag_227)\n    tag_228:\n      dup3\n      add\n      swap2\n      swap1\n      0x00\n      mstore\n      keccak256(0x00, 0x20)\n      swap1\n    tag_229:\n      dup2\n      sload\n      dup2\n      mstore\n      swap1\n      0x01\n      add\n      swap1\n      0x20\n      add\n      dup1\n      dup4\n      gt\n      tag_229\n      jumpi\n      dup3\n      swap1\n      sub\n      0x1f\n      and\n      dup3\n      add\n      swap2\n    tag_227:\n      pop\n      pop\n      pop\n      pop\n      pop\n      dup2\n      mstore\n      0x20\n      add\n      0x02\n      dup3\n      add\n      dup1\n      sload\n      tag_230\n      swap1\n      tag_110\n      jump\t// in\n    tag_230:\n      dup1\n      0x1f\n      add\n      0x20\n      dup1\n      swap2\n      div\n      mul\n      0x20\n      add\n      mload(0x40)\n      swap1\n      dup2\n      add\n      0x40\n      mstore\n      dup1\n      swap3\n      swap2\n      swap1\n      dup2\n      dup2\n      mstore\n      0x20\n      add\n      dup3\n      dup1\n      sload\n      tag_231\n      swap1\n      tag_110\n      jump\t// in\n    tag_231:\n      dup1\n      iszero\n      tag_232\n      jumpi\n      dup1\n      0x1f\n      lt\n      tag_233\n      jumpi\n      0x0100\n      dup1\n      dup4\n      sload\n      div\n      mul\n      dup4\n      mstore\n      swap2\n      0x20\n      add\n      swap2\n      jump(tag_232)\n    tag_233:\n      dup3\n      add\n      swap2\n      swap1\n      0x00\n      mstore\n      keccak256(0x00, 0x20)\n      swap1\n    tag_234:\n      dup2\n      sload\n      dup2\n      mstore\n      swap1\n      0x01\n      add\n      swap1\n      0x20\n      add\n      dup1\n      dup4\n      gt\n      tag_234\n      jumpi\n      dup3\n      swap1\n      sub\n      0x1f\n      and\n      dup3\n      add\n      swap2\n    tag_232:\n      pop\n      pop\n      pop\n      pop\n      pop\n      dup2\n      mstore\n      0x20\n      add\n      0x03\n      dup3\n      add\n      0x00\n      swap1\n      sload\n      swap1\n      0x0100\n      exp\n      swap1\n      div\n      0xffffffffffffffffffffffffffffffffffffffff\n      and\n      0xffffffffffffffffffffffffffffffffffffffff\n      and\n      0xffffffffffffffffffffffffffffffffffffffff\n      and\n      dup2\n      mstore\n      0x20\n      add\n      0x04\n      dup3\n      add\n      sload\n      dup2\n      mstore\n      pop\n      pop\n      dup2\n      mstore\n      0x20\n      add\n      swap1\n      0x01\n      add\n      swap1\n      jump(tag_217)\n    tag_218:\n      pop\n      pop\n      pop\n      pop\n      swap1\n      pop\n        /* \"MainContract.sol\":1403:1657  function getApprovedOrRequestedMember(... */\n    tag_196:\n      swap2\n      swap1\n      pop\n      jump\t// out\n    tag_106:\n      mload(0x40)\n      dup1\n      0xa0\n      add\n      0x40\n      mstore\n      dup1\n      0x60\n      dup2\n      mstore\n      0x20\n      add\n      0x60\n      dup2\n      mstore\n      0x20\n      add\n      0x60\n      dup2\n      mstore\n      0x20\n      add\n      and(0xffffffffffffffffffffffffffffffffffffffff, 0x00)\n      dup2\n      mstore\n      0x20\n      add\n      0x00\n      dup2\n      mstore\n      pop\n      swap1\n      jump\t// out\n    tag_193:\n      pop\n      dup1\n      sload\n      tag_235\n      swap1\n      tag_110\n      jump\t// in\n    tag_235:\n      0x00\n      dup3\n      sstore\n      dup1\n      0x1f\n      lt\n      tag_237\n      jumpi\n      pop\n      jump(tag_236)\n    tag_237:\n      0x1f\n      add\n      0x20\n      swap1\n      div\n      swap1\n      0x00\n      mstore\n      keccak256(0x00, 0x20)\n      swap1\n      dup2\n      add\n      swap1\n      tag_238\n      swap2\n      swap1\n      tag_239\n      jump\t// in\n    tag_238:\n    tag_236:\n      pop\n      jump\t// out\n    tag_239:\n    tag_240:\n      dup1\n      dup3\n      gt\n      iszero\n      tag_241\n      jumpi\n      0x00\n      dup2\n      0x00\n      swap1\n      sstore\n      pop\n      0x01\n      add\n      jump(tag_240)\n    tag_241:\n      pop\n      swap1\n      jump\t// out\n        /* \"#utility.yul\":7:82   */\n    tag_242:\n        /* \"#utility.yul\":40:46   */\n      0x00\n        /* \"#utility.yul\":73:75   */\n      0x40\n        /* \"#utility.yul\":67:76   */\n      mload\n        /* \"#utility.yul\":57:76   */\n      swap1\n      pop\n        /* \"#utility.yul\":7:82   */\n      swap1\n      jump\t// out\n        /* \"#utility.yul\":88:205   */\n    tag_243:\n        /* \"#utility.yul\":197:198   */\n      0x00\n        /* \"#utility.yul\":194:195   */\n      dup1\n        /* \"#utility.yul\":187:199   */\n      revert\n        /* \"#utility.yul\":211:328   */\n    tag_244:\n        /* \"#utility.yul\":320:321   */\n      0x00\n        /* \"#utility.yul\":317:318   */\n      dup1\n        /* \"#utility.yul\":310:322   */\n      revert\n        /* \"#utility.yul\":334:451   */\n    tag_245:\n        /* \"#utility.yul\":443:444   */\n      0x00\n        /* \"#utility.yul\":440:441   */\n      dup1\n        /* \"#utility.yul\":433:445   */\n      revert\n        /* \"#utility.yul\":457:574   */\n    tag_246:\n        /* \"#utility.yul\":566:567   */\n      0x00\n        /* \"#utility.yul\":563:564   */\n      dup1\n        /* \"#utility.yul\":556:568   */\n      revert\n        /* \"#utility.yul\":580:682   */\n    tag_247:\n        /* \"#utility.yul\":621:627   */\n      0x00\n        /* \"#utility.yul\":672:674   */\n      0x1f\n        /* \"#utility.yul\":668:675   */\n      not\n        /* \"#utility.yul\":663:665   */\n      0x1f\n        /* \"#utility.yul\":656:661   */\n      dup4\n        /* \"#utility.yul\":652:666   */\n      add\n        /* \"#utility.yul\":648:676   */\n      and\n        /* \"#utility.yul\":638:676   */\n      swap1\n      pop\n        /* \"#utility.yul\":580:682   */\n      swap2\n      swap1\n      pop\n      jump\t// out\n        /* \"#utility.yul\":688:868   */\n    tag_248:\n        /* \"#utility.yul\":736:813   */\n      0x4e487b7100000000000000000000000000000000000000000000000000000000\n        /* \"#utility.yul\":733:734   */\n      0x00\n        /* \"#utility.yul\":726:814   */\n      mstore\n        /* \"#utility.yul\":833:837   */\n      0x41\n        /* \"#utility.yul\":830:831   */\n      0x04\n        /* \"#utility.yul\":823:838   */\n      mstore\n        /* \"#utility.yul\":857:861   */\n      0x24\n        /* \"#utility.yul\":854:855   */\n      0x00\n        /* \"#utility.yul\":847:862   */\n      revert\n        /* \"#utility.yul\":874:1155   */\n    tag_249:\n        /* \"#utility.yul\":957:984   */\n      tag_324\n        /* \"#utility.yul\":979:983   */\n      dup3\n        /* \"#utility.yul\":957:984   */\n      tag_247\n      jump\t// in\n    tag_324:\n        /* \"#utility.yul\":949:955   */\n      dup2\n        /* \"#utility.yul\":945:985   */\n      add\n        /* \"#utility.yul\":1087:1093   */\n      dup2\n        /* \"#utility.yul\":1075:1085   */\n      dup2\n        /* \"#utility.yul\":1072:1094   */\n      lt\n        /* \"#utility.yul\":1051:1069   */\n      0xffffffffffffffff\n        /* \"#utility.yul\":1039:1049   */\n      dup3\n        /* \"#utility.yul\":1036:1070   */\n      gt\n        /* \"#utility.yul\":1033:1095   */\n      or\n        /* \"#utility.yul\":1030:1118   */\n      iszero\n      tag_325\n      jumpi\n        /* \"#utility.yul\":1098:1116   */\n      tag_326\n      tag_248\n      jump\t// in\n    tag_326:\n        /* \"#utility.yul\":1030:1118   */\n    tag_325:\n        /* \"#utility.yul\":1138:1148   */\n      dup1\n        /* \"#utility.yul\":1134:1136   */\n      0x40\n        /* \"#utility.yul\":1127:1149   */\n      mstore\n        /* \"#utility.yul\":917:1155   */\n      pop\n        /* \"#utility.yul\":874:1155   */\n      pop\n      pop\n      jump\t// out\n        /* \"#utility.yul\":1161:1290   */\n    tag_250:\n        /* \"#utility.yul\":1195:1201   */\n      0x00\n        /* \"#utility.yul\":1222:1242   */\n      tag_328\n      tag_242\n      jump\t// in\n    tag_328:\n        /* \"#utility.yul\":1212:1242   */\n      swap1\n      pop\n        /* \"#utility.yul\":1251:1284   */\n      tag_329\n        /* \"#utility.yul\":1279:1283   */\n      dup3\n        /* \"#utility.yul\":1271:1277   */\n      dup3\n        /* \"#utility.yul\":1251:1284   */\n      tag_249\n      jump\t// in\n    tag_329:\n        /* \"#utility.yul\":1161:1290   */\n      swap2\n      swap1\n      pop\n      jump\t// out\n        /* \"#utility.yul\":1296:1604   */\n    tag_251:\n        /* \"#utility.yul\":1358:1362   */\n      0x00\n        /* \"#utility.yul\":1448:1466   */\n      0xffffffffffffffff\n        /* \"#utility.yul\":1440:1446   */\n      dup3\n        /* \"#utility.yul\":1437:1467   */\n      gt\n        /* \"#utility.yul\":1434:1490   */\n      iszero\n      tag_331\n      jumpi\n        /* \"#utility.yul\":1470:1488   */\n      tag_332\n      tag_248\n      jump\t// in\n    tag_332:\n        /* \"#utility.yul\":1434:1490   */\n    tag_331:\n        /* \"#utility.yul\":1508:1537   */\n      tag_333\n        /* \"#utility.yul\":1530:1536   */\n      dup3\n        /* \"#utility.yul\":1508:1537   */\n      tag_247\n      jump\t// in\n    tag_333:\n        /* \"#utility.yul\":1500:1537   */\n      swap1\n      pop\n        /* \"#utility.yul\":1592:1596   */\n      0x20\n        /* \"#utility.yul\":1586:1590   */\n      dup2\n        /* \"#utility.yul\":1582:1597   */\n      add\n        /* \"#utility.yul\":1574:1597   */\n      swap1\n      pop\n        /* \"#utility.yul\":1296:1604   */\n      swap2\n      swap1\n      pop\n      jump\t// out\n        /* \"#utility.yul\":1610:1756   */\n    tag_252:\n        /* \"#utility.yul\":1707:1713   */\n      dup3\n        /* \"#utility.yul\":1702:1705   */\n      dup2\n        /* \"#utility.yul\":1697:1700   */\n      dup4\n        /* \"#utility.yul\":1684:1714   */\n      calldatacopy\n        /* \"#utility.yul\":1748:1749   */\n      0x00\n        /* \"#utility.yul\":1739:1745   */\n      dup4\n        /* \"#utility.yul\":1734:1737   */\n      dup4\n        /* \"#utility.yul\":1730:1746   */\n      add\n        /* \"#utility.yul\":1723:1750   */\n      mstore\n        /* \"#utility.yul\":1610:1756   */\n      pop\n      pop\n      pop\n      jump\t// out\n        /* \"#utility.yul\":1762:2187   */\n    tag_253:\n        /* \"#utility.yul\":1840:1845   */\n      0x00\n        /* \"#utility.yul\":1865:1931   */\n      tag_336\n        /* \"#utility.yul\":1881:1930   */\n      tag_337\n        /* \"#utility.yul\":1923:1929   */\n      dup5\n        /* \"#utility.yul\":1881:1930   */\n      tag_251\n      jump\t// in\n    tag_337:\n        /* \"#utility.yul\":1865:1931   */\n      tag_250\n      jump\t// in\n    tag_336:\n        /* \"#utility.yul\":1856:1931   */\n      swap1\n      pop\n        /* \"#utility.yul\":1954:1960   */\n      dup3\n        /* \"#utility.yul\":1947:1952   */\n      dup2\n        /* \"#utility.yul\":1940:1961   */\n      mstore\n        /* \"#utility.yul\":1992:1996   */\n      0x20\n        /* \"#utility.yul\":1985:1990   */\n      dup2\n        /* \"#utility.yul\":1981:1997   */\n      add\n        /* \"#utility.yul\":2030:2033   */\n      dup5\n        /* \"#utility.yul\":2021:2027   */\n      dup5\n        /* \"#utility.yul\":2016:2019   */\n      dup5\n        /* \"#utility.yul\":2012:2028   */\n      add\n        /* \"#utility.yul\":2009:2034   */\n      gt\n        /* \"#utility.yul\":2006:2118   */\n      iszero\n      tag_338\n      jumpi\n        /* \"#utility.yul\":2037:2116   */\n      tag_339\n      tag_246\n      jump\t// in\n    tag_339:\n        /* \"#utility.yul\":2006:2118   */\n    tag_338:\n        /* \"#utility.yul\":2127:2181   */\n      tag_340\n        /* \"#utility.yul\":2174:2180   */\n      dup5\n        /* \"#utility.yul\":2169:2172   */\n      dup3\n        /* \"#utility.yul\":2164:2167   */\n      dup6\n        /* \"#utility.yul\":2127:2181   */\n      tag_252\n      jump\t// in\n    tag_340:\n        /* \"#utility.yul\":1846:2187   */\n      pop\n        /* \"#utility.yul\":1762:2187   */\n      swap4\n      swap3\n      pop\n      pop\n      pop\n      jump\t// out\n        /* \"#utility.yul\":2207:2547   */\n    tag_254:\n        /* \"#utility.yul\":2263:2268   */\n      0x00\n        /* \"#utility.yul\":2312:2315   */\n      dup3\n        /* \"#utility.yul\":2305:2309   */\n      0x1f\n        /* \"#utility.yul\":2297:2303   */\n      dup4\n        /* \"#utility.yul\":2293:2310   */\n      add\n        /* \"#utility.yul\":2289:2316   */\n      slt\n        /* \"#utility.yul\":2279:2401   */\n      tag_342\n      jumpi\n        /* \"#utility.yul\":2320:2399   */\n      tag_343\n      tag_245\n      jump\t// in\n    tag_343:\n        /* \"#utility.yul\":2279:2401   */\n    tag_342:\n        /* \"#utility.yul\":2437:2443   */\n      dup2\n        /* \"#utility.yul\":2424:2444   */\n      calldataload\n        /* \"#utility.yul\":2462:2541   */\n      tag_344\n        /* \"#utility.yul\":2537:2540   */\n      dup5\n        /* \"#utility.yul\":2529:2535   */\n      dup3\n        /* \"#utility.yul\":2522:2526   */\n      0x20\n        /* \"#utility.yul\":2514:2520   */\n      dup7\n        /* \"#utility.yul\":2510:2527   */\n      add\n        /* \"#utility.yul\":2462:2541   */\n      tag_253\n      jump\t// in\n    tag_344:\n        /* \"#utility.yul\":2453:2541   */\n      swap2\n      pop\n        /* \"#utility.yul\":2269:2547   */\n      pop\n        /* \"#utility.yul\":2207:2547   */\n      swap3\n      swap2\n      pop\n      pop\n      jump\t// out\n        /* \"#utility.yul\":2553:2679   */\n    tag_255:\n        /* \"#utility.yul\":2590:2597   */\n      0x00\n        /* \"#utility.yul\":2630:2672   */\n      0xffffffffffffffffffffffffffffffffffffffff\n        /* \"#utility.yul\":2623:2628   */\n      dup3\n        /* \"#utility.yul\":2619:2673   */\n      and\n        /* \"#utility.yul\":2608:2673   */\n      swap1\n      pop\n        /* \"#utility.yul\":2553:2679   */\n      swap2\n      swap1\n      pop\n      jump\t// out\n        /* \"#utility.yul\":2685:2781   */\n    tag_256:\n        /* \"#utility.yul\":2722:2729   */\n      0x00\n        /* \"#utility.yul\":2751:2775   */\n      tag_347\n        /* \"#utility.yul\":2769:2774   */\n      dup3\n        /* \"#utility.yul\":2751:2775   */\n      tag_255\n      jump\t// in\n    tag_347:\n        /* \"#utility.yul\":2740:2775   */\n      swap1\n      pop\n        /* \"#utility.yul\":2685:2781   */\n      swap2\n      swap1\n      pop\n      jump\t// out\n        /* \"#utility.yul\":2787:2909   */\n    tag_257:\n        /* \"#utility.yul\":2860:2884   */\n      tag_349\n        /* \"#utility.yul\":2878:2883   */\n      dup2\n        /* \"#utility.yul\":2860:2884   */\n      tag_256\n      jump\t// in\n    tag_349:\n        /* \"#utility.yul\":2853:2858   */\n      dup2\n        /* \"#utility.yul\":2850:2885   */\n      eq\n        /* \"#utility.yul\":2840:2903   */\n      tag_350\n      jumpi\n        /* \"#utility.yul\":2899:2900   */\n      0x00\n        /* \"#utility.yul\":2896:2897   */\n      dup1\n        /* \"#utility.yul\":2889:2901   */\n      revert\n        /* \"#utility.yul\":2840:2903   */\n    tag_350:\n        /* \"#utility.yul\":2787:2909   */\n      pop\n      jump\t// out\n        /* \"#utility.yul\":2915:3054   */\n    tag_258:\n        /* \"#utility.yul\":2961:2966   */\n      0x00\n        /* \"#utility.yul\":2999:3005   */\n      dup2\n        /* \"#utility.yul\":2986:3006   */\n      calldataload\n        /* \"#utility.yul\":2977:3006   */\n      swap1\n      pop\n        /* \"#utility.yul\":3015:3048   */\n      tag_352\n        /* \"#utility.yul\":3042:3047   */\n      dup2\n        /* \"#utility.yul\":3015:3048   */\n      tag_257\n      jump\t// in\n    tag_352:\n        /* \"#utility.yul\":2915:3054   */\n      swap3\n      swap2\n      pop\n      pop\n      jump\t// out\n        /* \"#utility.yul\":3060:3150   */\n    tag_259:\n        /* \"#utility.yul\":3094:3101   */\n      0x00\n        /* \"#utility.yul\":3137:3142   */\n      dup2\n        /* \"#utility.yul\":3130:3143   */\n      iszero\n        /* \"#utility.yul\":3123:3144   */\n      iszero\n        /* \"#utility.yul\":3112:3144   */\n      swap1\n      pop\n        /* \"#utility.yul\":3060:3150   */\n      swap2\n      swap1\n      pop\n      jump\t// out\n        /* \"#utility.yul\":3156:3272   */\n    tag_260:\n        /* \"#utility.yul\":3226:3247   */\n      tag_355\n        /* \"#utility.yul\":3241:3246   */\n      dup2\n        /* \"#utility.yul\":3226:3247   */\n      tag_259\n      jump\t// in\n    tag_355:\n        /* \"#utility.yul\":3219:3224   */\n      dup2\n        /* \"#utility.yul\":3216:3248   */\n      eq\n        /* \"#utility.yul\":3206:3266   */\n      tag_356\n      jumpi\n        /* \"#utility.yul\":3262:3263   */\n      0x00\n        /* \"#utility.yul\":3259:3260   */\n      dup1\n        /* \"#utility.yul\":3252:3264   */\n      revert\n        /* \"#utility.yul\":3206:3266   */\n    tag_356:\n        /* \"#utility.yul\":3156:3272   */\n      pop\n      jump\t// out\n        /* \"#utility.yul\":3278:3411   */\n    tag_261:\n        /* \"#utility.yul\":3321:3326   */\n      0x00\n        /* \"#utility.yul\":3359:3365   */\n      dup2\n        /* \"#utility.yul\":3346:3366   */\n      calldataload\n        /* \"#utility.yul\":3337:3366   */\n      swap1\n      pop\n        /* \"#utility.yul\":3375:3405   */\n      tag_358\n        /* \"#utility.yul\":3399:3404   */\n      dup2\n        /* \"#utility.yul\":3375:3405   */\n      tag_260\n      jump\t// in\n    tag_358:\n        /* \"#utility.yul\":3278:3411   */\n      swap3\n      swap2\n      pop\n      pop\n      jump\t// out\n        /* \"#utility.yul\":3417:4862   */\n    tag_11:\n        /* \"#utility.yul\":3539:3545   */\n      0x00\n        /* \"#utility.yul\":3547:3553   */\n      dup1\n        /* \"#utility.yul\":3555:3561   */\n      0x00\n        /* \"#utility.yul\":3563:3569   */\n      dup1\n        /* \"#utility.yul\":3571:3577   */\n      0x00\n        /* \"#utility.yul\":3620:3623   */\n      0xa0\n        /* \"#utility.yul\":3608:3617   */\n      dup7\n        /* \"#utility.yul\":3599:3606   */\n      dup9\n        /* \"#utility.yul\":3595:3618   */\n      sub\n        /* \"#utility.yul\":3591:3624   */\n      slt\n        /* \"#utility.yul\":3588:3708   */\n      iszero\n      tag_360\n      jumpi\n        /* \"#utility.yul\":3627:3706   */\n      tag_361\n      tag_243\n      jump\t// in\n    tag_361:\n        /* \"#utility.yul\":3588:3708   */\n    tag_360:\n        /* \"#utility.yul\":3775:3776   */\n      0x00\n        /* \"#utility.yul\":3764:3773   */\n      dup7\n        /* \"#utility.yul\":3760:3777   */\n      add\n        /* \"#utility.yul\":3747:3778   */\n      calldataload\n        /* \"#utility.yul\":3805:3823   */\n      0xffffffffffffffff\n        /* \"#utility.yul\":3797:3803   */\n      dup2\n        /* \"#utility.yul\":3794:3824   */\n      gt\n        /* \"#utility.yul\":3791:3908   */\n      iszero\n      tag_362\n      jumpi\n        /* \"#utility.yul\":3827:3906   */\n      tag_363\n      tag_244\n      jump\t// in\n    tag_363:\n        /* \"#utility.yul\":3791:3908   */\n    tag_362:\n        /* \"#utility.yul\":3932:3995   */\n      tag_364\n        /* \"#utility.yul\":3987:3994   */\n      dup9\n        /* \"#utility.yul\":3978:3984   */\n      dup3\n        /* \"#utility.yul\":3967:3976   */\n      dup10\n        /* \"#utility.yul\":3963:3985   */\n      add\n        /* \"#utility.yul\":3932:3995   */\n      tag_254\n      jump\t// in\n    tag_364:\n        /* \"#utility.yul\":3922:3995   */\n      swap6\n      pop\n        /* \"#utility.yul\":3718:4005   */\n      pop\n        /* \"#utility.yul\":4072:4074   */\n      0x20\n        /* \"#utility.yul\":4061:4070   */\n      dup7\n        /* \"#utility.yul\":4057:4075   */\n      add\n        /* \"#utility.yul\":4044:4076   */\n      calldataload\n        /* \"#utility.yul\":4103:4121   */\n      0xffffffffffffffff\n        /* \"#utility.yul\":4095:4101   */\n      dup2\n        /* \"#utility.yul\":4092:4122   */\n      gt\n        /* \"#utility.yul\":4089:4206   */\n      iszero\n      tag_365\n      jumpi\n        /* \"#utility.yul\":4125:4204   */\n      tag_366\n      tag_244\n      jump\t// in\n    tag_366:\n        /* \"#utility.yul\":4089:4206   */\n    tag_365:\n        /* \"#utility.yul\":4230:4293   */\n      tag_367\n        /* \"#utility.yul\":4285:4292   */\n      dup9\n        /* \"#utility.yul\":4276:4282   */\n      dup3\n        /* \"#utility.yul\":4265:4274   */\n      dup10\n        /* \"#utility.yul\":4261:4283   */\n      add\n        /* \"#utility.yul\":4230:4293   */\n      tag_254\n      jump\t// in\n    tag_367:\n        /* \"#utility.yul\":4220:4293   */\n      swap5\n      pop\n        /* \"#utility.yul\":4015:4303   */\n      pop\n        /* \"#utility.yul\":4370:4372   */\n      0x40\n        /* \"#utility.yul\":4359:4368   */\n      dup7\n        /* \"#utility.yul\":4355:4373   */\n      add\n        /* \"#utility.yul\":4342:4374   */\n      calldataload\n        /* \"#utility.yul\":4401:4419   */\n      0xffffffffffffffff\n        /* \"#utility.yul\":4393:4399   */\n      dup2\n        /* \"#utility.yul\":4390:4420   */\n      gt\n        /* \"#utility.yul\":4387:4504   */\n      iszero\n      tag_368\n      jumpi\n        /* \"#utility.yul\":4423:4502   */\n      tag_369\n      tag_244\n      jump\t// in\n    tag_369:\n        /* \"#utility.yul\":4387:4504   */\n    tag_368:\n        /* \"#utility.yul\":4528:4591   */\n      tag_370\n        /* \"#utility.yul\":4583:4590   */\n      dup9\n        /* \"#utility.yul\":4574:4580   */\n      dup3\n        /* \"#utility.yul\":4563:4572   */\n      dup10\n        /* \"#utility.yul\":4559:4581   */\n      add\n        /* \"#utility.yul\":4528:4591   */\n      tag_254\n      jump\t// in\n    tag_370:\n        /* \"#utility.yul\":4518:4591   */\n      swap4\n      pop\n        /* \"#utility.yul\":4313:4601   */\n      pop\n        /* \"#utility.yul\":4640:4642   */\n      0x60\n        /* \"#utility.yul\":4666:4719   */\n      tag_371\n        /* \"#utility.yul\":4711:4718   */\n      dup9\n        /* \"#utility.yul\":4702:4708   */\n      dup3\n        /* \"#utility.yul\":4691:4700   */\n      dup10\n        /* \"#utility.yul\":4687:4709   */\n      add\n        /* \"#utility.yul\":4666:4719   */\n      tag_258\n      jump\t// in\n    tag_371:\n        /* \"#utility.yul\":4656:4719   */\n      swap3\n      pop\n        /* \"#utility.yul\":4611:4729   */\n      pop\n        /* \"#utility.yul\":4768:4771   */\n      0x80\n        /* \"#utility.yul\":4795:4845   */\n      tag_372\n        /* \"#utility.yul\":4837:4844   */\n      dup9\n        /* \"#utility.yul\":4828:4834   */\n      dup3\n        /* \"#utility.yul\":4817:4826   */\n      dup10\n        /* \"#utility.yul\":4813:4835   */\n      add\n        /* \"#utility.yul\":4795:4845   */\n      tag_261\n      jump\t// in\n    tag_372:\n        /* \"#utility.yul\":4785:4845   */\n      swap2\n      pop\n        /* \"#utility.yul\":4739:4855   */\n      pop\n        /* \"#utility.yul\":3417:4862   */\n      swap3\n      swap6\n      pop\n      swap3\n      swap6\n      swap1\n      swap4\n      pop\n      jump\t// out\n        /* \"#utility.yul\":4868:5197   */\n    tag_16:\n        /* \"#utility.yul\":4927:4933   */\n      0x00\n        /* \"#utility.yul\":4976:4978   */\n      0x20\n        /* \"#utility.yul\":4964:4973   */\n      dup3\n        /* \"#utility.yul\":4955:4962   */\n      dup5\n        /* \"#utility.yul\":4951:4974   */\n      sub\n        /* \"#utility.yul\":4947:4979   */\n      slt\n        /* \"#utility.yul\":4944:5063   */\n      iszero\n      tag_374\n      jumpi\n        /* \"#utility.yul\":4982:5061   */\n      tag_375\n      tag_243\n      jump\t// in\n    tag_375:\n        /* \"#utility.yul\":4944:5063   */\n    tag_374:\n        /* \"#utility.yul\":5102:5103   */\n      0x00\n        /* \"#utility.yul\":5127:5180   */\n      tag_376\n        /* \"#utility.yul\":5172:5179   */\n      dup5\n        /* \"#utility.yul\":5163:5169   */\n      dup3\n        /* \"#utility.yul\":5152:5161   */\n      dup6\n        /* \"#utility.yul\":5148:5170   */\n      add\n        /* \"#utility.yul\":5127:5180   */\n      tag_258\n      jump\t// in\n    tag_376:\n        /* \"#utility.yul\":5117:5180   */\n      swap2\n      pop\n        /* \"#utility.yul\":5073:5190   */\n      pop\n        /* \"#utility.yul\":4868:5197   */\n      swap3\n      swap2\n      pop\n      pop\n      jump\t// out\n        /* \"#utility.yul\":5203:5312   */\n    tag_262:\n        /* \"#utility.yul\":5284:5305   */\n      tag_378\n        /* \"#utility.yul\":5299:5304   */\n      dup2\n        /* \"#utility.yul\":5284:5305   */\n      tag_259\n      jump\t// in\n    tag_378:\n        /* \"#utility.yul\":5279:5282   */\n      dup3\n        /* \"#utility.yul\":5272:5306   */\n      mstore\n        /* \"#utility.yul\":5203:5312   */\n      pop\n      pop\n      jump\t// out\n        /* \"#utility.yul\":5318:5528   */\n    tag_19:\n        /* \"#utility.yul\":5405:5409   */\n      0x00\n        /* \"#utility.yul\":5443:5445   */\n      0x20\n        /* \"#utility.yul\":5432:5441   */\n      dup3\n        /* \"#utility.yul\":5428:5446   */\n      add\n        /* \"#utility.yul\":5420:5446   */\n      swap1\n      pop\n        /* \"#utility.yul\":5456:5521   */\n      tag_380\n        /* \"#utility.yul\":5518:5519   */\n      0x00\n        /* \"#utility.yul\":5507:5516   */\n      dup4\n        /* \"#utility.yul\":5503:5520   */\n      add\n        /* \"#utility.yul\":5494:5500   */\n      dup5\n        /* \"#utility.yul\":5456:5521   */\n      tag_262\n      jump\t// in\n    tag_380:\n        /* \"#utility.yul\":5318:5528   */\n      swap3\n      swap2\n      pop\n      pop\n      jump\t// out\n        /* \"#utility.yul\":5534:6002   */\n    tag_25:\n        /* \"#utility.yul\":5599:5605   */\n      0x00\n        /* \"#utility.yul\":5607:5613   */\n      dup1\n        /* \"#utility.yul\":5656:5658   */\n      0x40\n        /* \"#utility.yul\":5644:5653   */\n      dup4\n        /* \"#utility.yul\":5635:5642   */\n      dup6\n        /* \"#utility.yul\":5631:5654   */\n      sub\n        /* \"#utility.yul\":5627:5659   */\n      slt\n        /* \"#utility.yul\":5624:5743   */\n      iszero\n      tag_382\n      jumpi\n        /* \"#utility.yul\":5662:5741   */\n      tag_383\n      tag_243\n      jump\t// in\n    tag_383:\n        /* \"#utility.yul\":5624:5743   */\n    tag_382:\n        /* \"#utility.yul\":5782:5783   */\n      0x00\n        /* \"#utility.yul\":5807:5860   */\n      tag_384\n        /* \"#utility.yul\":5852:5859   */\n      dup6\n        /* \"#utility.yul\":5843:5849   */\n      dup3\n        /* \"#utility.yul\":5832:5841   */\n      dup7\n        /* \"#utility.yul\":5828:5850   */\n      add\n        /* \"#utility.yul\":5807:5860   */\n      tag_258\n      jump\t// in\n    tag_384:\n        /* \"#utility.yul\":5797:5860   */\n      swap3\n      pop\n        /* \"#utility.yul\":5753:5870   */\n      pop\n        /* \"#utility.yul\":5909:5911   */\n      0x20\n        /* \"#utility.yul\":5935:5985   */\n      tag_385\n        /* \"#utility.yul\":5977:5984   */\n      dup6\n        /* \"#utility.yul\":5968:5974   */\n      dup3\n        /* \"#utility.yul\":5957:5966   */\n      dup7\n        /* \"#utility.yul\":5953:5975   */\n      add\n        /* \"#utility.yul\":5935:5985   */\n      tag_261\n      jump\t// in\n    tag_385:\n        /* \"#utility.yul\":5925:5985   */\n      swap2\n      pop\n        /* \"#utility.yul\":5880:5995   */\n      pop\n        /* \"#utility.yul\":5534:6002   */\n      swap3\n      pop\n      swap3\n      swap1\n      pop\n      jump\t// out\n        /* \"#utility.yul\":6008:6107   */\n    tag_263:\n        /* \"#utility.yul\":6060:6066   */\n      0x00\n        /* \"#utility.yul\":6094:6099   */\n      dup2\n        /* \"#utility.yul\":6088:6100   */\n      mload\n        /* \"#utility.yul\":6078:6100   */\n      swap1\n      pop\n        /* \"#utility.yul\":6008:6107   */\n      swap2\n      swap1\n      pop\n      jump\t// out\n        /* \"#utility.yul\":6113:6272   */\n    tag_264:\n        /* \"#utility.yul\":6187:6198   */\n      0x00\n        /* \"#utility.yul\":6221:6227   */\n      dup3\n        /* \"#utility.yul\":6216:6219   */\n      dup3\n        /* \"#utility.yul\":6209:6228   */\n      mstore\n        /* \"#utility.yul\":6261:6265   */\n      0x20\n        /* \"#utility.yul\":6256:6259   */\n      dup3\n        /* \"#utility.yul\":6252:6266   */\n      add\n        /* \"#utility.yul\":6237:6266   */\n      swap1\n      pop\n        /* \"#utility.yul\":6113:6272   */\n      swap3\n      swap2\n      pop\n      pop\n      jump\t// out\n        /* \"#utility.yul\":6278:6524   */\n    tag_265:\n        /* \"#utility.yul\":6359:6360   */\n      0x00\n        /* \"#utility.yul\":6369:6482   */\n    tag_389:\n        /* \"#utility.yul\":6383:6389   */\n      dup4\n        /* \"#utility.yul\":6380:6381   */\n      dup2\n        /* \"#utility.yul\":6377:6390   */\n      lt\n        /* \"#utility.yul\":6369:6482   */\n      iszero\n      tag_391\n      jumpi\n        /* \"#utility.yul\":6468:6469   */\n      dup1\n        /* \"#utility.yul\":6463:6466   */\n      dup3\n        /* \"#utility.yul\":6459:6470   */\n      add\n        /* \"#utility.yul\":6453:6471   */\n      mload\n        /* \"#utility.yul\":6449:6450   */\n      dup2\n        /* \"#utility.yul\":6444:6447   */\n      dup5\n        /* \"#utility.yul\":6440:6451   */\n      add\n        /* \"#utility.yul\":6433:6472   */\n      mstore\n        /* \"#utility.yul\":6405:6407   */\n      0x20\n        /* \"#utility.yul\":6402:6403   */\n      dup2\n        /* \"#utility.yul\":6398:6408   */\n      add\n        /* \"#utility.yul\":6393:6408   */\n      swap1\n      pop\n        /* \"#utility.yul\":6369:6482   */\n      jump(tag_389)\n    tag_391:\n        /* \"#utility.yul\":6516:6517   */\n      0x00\n        /* \"#utility.yul\":6507:6513   */\n      dup5\n        /* \"#utility.yul\":6502:6505   */\n      dup5\n        /* \"#utility.yul\":6498:6514   */\n      add\n        /* \"#utility.yul\":6491:6518   */\n      mstore\n        /* \"#utility.yul\":6340:6524   */\n      pop\n        /* \"#utility.yul\":6278:6524   */\n      pop\n      pop\n      pop\n      jump\t// out\n        /* \"#utility.yul\":6530:6887   */\n    tag_266:\n        /* \"#utility.yul\":6608:6611   */\n      0x00\n        /* \"#utility.yul\":6636:6675   */\n      tag_393\n        /* \"#utility.yul\":6669:6674   */\n      dup3\n        /* \"#utility.yul\":6636:6675   */\n      tag_263\n      jump\t// in\n    tag_393:\n        /* \"#utility.yul\":6691:6752   */\n      tag_394\n        /* \"#utility.yul\":6745:6751   */\n      dup2\n        /* \"#utility.yul\":6740:6743   */\n      dup6\n        /* \"#utility.yul\":6691:6752   */\n      tag_264\n      jump\t// in\n    tag_394:\n        /* \"#utility.yul\":6684:6752   */\n      swap4\n      pop\n        /* \"#utility.yul\":6761:6826   */\n      tag_395\n        /* \"#utility.yul\":6819:6825   */\n      dup2\n        /* \"#utility.yul\":6814:6817   */\n      dup6\n        /* \"#utility.yul\":6807:6811   */\n      0x20\n        /* \"#utility.yul\":6800:6805   */\n      dup7\n        /* \"#utility.yul\":6796:6812   */\n      add\n        /* \"#utility.yul\":6761:6826   */\n      tag_265\n      jump\t// in\n    tag_395:\n        /* \"#utility.yul\":6851:6880   */\n      tag_396\n        /* \"#utility.yul\":6873:6879   */\n      dup2\n        /* \"#utility.yul\":6851:6880   */\n      tag_247\n      jump\t// in\n    tag_396:\n        /* \"#utility.yul\":6846:6849   */\n      dup5\n        /* \"#utility.yul\":6842:6881   */\n      add\n        /* \"#utility.yul\":6835:6881   */\n      swap2\n      pop\n        /* \"#utility.yul\":6612:6887   */\n      pop\n        /* \"#utility.yul\":6530:6887   */\n      swap3\n      swap2\n      pop\n      pop\n      jump\t// out\n        /* \"#utility.yul\":6893:7001   */\n    tag_267:\n        /* \"#utility.yul\":6970:6994   */\n      tag_398\n        /* \"#utility.yul\":6988:6993   */\n      dup2\n        /* \"#utility.yul\":6970:6994   */\n      tag_256\n      jump\t// in\n    tag_398:\n        /* \"#utility.yul\":6965:6968   */\n      dup3\n        /* \"#utility.yul\":6958:6995   */\n      mstore\n        /* \"#utility.yul\":6893:7001   */\n      pop\n      pop\n      jump\t// out\n        /* \"#utility.yul\":7007:7084   */\n    tag_268:\n        /* \"#utility.yul\":7044:7051   */\n      0x00\n        /* \"#utility.yul\":7073:7078   */\n      dup2\n        /* \"#utility.yul\":7062:7078   */\n      swap1\n      pop\n        /* \"#utility.yul\":7007:7084   */\n      swap2\n      swap1\n      pop\n      jump\t// out\n        /* \"#utility.yul\":7090:7198   */\n    tag_269:\n        /* \"#utility.yul\":7167:7191   */\n      tag_401\n        /* \"#utility.yul\":7185:7190   */\n      dup2\n        /* \"#utility.yul\":7167:7191   */\n      tag_268\n      jump\t// in\n    tag_401:\n        /* \"#utility.yul\":7162:7165   */\n      dup3\n        /* \"#utility.yul\":7155:7192   */\n      mstore\n        /* \"#utility.yul\":7090:7198   */\n      pop\n      pop\n      jump\t// out\n        /* \"#utility.yul\":7280:8564   */\n    tag_270:\n        /* \"#utility.yul\":7405:7408   */\n      0x00\n        /* \"#utility.yul\":7441:7445   */\n      0xa0\n        /* \"#utility.yul\":7436:7439   */\n      dup4\n        /* \"#utility.yul\":7432:7446   */\n      add\n        /* \"#utility.yul\":7528:7532   */\n      0x00\n        /* \"#utility.yul\":7521:7526   */\n      dup4\n        /* \"#utility.yul\":7517:7533   */\n      add\n        /* \"#utility.yul\":7511:7534   */\n      mload\n        /* \"#utility.yul\":7581:7584   */\n      dup5\n        /* \"#utility.yul\":7575:7579   */\n      dup3\n        /* \"#utility.yul\":7571:7585   */\n      sub\n        /* \"#utility.yul\":7564:7568   */\n      0x00\n        /* \"#utility.yul\":7559:7562   */\n      dup7\n        /* \"#utility.yul\":7555:7569   */\n      add\n        /* \"#utility.yul\":7548:7586   */\n      mstore\n        /* \"#utility.yul\":7607:7680   */\n      tag_403\n        /* \"#utility.yul\":7675:7679   */\n      dup3\n        /* \"#utility.yul\":7661:7673   */\n      dup3\n        /* \"#utility.yul\":7607:7680   */\n      tag_266\n      jump\t// in\n    tag_403:\n        /* \"#utility.yul\":7599:7680   */\n      swap2\n      pop\n        /* \"#utility.yul\":7456:7691   */\n      pop\n        /* \"#utility.yul\":7773:7777   */\n      0x20\n        /* \"#utility.yul\":7766:7771   */\n      dup4\n        /* \"#utility.yul\":7762:7778   */\n      add\n        /* \"#utility.yul\":7756:7779   */\n      mload\n        /* \"#utility.yul\":7826:7829   */\n      dup5\n        /* \"#utility.yul\":7820:7824   */\n      dup3\n        /* \"#utility.yul\":7816:7830   */\n      sub\n        /* \"#utility.yul\":7809:7813   */\n      0x20\n        /* \"#utility.yul\":7804:7807   */\n      dup7\n        /* \"#utility.yul\":7800:7814   */\n      add\n        /* \"#utility.yul\":7793:7831   */\n      mstore\n        /* \"#utility.yul\":7852:7925   */\n      tag_404\n        /* \"#utility.yul\":7920:7924   */\n      dup3\n        /* \"#utility.yul\":7906:7918   */\n      dup3\n        /* \"#utility.yul\":7852:7925   */\n      tag_266\n      jump\t// in\n    tag_404:\n        /* \"#utility.yul\":7844:7925   */\n      swap2\n      pop\n        /* \"#utility.yul\":7701:7936   */\n      pop\n        /* \"#utility.yul\":8018:8022   */\n      0x40\n        /* \"#utility.yul\":8011:8016   */\n      dup4\n        /* \"#utility.yul\":8007:8023   */\n      add\n        /* \"#utility.yul\":8001:8024   */\n      mload\n        /* \"#utility.yul\":8071:8074   */\n      dup5\n        /* \"#utility.yul\":8065:8069   */\n      dup3\n        /* \"#utility.yul\":8061:8075   */\n      sub\n        /* \"#utility.yul\":8054:8058   */\n      0x40\n        /* \"#utility.yul\":8049:8052   */\n      dup7\n        /* \"#utility.yul\":8045:8059   */\n      add\n        /* \"#utility.yul\":8038:8076   */\n      mstore\n        /* \"#utility.yul\":8097:8170   */\n      tag_405\n        /* \"#utility.yul\":8165:8169   */\n      dup3\n        /* \"#utility.yul\":8151:8163   */\n      dup3\n        /* \"#utility.yul\":8097:8170   */\n      tag_266\n      jump\t// in\n    tag_405:\n        /* \"#utility.yul\":8089:8170   */\n      swap2\n      pop\n        /* \"#utility.yul\":7946:8181   */\n      pop\n        /* \"#utility.yul\":8270:8274   */\n      0x60\n        /* \"#utility.yul\":8263:8268   */\n      dup4\n        /* \"#utility.yul\":8259:8275   */\n      add\n        /* \"#utility.yul\":8253:8276   */\n      mload\n        /* \"#utility.yul\":8289:8352   */\n      tag_406\n        /* \"#utility.yul\":8346:8350   */\n      0x60\n        /* \"#utility.yul\":8341:8344   */\n      dup7\n        /* \"#utility.yul\":8337:8351   */\n      add\n        /* \"#utility.yul\":8323:8335   */\n      dup3\n        /* \"#utility.yul\":8289:8352   */\n      tag_267\n      jump\t// in\n    tag_406:\n        /* \"#utility.yul\":8191:8362   */\n      pop\n        /* \"#utility.yul\":8445:8449   */\n      0x80\n        /* \"#utility.yul\":8438:8443   */\n      dup4\n        /* \"#utility.yul\":8434:8450   */\n      add\n        /* \"#utility.yul\":8428:8451   */\n      mload\n        /* \"#utility.yul\":8464:8527   */\n      tag_407\n        /* \"#utility.yul\":8521:8525   */\n      0x80\n        /* \"#utility.yul\":8516:8519   */\n      dup7\n        /* \"#utility.yul\":8512:8526   */\n      add\n        /* \"#utility.yul\":8498:8510   */\n      dup3\n        /* \"#utility.yul\":8464:8527   */\n      tag_269\n      jump\t// in\n    tag_407:\n        /* \"#utility.yul\":8372:8537   */\n      pop\n        /* \"#utility.yul\":8554:8558   */\n      dup1\n        /* \"#utility.yul\":8547:8558   */\n      swap2\n      pop\n        /* \"#utility.yul\":7410:8564   */\n      pop\n        /* \"#utility.yul\":7280:8564   */\n      swap3\n      swap2\n      pop\n      pop\n      jump\t// out\n        /* \"#utility.yul\":8570:8955   */\n    tag_28:\n        /* \"#utility.yul\":8719:8723   */\n      0x00\n        /* \"#utility.yul\":8757:8759   */\n      0x20\n        /* \"#utility.yul\":8746:8755   */\n      dup3\n        /* \"#utility.yul\":8742:8760   */\n      add\n        /* \"#utility.yul\":8734:8760   */\n      swap1\n      pop\n        /* \"#utility.yul\":8806:8815   */\n      dup2\n        /* \"#utility.yul\":8800:8804   */\n      dup2\n        /* \"#utility.yul\":8796:8816   */\n      sub\n        /* \"#utility.yul\":8792:8793   */\n      0x00\n        /* \"#utility.yul\":8781:8790   */\n      dup4\n        /* \"#utility.yul\":8777:8794   */\n      add\n        /* \"#utility.yul\":8770:8817   */\n      mstore\n        /* \"#utility.yul\":8834:8948   */\n      tag_409\n        /* \"#utility.yul\":8943:8947   */\n      dup2\n        /* \"#utility.yul\":8934:8940   */\n      dup5\n        /* \"#utility.yul\":8834:8948   */\n      tag_270\n      jump\t// in\n    tag_409:\n        /* \"#utility.yul\":8826:8948   */\n      swap1\n      pop\n        /* \"#utility.yul\":8570:8955   */\n      swap3\n      swap2\n      pop\n      pop\n      jump\t// out\n        /* \"#utility.yul\":8961:9435   */\n    tag_32:\n        /* \"#utility.yul\":9029:9035   */\n      0x00\n        /* \"#utility.yul\":9037:9043   */\n      dup1\n        /* \"#utility.yul\":9086:9088   */\n      0x40\n        /* \"#utility.yul\":9074:9083   */\n      dup4\n        /* \"#utility.yul\":9065:9072   */\n      dup6\n        /* \"#utility.yul\":9061:9084   */\n      sub\n        /* \"#utility.yul\":9057:9089   */\n      slt\n        /* \"#utility.yul\":9054:9173   */\n      iszero\n      tag_411\n      jumpi\n        /* \"#utility.yul\":9092:9171   */\n      tag_412\n      tag_243\n      jump\t// in\n    tag_412:\n        /* \"#utility.yul\":9054:9173   */\n    tag_411:\n        /* \"#utility.yul\":9212:9213   */\n      0x00\n        /* \"#utility.yul\":9237:9290   */\n      tag_413\n        /* \"#utility.yul\":9282:9289   */\n      dup6\n        /* \"#utility.yul\":9273:9279   */\n      dup3\n        /* \"#utility.yul\":9262:9271   */\n      dup7\n        /* \"#utility.yul\":9258:9280   */\n      add\n        /* \"#utility.yul\":9237:9290   */\n      tag_258\n      jump\t// in\n    tag_413:\n        /* \"#utility.yul\":9227:9290   */\n      swap3\n      pop\n        /* \"#utility.yul\":9183:9300   */\n      pop\n        /* \"#utility.yul\":9339:9341   */\n      0x20\n        /* \"#utility.yul\":9365:9418   */\n      tag_414\n        /* \"#utility.yul\":9410:9417   */\n      dup6\n        /* \"#utility.yul\":9401:9407   */\n      dup3\n        /* \"#utility.yul\":9390:9399   */\n      dup7\n        /* \"#utility.yul\":9386:9408   */\n      add\n        /* \"#utility.yul\":9365:9418   */\n      tag_258\n      jump\t// in\n    tag_414:\n        /* \"#utility.yul\":9355:9418   */\n      swap2\n      pop\n        /* \"#utility.yul\":9310:9428   */\n      pop\n        /* \"#utility.yul\":8961:9435   */\n      swap3\n      pop\n      swap3\n      swap1\n      pop\n      jump\t// out\n        /* \"#utility.yul\":9441:9764   */\n    tag_37:\n        /* \"#utility.yul\":9497:9503   */\n      0x00\n        /* \"#utility.yul\":9546:9548   */\n      0x20\n        /* \"#utility.yul\":9534:9543   */\n      dup3\n        /* \"#utility.yul\":9525:9532   */\n      dup5\n        /* \"#utility.yul\":9521:9544   */\n      sub\n        /* \"#utility.yul\":9517:9549   */\n      slt\n        /* \"#utility.yul\":9514:9633   */\n      iszero\n      tag_416\n      jumpi\n        /* \"#utility.yul\":9552:9631   */\n      tag_417\n      tag_243\n      jump\t// in\n    tag_417:\n        /* \"#utility.yul\":9514:9633   */\n    tag_416:\n        /* \"#utility.yul\":9672:9673   */\n      0x00\n        /* \"#utility.yul\":9697:9747   */\n      tag_418\n        /* \"#utility.yul\":9739:9746   */\n      dup5\n        /* \"#utility.yul\":9730:9736   */\n      dup3\n        /* \"#utility.yul\":9719:9728   */\n      dup6\n        /* \"#utility.yul\":9715:9737   */\n      add\n        /* \"#utility.yul\":9697:9747   */\n      tag_261\n      jump\t// in\n    tag_418:\n        /* \"#utility.yul\":9687:9747   */\n      swap2\n      pop\n        /* \"#utility.yul\":9643:9757   */\n      pop\n        /* \"#utility.yul\":9441:9764   */\n      swap3\n      swap2\n      pop\n      pop\n      jump\t// out\n        /* \"#utility.yul\":9770:9912   */\n    tag_271:\n        /* \"#utility.yul\":9865:9871   */\n      0x00\n        /* \"#utility.yul\":9899:9904   */\n      dup2\n        /* \"#utility.yul\":9893:9905   */\n      mload\n        /* \"#utility.yul\":9883:9905   */\n      swap1\n      pop\n        /* \"#utility.yul\":9770:9912   */\n      swap2\n      swap1\n      pop\n      jump\t// out\n        /* \"#utility.yul\":9918:10130   */\n    tag_272:\n        /* \"#utility.yul\":10045:10056   */\n      0x00\n        /* \"#utility.yul\":10079:10085   */\n      dup3\n        /* \"#utility.yul\":10074:10077   */\n      dup3\n        /* \"#utility.yul\":10067:10086   */\n      mstore\n        /* \"#utility.yul\":10119:10123   */\n      0x20\n        /* \"#utility.yul\":10114:10117   */\n      dup3\n        /* \"#utility.yul\":10110:10124   */\n      add\n        /* \"#utility.yul\":10095:10124   */\n      swap1\n      pop\n        /* \"#utility.yul\":9918:10130   */\n      swap3\n      swap2\n      pop\n      pop\n      jump\t// out\n        /* \"#utility.yul\":10136:10296   */\n    tag_273:\n        /* \"#utility.yul\":10231:10235   */\n      0x00\n        /* \"#utility.yul\":10254:10257   */\n      dup2\n        /* \"#utility.yul\":10246:10257   */\n      swap1\n      pop\n        /* \"#utility.yul\":10284:10288   */\n      0x20\n        /* \"#utility.yul\":10279:10282   */\n      dup3\n        /* \"#utility.yul\":10275:10289   */\n      add\n        /* \"#utility.yul\":10267:10289   */\n      swap1\n      pop\n        /* \"#utility.yul\":10136:10296   */\n      swap2\n      swap1\n      pop\n      jump\t// out\n        /* \"#utility.yul\":10378:11652   */\n    tag_274:\n        /* \"#utility.yul\":10493:10496   */\n      0x00\n        /* \"#utility.yul\":10529:10533   */\n      0xa0\n        /* \"#utility.yul\":10524:10527   */\n      dup4\n        /* \"#utility.yul\":10520:10534   */\n      add\n        /* \"#utility.yul\":10616:10620   */\n      0x00\n        /* \"#utility.yul\":10609:10614   */\n      dup4\n        /* \"#utility.yul\":10605:10621   */\n      add\n        /* \"#utility.yul\":10599:10622   */\n      mload\n        /* \"#utility.yul\":10669:10672   */\n      dup5\n        /* \"#utility.yul\":10663:10667   */\n      dup3\n        /* \"#utility.yul\":10659:10673   */\n      sub\n        /* \"#utility.yul\":10652:10656   */\n      0x00\n        /* \"#utility.yul\":10647:10650   */\n      dup7\n        /* \"#utility.yul\":10643:10657   */\n      add\n        /* \"#utility.yul\":10636:10674   */\n      mstore\n        /* \"#utility.yul\":10695:10768   */\n      tag_423\n        /* \"#utility.yul\":10763:10767   */\n      dup3\n        /* \"#utility.yul\":10749:10761   */\n      dup3\n        /* \"#utility.yul\":10695:10768   */\n      tag_266\n      jump\t// in\n    tag_423:\n        /* \"#utility.yul\":10687:10768   */\n      swap2\n      pop\n        /* \"#utility.yul\":10544:10779   */\n      pop\n        /* \"#utility.yul\":10861:10865   */\n      0x20\n        /* \"#utility.yul\":10854:10859   */\n      dup4\n        /* \"#utility.yul\":10850:10866   */\n      add\n        /* \"#utility.yul\":10844:10867   */\n      mload\n        /* \"#utility.yul\":10914:10917   */\n      dup5\n        /* \"#utility.yul\":10908:10912   */\n      dup3\n        /* \"#utility.yul\":10904:10918   */\n      sub\n        /* \"#utility.yul\":10897:10901   */\n      0x20\n        /* \"#utility.yul\":10892:10895   */\n      dup7\n        /* \"#utility.yul\":10888:10902   */\n      add\n        /* \"#utility.yul\":10881:10919   */\n      mstore\n        /* \"#utility.yul\":10940:11013   */\n      tag_424\n        /* \"#utility.yul\":11008:11012   */\n      dup3\n        /* \"#utility.yul\":10994:11006   */\n      dup3\n        /* \"#utility.yul\":10940:11013   */\n      tag_266\n      jump\t// in\n    tag_424:\n        /* \"#utility.yul\":10932:11013   */\n      swap2\n      pop\n        /* \"#utility.yul\":10789:11024   */\n      pop\n        /* \"#utility.yul\":11106:11110   */\n      0x40\n        /* \"#utility.yul\":11099:11104   */\n      dup4\n        /* \"#utility.yul\":11095:11111   */\n      add\n        /* \"#utility.yul\":11089:11112   */\n      mload\n        /* \"#utility.yul\":11159:11162   */\n      dup5\n        /* \"#utility.yul\":11153:11157   */\n      dup3\n        /* \"#utility.yul\":11149:11163   */\n      sub\n        /* \"#utility.yul\":11142:11146   */\n      0x40\n        /* \"#utility.yul\":11137:11140   */\n      dup7\n        /* \"#utility.yul\":11133:11147   */\n      add\n        /* \"#utility.yul\":11126:11164   */\n      mstore\n        /* \"#utility.yul\":11185:11258   */\n      tag_425\n        /* \"#utility.yul\":11253:11257   */\n      dup3\n        /* \"#utility.yul\":11239:11251   */\n      dup3\n        /* \"#utility.yul\":11185:11258   */\n      tag_266\n      jump\t// in\n    tag_425:\n        /* \"#utility.yul\":11177:11258   */\n      swap2\n      pop\n        /* \"#utility.yul\":11034:11269   */\n      pop\n        /* \"#utility.yul\":11358:11362   */\n      0x60\n        /* \"#utility.yul\":11351:11356   */\n      dup4\n        /* \"#utility.yul\":11347:11363   */\n      add\n        /* \"#utility.yul\":11341:11364   */\n      mload\n        /* \"#utility.yul\":11377:11440   */\n      tag_426\n        /* \"#utility.yul\":11434:11438   */\n      0x60\n        /* \"#utility.yul\":11429:11432   */\n      dup7\n        /* \"#utility.yul\":11425:11439   */\n      add\n        /* \"#utility.yul\":11411:11423   */\n      dup3\n        /* \"#utility.yul\":11377:11440   */\n      tag_267\n      jump\t// in\n    tag_426:\n        /* \"#utility.yul\":11279:11450   */\n      pop\n        /* \"#utility.yul\":11533:11537   */\n      0x80\n        /* \"#utility.yul\":11526:11531   */\n      dup4\n        /* \"#utility.yul\":11522:11538   */\n      add\n        /* \"#utility.yul\":11516:11539   */\n      mload\n        /* \"#utility.yul\":11552:11615   */\n      tag_427\n        /* \"#utility.yul\":11609:11613   */\n      0x80\n        /* \"#utility.yul\":11604:11607   */\n      dup7\n        /* \"#utility.yul\":11600:11614   */\n      add\n        /* \"#utility.yul\":11586:11598   */\n      dup3\n        /* \"#utility.yul\":11552:11615   */\n      tag_269\n      jump\t// in\n    tag_427:\n        /* \"#utility.yul\":11460:11625   */\n      pop\n        /* \"#utility.yul\":11642:11646   */\n      dup1\n        /* \"#utility.yul\":11635:11646   */\n      swap2\n      pop\n        /* \"#utility.yul\":10498:11652   */\n      pop\n        /* \"#utility.yul\":10378:11652   */\n      swap3\n      swap2\n      pop\n      pop\n      jump\t// out\n        /* \"#utility.yul\":11658:11926   */\n    tag_275:\n        /* \"#utility.yul\":11783:11793   */\n      0x00\n        /* \"#utility.yul\":11818:11920   */\n      tag_429\n        /* \"#utility.yul\":11916:11919   */\n      dup4\n        /* \"#utility.yul\":11908:11914   */\n      dup4\n        /* \"#utility.yul\":11818:11920   */\n      tag_274\n      jump\t// in\n    tag_429:\n        /* \"#utility.yul\":11804:11920   */\n      swap1\n      pop\n        /* \"#utility.yul\":11658:11926   */\n      swap3\n      swap2\n      pop\n      pop\n      jump\t// out\n        /* \"#utility.yul\":11932:12073   */\n    tag_276:\n        /* \"#utility.yul\":12030:12034   */\n      0x00\n        /* \"#utility.yul\":12062:12066   */\n      0x20\n        /* \"#utility.yul\":12057:12060   */\n      dup3\n        /* \"#utility.yul\":12053:12067   */\n      add\n        /* \"#utility.yul\":12045:12067   */\n      swap1\n      pop\n        /* \"#utility.yul\":11932:12073   */\n      swap2\n      swap1\n      pop\n      jump\t// out\n        /* \"#utility.yul\":12159:13294   */\n    tag_277:\n        /* \"#utility.yul\":12334:12337   */\n      0x00\n        /* \"#utility.yul\":12363:12445   */\n      tag_432\n        /* \"#utility.yul\":12439:12444   */\n      dup3\n        /* \"#utility.yul\":12363:12445   */\n      tag_271\n      jump\t// in\n    tag_432:\n        /* \"#utility.yul\":12461:12575   */\n      tag_433\n        /* \"#utility.yul\":12568:12574   */\n      dup2\n        /* \"#utility.yul\":12563:12566   */\n      dup6\n        /* \"#utility.yul\":12461:12575   */\n      tag_272\n      jump\t// in\n    tag_433:\n        /* \"#utility.yul\":12454:12575   */\n      swap4\n      pop\n        /* \"#utility.yul\":12601:12604   */\n      dup4\n        /* \"#utility.yul\":12646:12650   */\n      0x20\n        /* \"#utility.yul\":12638:12644   */\n      dup3\n        /* \"#utility.yul\":12634:12651   */\n      mul\n        /* \"#utility.yul\":12629:12632   */\n      dup6\n        /* \"#utility.yul\":12625:12652   */\n      add\n        /* \"#utility.yul\":12676:12760   */\n      tag_434\n        /* \"#utility.yul\":12754:12759   */\n      dup6\n        /* \"#utility.yul\":12676:12760   */\n      tag_273\n      jump\t// in\n    tag_434:\n        /* \"#utility.yul\":12783:12790   */\n      dup1\n        /* \"#utility.yul\":12814:12815   */\n      0x00\n        /* \"#utility.yul\":12799:13249   */\n    tag_435:\n        /* \"#utility.yul\":12824:12830   */\n      dup6\n        /* \"#utility.yul\":12821:12822   */\n      dup2\n        /* \"#utility.yul\":12818:12831   */\n      lt\n        /* \"#utility.yul\":12799:13249   */\n      iszero\n      tag_437\n      jumpi\n        /* \"#utility.yul\":12895:12904   */\n      dup5\n        /* \"#utility.yul\":12889:12893   */\n      dup5\n        /* \"#utility.yul\":12885:12905   */\n      sub\n        /* \"#utility.yul\":12880:12883   */\n      dup10\n        /* \"#utility.yul\":12873:12906   */\n      mstore\n        /* \"#utility.yul\":12946:12952   */\n      dup2\n        /* \"#utility.yul\":12940:12953   */\n      mload\n        /* \"#utility.yul\":12974:13094   */\n      tag_438\n        /* \"#utility.yul\":13089:13093   */\n      dup6\n        /* \"#utility.yul\":13074:13087   */\n      dup3\n        /* \"#utility.yul\":12974:13094   */\n      tag_275\n      jump\t// in\n    tag_438:\n        /* \"#utility.yul\":12966:13094   */\n      swap5\n      pop\n        /* \"#utility.yul\":13117:13205   */\n      tag_439\n        /* \"#utility.yul\":13198:13204   */\n      dup4\n        /* \"#utility.yul\":13117:13205   */\n      tag_276\n      jump\t// in\n    tag_439:\n        /* \"#utility.yul\":13107:13205   */\n      swap3\n      pop\n        /* \"#utility.yul\":13234:13238   */\n      0x20\n        /* \"#utility.yul\":13229:13232   */\n      dup11\n        /* \"#utility.yul\":13225:13239   */\n      add\n        /* \"#utility.yul\":13218:13239   */\n      swap10\n      pop\n        /* \"#utility.yul\":12859:13249   */\n      pop\n        /* \"#utility.yul\":12846:12847   */\n      0x01\n        /* \"#utility.yul\":12843:12844   */\n      dup2\n        /* \"#utility.yul\":12839:12848   */\n      add\n        /* \"#utility.yul\":12834:12848   */\n      swap1\n      pop\n        /* \"#utility.yul\":12799:13249   */\n      jump(tag_435)\n    tag_437:\n        /* \"#utility.yul\":12803:12817   */\n      pop\n        /* \"#utility.yul\":13265:13269   */\n      dup3\n        /* \"#utility.yul\":13258:13269   */\n      swap8\n      pop\n        /* \"#utility.yul\":13285:13288   */\n      dup8\n        /* \"#utility.yul\":13278:13288   */\n      swap6\n      pop\n        /* \"#utility.yul\":12339:13294   */\n      pop\n      pop\n      pop\n      pop\n      pop\n        /* \"#utility.yul\":12159:13294   */\n      swap3\n      swap2\n      pop\n      pop\n      jump\t// out\n        /* \"#utility.yul\":13300:13785   */\n    tag_40:\n        /* \"#utility.yul\":13499:13503   */\n      0x00\n        /* \"#utility.yul\":13537:13539   */\n      0x20\n        /* \"#utility.yul\":13526:13535   */\n      dup3\n        /* \"#utility.yul\":13522:13540   */\n      add\n        /* \"#utility.yul\":13514:13540   */\n      swap1\n      pop\n        /* \"#utility.yul\":13586:13595   */\n      dup2\n        /* \"#utility.yul\":13580:13584   */\n      dup2\n        /* \"#utility.yul\":13576:13596   */\n      sub\n        /* \"#utility.yul\":13572:13573   */\n      0x00\n        /* \"#utility.yul\":13561:13570   */\n      dup4\n        /* \"#utility.yul\":13557:13574   */\n      add\n        /* \"#utility.yul\":13550:13597   */\n      mstore\n        /* \"#utility.yul\":13614:13778   */\n      tag_441\n        /* \"#utility.yul\":13773:13777   */\n      dup2\n        /* \"#utility.yul\":13764:13770   */\n      dup5\n        /* \"#utility.yul\":13614:13778   */\n      tag_277\n      jump\t// in\n    tag_441:\n        /* \"#utility.yul\":13606:13778   */\n      swap1\n      pop\n        /* \"#utility.yul\":13300:13785   */\n      swap3\n      swap2\n      pop\n      pop\n      jump\t// out\n        /* \"#utility.yul\":13791:13971   */\n    tag_278:\n        /* \"#utility.yul\":13839:13916   */\n      0x4e487b7100000000000000000000000000000000000000000000000000000000\n        /* \"#utility.yul\":13836:13837   */\n      0x00\n        /* \"#utility.yul\":13829:13917   */\n      mstore\n        /* \"#utility.yul\":13936:13940   */\n      0x22\n        /* \"#utility.yul\":13933:13934   */\n      0x04\n        /* \"#utility.yul\":13926:13941   */\n      mstore\n        /* \"#utility.yul\":13960:13964   */\n      0x24\n        /* \"#utility.yul\":13957:13958   */\n      0x00\n        /* \"#utility.yul\":13950:13965   */\n      revert\n        /* \"#utility.yul\":13977:14297   */\n    tag_110:\n        /* \"#utility.yul\":14021:14027   */\n      0x00\n        /* \"#utility.yul\":14058:14059   */\n      0x02\n        /* \"#utility.yul\":14052:14056   */\n      dup3\n        /* \"#utility.yul\":14048:14060   */\n      div\n        /* \"#utility.yul\":14038:14060   */\n      swap1\n      pop\n        /* \"#utility.yul\":14105:14106   */\n      0x01\n        /* \"#utility.yul\":14099:14103   */\n      dup3\n        /* \"#utility.yul\":14095:14107   */\n      and\n        /* \"#utility.yul\":14126:14144   */\n      dup1\n        /* \"#utility.yul\":14116:14197   */\n      tag_444\n      jumpi\n        /* \"#utility.yul\":14182:14186   */\n      0x7f\n        /* \"#utility.yul\":14174:14180   */\n      dup3\n        /* \"#utility.yul\":14170:14187   */\n      and\n        /* \"#utility.yul\":14160:14187   */\n      swap2\n      pop\n        /* \"#utility.yul\":14116:14197   */\n    tag_444:\n        /* \"#utility.yul\":14244:14246   */\n      0x20\n        /* \"#utility.yul\":14236:14242   */\n      dup3\n        /* \"#utility.yul\":14233:14247   */\n      lt\n        /* \"#utility.yul\":14213:14231   */\n      dup2\n        /* \"#utility.yul\":14210:14248   */\n      sub\n        /* \"#utility.yul\":14207:14291   */\n      tag_445\n      jumpi\n        /* \"#utility.yul\":14263:14281   */\n      tag_446\n      tag_278\n      jump\t// in\n    tag_446:\n        /* \"#utility.yul\":14207:14291   */\n    tag_445:\n        /* \"#utility.yul\":14028:14297   */\n      pop\n        /* \"#utility.yul\":13977:14297   */\n      swap2\n      swap1\n      pop\n      jump\t// out\n        /* \"#utility.yul\":14303:14444   */\n    tag_279:\n        /* \"#utility.yul\":14352:14356   */\n      0x00\n        /* \"#utility.yul\":14375:14378   */\n      dup2\n        /* \"#utility.yul\":14367:14378   */\n      swap1\n      pop\n        /* \"#utility.yul\":14398:14401   */\n      dup2\n        /* \"#utility.yul\":14395:14396   */\n      0x00\n        /* \"#utility.yul\":14388:14402   */\n      mstore\n        /* \"#utility.yul\":14432:14436   */\n      0x20\n        /* \"#utility.yul\":14429:14430   */\n      0x00\n        /* \"#utility.yul\":14419:14437   */\n      keccak256\n        /* \"#utility.yul\":14411:14437   */\n      swap1\n      pop\n        /* \"#utility.yul\":14303:14444   */\n      swap2\n      swap1\n      pop\n      jump\t// out\n        /* \"#utility.yul\":14450:14543   */\n    tag_280:\n        /* \"#utility.yul\":14487:14493   */\n      0x00\n        /* \"#utility.yul\":14534:14536   */\n      0x20\n        /* \"#utility.yul\":14529:14531   */\n      0x1f\n        /* \"#utility.yul\":14522:14527   */\n      dup4\n        /* \"#utility.yul\":14518:14532   */\n      add\n        /* \"#utility.yul\":14514:14537   */\n      div\n        /* \"#utility.yul\":14504:14537   */\n      swap1\n      pop\n        /* \"#utility.yul\":14450:14543   */\n      swap2\n      swap1\n      pop\n      jump\t// out\n        /* \"#utility.yul\":14549:14656   */\n    tag_281:\n        /* \"#utility.yul\":14593:14601   */\n      0x00\n        /* \"#utility.yul\":14643:14648   */\n      dup3\n        /* \"#utility.yul\":14637:14641   */\n      dup3\n        /* \"#utility.yul\":14633:14649   */\n      shl\n        /* \"#utility.yul\":14612:14649   */\n      swap1\n      pop\n        /* \"#utility.yul\":14549:14656   */\n      swap3\n      swap2\n      pop\n      pop\n      jump\t// out\n        /* \"#utility.yul\":14662:15055   */\n    tag_282:\n        /* \"#utility.yul\":14731:14737   */\n      0x00\n        /* \"#utility.yul\":14781:14782   */\n      0x08\n        /* \"#utility.yul\":14769:14779   */\n      dup4\n        /* \"#utility.yul\":14765:14783   */\n      mul\n        /* \"#utility.yul\":14804:14901   */\n      tag_451\n        /* \"#utility.yul\":14834:14900   */\n      0xffffffffffffffffffffffffffffffffffffffffffffffffffffffffffffffff\n        /* \"#utility.yul\":14823:14832   */\n      dup3\n        /* \"#utility.yul\":14804:14901   */\n      tag_281\n      jump\t// in\n    tag_451:\n        /* \"#utility.yul\":14922:14961   */\n      tag_452\n        /* \"#utility.yul\":14952:14960   */\n      dup7\n        /* \"#utility.yul\":14941:14950   */\n      dup4\n        /* \"#utility.yul\":14922:14961   */\n      tag_281\n      jump\t// in\n    tag_452:\n        /* \"#utility.yul\":14910:14961   */\n      swap6\n      pop\n        /* \"#utility.yul\":14994:14998   */\n      dup1\n        /* \"#utility.yul\":14990:14999   */\n      not\n        /* \"#utility.yul\":14983:14988   */\n      dup5\n        /* \"#utility.yul\":14979:15000   */\n      and\n        /* \"#utility.yul\":14970:15000   */\n      swap4\n      pop\n        /* \"#utility.yul\":15043:15047   */\n      dup1\n        /* \"#utility.yul\":15033:15041   */\n      dup7\n        /* \"#utility.yul\":15029:15048   */\n      and\n        /* \"#utility.yul\":15022:15027   */\n      dup5\n        /* \"#utility.yul\":15019:15049   */\n      or\n        /* \"#utility.yul\":15009:15049   */\n      swap3\n      pop\n        /* \"#utility.yul\":14738:15055   */\n      pop\n      pop\n        /* \"#utility.yul\":14662:15055   */\n      swap4\n      swap3\n      pop\n      pop\n      pop\n      jump\t// out\n        /* \"#utility.yul\":15061:15121   */\n    tag_283:\n        /* \"#utility.yul\":15089:15092   */\n      0x00\n        /* \"#utility.yul\":15110:15115   */\n      dup2\n        /* \"#utility.yul\":15103:15115   */\n      swap1\n      pop\n        /* \"#utility.yul\":15061:15121   */\n      swap2\n      swap1\n      pop\n      jump\t// out\n        /* \"#utility.yul\":15127:15269   */\n    tag_284:\n        /* \"#utility.yul\":15177:15186   */\n      0x00\n        /* \"#utility.yul\":15210:15263   */\n      tag_455\n        /* \"#utility.yul\":15228:15262   */\n      tag_456\n        /* \"#utility.yul\":15237:15261   */\n      tag_457\n        /* \"#utility.yul\":15255:15260   */\n      dup5\n        /* \"#utility.yul\":15237:15261   */\n      tag_268\n      jump\t// in\n    tag_457:\n        /* \"#utility.yul\":15228:15262   */\n      tag_283\n      jump\t// in\n    tag_456:\n        /* \"#utility.yul\":15210:15263   */\n      tag_268\n      jump\t// in\n    tag_455:\n        /* \"#utility.yul\":15197:15263   */\n      swap1\n      pop\n        /* \"#utility.yul\":15127:15269   */\n      swap2\n      swap1\n      pop\n      jump\t// out\n        /* \"#utility.yul\":15275:15350   */\n    tag_285:\n        /* \"#utility.yul\":15318:15321   */\n      0x00\n        /* \"#utility.yul\":15339:15344   */\n      dup2\n        /* \"#utility.yul\":15332:15344   */\n      swap1\n      pop\n        /* \"#utility.yul\":15275:15350   */\n      swap2\n      swap1\n      pop\n      jump\t// out\n        /* \"#utility.yul\":15356:15625   */\n    tag_286:\n        /* \"#utility.yul\":15466:15505   */\n      tag_460\n        /* \"#utility.yul\":15497:15504   */\n      dup4\n        /* \"#utility.yul\":15466:15505   */\n      tag_284\n      jump\t// in\n    tag_460:\n        /* \"#utility.yul\":15527:15618   */\n      tag_461\n        /* \"#utility.yul\":15576:15617   */\n      tag_462\n        /* \"#utility.yul\":15600:15616   */\n      dup3\n        /* \"#utility.yul\":15576:15617   */\n      tag_285\n      jump\t// in\n    tag_462:\n        /* \"#utility.yul\":15568:15574   */\n      dup5\n        /* \"#utility.yul\":15561:15565   */\n      dup5\n        /* \"#utility.yul\":15555:15566   */\n      sload\n        /* \"#utility.yul\":15527:15618   */\n      tag_282\n      jump\t// in\n    tag_461:\n        /* \"#utility.yul\":15521:15525   */\n      dup3\n        /* \"#utility.yul\":15514:15619   */\n      sstore\n        /* \"#utility.yul\":15432:15625   */\n      pop\n        /* \"#utility.yul\":15356:15625   */\n      pop\n      pop\n      pop\n      jump\t// out\n        /* \"#utility.yul\":15631:15704   */\n    tag_287:\n        /* \"#utility.yul\":15676:15679   */\n      0x00\n        /* \"#utility.yul\":15631:15704   */\n      swap1\n      jump\t// out\n        /* \"#utility.yul\":15710:15899   */\n    tag_288:\n        /* \"#utility.yul\":15787:15819   */\n      tag_465\n      tag_287\n      jump\t// in\n    tag_465:\n        /* \"#utility.yul\":15828:15893   */\n      tag_466\n        /* \"#utility.yul\":15886:15892   */\n      dup2\n        /* \"#utility.yul\":15878:15884   */\n      dup5\n        /* \"#utility.yul\":15872:15876   */\n      dup5\n        /* \"#utility.yul\":15828:15893   */\n      tag_286\n      jump\t// in\n    tag_466:\n        /* \"#utility.yul\":15763:15899   */\n      pop\n        /* \"#utility.yul\":15710:15899   */\n      pop\n      pop\n      jump\t// out\n        /* \"#utility.yul\":15905:16091   */\n    tag_289:\n        /* \"#utility.yul\":15965:16085   */\n    tag_468:\n        /* \"#utility.yul\":15982:15985   */\n      dup2\n        /* \"#utility.yul\":15975:15980   */\n      dup2\n        /* \"#utility.yul\":15972:15986   */\n      lt\n        /* \"#utility.yul\":15965:16085   */\n      iszero\n      tag_470\n      jumpi\n        /* \"#utility.yul\":16036:16075   */\n      tag_471\n        /* \"#utility.yul\":16073:16074   */\n      0x00\n        /* \"#utility.yul\":16066:16071   */\n      dup3\n        /* \"#utility.yul\":16036:16075   */\n      tag_288\n      jump\t// in\n    tag_471:\n        /* \"#utility.yul\":16009:16010   */\n      0x01\n        /* \"#utility.yul\":16002:16007   */\n      dup2\n        /* \"#utility.yul\":15998:16011   */\n      add\n        /* \"#utility.yul\":15989:16011   */\n      swap1\n      pop\n        /* \"#utility.yul\":15965:16085   */\n      jump(tag_468)\n    tag_470:\n        /* \"#utility.yul\":15905:16091   */\n      pop\n      pop\n      jump\t// out\n        /* \"#utility.yul\":16097:16640   */\n    tag_290:\n        /* \"#utility.yul\":16198:16200   */\n      0x1f\n        /* \"#utility.yul\":16193:16196   */\n      dup3\n        /* \"#utility.yul\":16190:16201   */\n      gt\n        /* \"#utility.yul\":16187:16633   */\n      iszero\n      tag_473\n      jumpi\n        /* \"#utility.yul\":16232:16270   */\n      tag_474\n        /* \"#utility.yul\":16264:16269   */\n      dup2\n        /* \"#utility.yul\":16232:16270   */\n      tag_279\n      jump\t// in\n    tag_474:\n        /* \"#utility.yul\":16316:16345   */\n      tag_475\n        /* \"#utility.yul\":16334:16344   */\n      dup5\n        /* \"#utility.yul\":16316:16345   */\n      tag_280\n      jump\t// in\n    tag_475:\n        /* \"#utility.yul\":16306:16314   */\n      dup2\n        /* \"#utility.yul\":16302:16346   */\n      add\n        /* \"#utility.yul\":16499:16501   */\n      0x20\n        /* \"#utility.yul\":16487:16497   */\n      dup6\n        /* \"#utility.yul\":16484:16502   */\n      lt\n        /* \"#utility.yul\":16481:16530   */\n      iszero\n      tag_476\n      jumpi\n        /* \"#utility.yul\":16520:16528   */\n      dup2\n        /* \"#utility.yul\":16505:16528   */\n      swap1\n      pop\n        /* \"#utility.yul\":16481:16530   */\n    tag_476:\n        /* \"#utility.yul\":16543:16623   */\n      tag_477\n        /* \"#utility.yul\":16599:16621   */\n      tag_478\n        /* \"#utility.yul\":16617:16620   */\n      dup6\n        /* \"#utility.yul\":16599:16621   */\n      tag_280\n      jump\t// in\n    tag_478:\n        /* \"#utility.yul\":16589:16597   */\n      dup4\n        /* \"#utility.yul\":16585:16622   */\n      add\n        /* \"#utility.yul\":16572:16583   */\n      dup3\n        /* \"#utility.yul\":16543:16623   */\n      tag_289\n      jump\t// in\n    tag_477:\n        /* \"#utility.yul\":16202:16633   */\n      pop\n      pop\n        /* \"#utility.yul\":16187:16633   */\n    tag_473:\n        /* \"#utility.yul\":16097:16640   */\n      pop\n      pop\n      pop\n      jump\t// out\n        /* \"#utility.yul\":16646:16763   */\n    tag_291:\n        /* \"#utility.yul\":16700:16708   */\n      0x00\n        /* \"#utility.yul\":16750:16755   */\n      dup3\n        /* \"#utility.yul\":16744:16748   */\n      dup3\n        /* \"#utility.yul\":16740:16756   */\n      shr\n        /* \"#utility.yul\":16719:16756   */\n      swap1\n      pop\n        /* \"#utility.yul\":16646:16763   */\n      swap3\n      swap2\n      pop\n      pop\n      jump\t// out\n        /* \"#utility.yul\":16769:16938   */\n    tag_292:\n        /* \"#utility.yul\":16813:16819   */\n      0x00\n        /* \"#utility.yul\":16846:16897   */\n      tag_481\n        /* \"#utility.yul\":16894:16895   */\n      0x00\n        /* \"#utility.yul\":16890:16896   */\n      not\n        /* \"#utility.yul\":16882:16887   */\n      dup5\n        /* \"#utility.yul\":16879:16880   */\n      0x08\n        /* \"#utility.yul\":16875:16888   */\n      mul\n        /* \"#utility.yul\":16846:16897   */\n      tag_291\n      jump\t// in\n    tag_481:\n        /* \"#utility.yul\":16842:16898   */\n      not\n        /* \"#utility.yul\":16927:16931   */\n      dup1\n        /* \"#utility.yul\":16921:16925   */\n      dup4\n        /* \"#utility.yul\":16917:16932   */\n      and\n        /* \"#utility.yul\":16907:16932   */\n      swap2\n      pop\n        /* \"#utility.yul\":16820:16938   */\n      pop\n        /* \"#utility.yul\":16769:16938   */\n      swap3\n      swap2\n      pop\n      pop\n      jump\t// out\n        /* \"#utility.yul\":16943:17238   */\n    tag_293:\n        /* \"#utility.yul\":17019:17023   */\n      0x00\n        /* \"#utility.yul\":17165:17194   */\n      tag_483\n        /* \"#utility.yul\":17190:17193   */\n      dup4\n        /* \"#utility.yul\":17184:17188   */\n      dup4\n        /* \"#utility.yul\":17165:17194   */\n      tag_292\n      jump\t// in\n    tag_483:\n        /* \"#utility.yul\":17157:17194   */\n      swap2\n      pop\n        /* \"#utility.yul\":17227:17230   */\n      dup3\n        /* \"#utility.yul\":17224:17225   */\n      0x02\n        /* \"#utility.yul\":17220:17231   */\n      mul\n        /* \"#utility.yul\":17214:17218   */\n      dup3\n        /* \"#utility.yul\":17211:17232   */\n      or\n        /* \"#utility.yul\":17203:17232   */\n      swap1\n      pop\n        /* \"#utility.yul\":16943:17238   */\n      swap3\n      swap2\n      pop\n      pop\n      jump\t// out\n        /* \"#utility.yul\":17243:18638   */\n    tag_43:\n        /* \"#utility.yul\":17360:17397   */\n      tag_485\n        /* \"#utility.yul\":17393:17396   */\n      dup3\n        /* \"#utility.yul\":17360:17397   */\n      tag_263\n      jump\t// in\n    tag_485:\n        /* \"#utility.yul\":17462:17480   */\n      0xffffffffffffffff\n        /* \"#utility.yul\":17454:17460   */\n      dup2\n        /* \"#utility.yul\":17451:17481   */\n      gt\n        /* \"#utility.yul\":17448:17504   */\n      iszero\n      tag_486\n      jumpi\n        /* \"#utility.yul\":17484:17502   */\n      tag_487\n      tag_248\n      jump\t// in\n    tag_487:\n        /* \"#utility.yul\":17448:17504   */\n    tag_486:\n        /* \"#utility.yul\":17528:17566   */\n      tag_488\n        /* \"#utility.yul\":17560:17564   */\n      dup3\n        /* \"#utility.yul\":17554:17565   */\n      sload\n        /* \"#utility.yul\":17528:17566   */\n      tag_110\n      jump\t// in\n    tag_488:\n        /* \"#utility.yul\":17613:17680   */\n      tag_489\n        /* \"#utility.yul\":17673:17679   */\n      dup3\n        /* \"#utility.yul\":17665:17671   */\n      dup3\n        /* \"#utility.yul\":17659:17663   */\n      dup6\n        /* \"#utility.yul\":17613:17680   */\n      tag_290\n      jump\t// in\n    tag_489:\n        /* \"#utility.yul\":17707:17708   */\n      0x00\n        /* \"#utility.yul\":17731:17735   */\n      0x20\n        /* \"#utility.yul\":17718:17735   */\n      swap1\n      pop\n        /* \"#utility.yul\":17763:17765   */\n      0x1f\n        /* \"#utility.yul\":17755:17761   */\n      dup4\n        /* \"#utility.yul\":17752:17766   */\n      gt\n        /* \"#utility.yul\":17780:17781   */\n      0x01\n        /* \"#utility.yul\":17775:18393   */\n      dup2\n      eq\n      tag_491\n      jumpi\n        /* \"#utility.yul\":18437:18438   */\n      0x00\n        /* \"#utility.yul\":18454:18460   */\n      dup5\n        /* \"#utility.yul\":18451:18528   */\n      iszero\n      tag_492\n      jumpi\n        /* \"#utility.yul\":18503:18512   */\n      dup3\n        /* \"#utility.yul\":18498:18501   */\n      dup8\n        /* \"#utility.yul\":18494:18513   */\n      add\n        /* \"#utility.yul\":18488:18514   */\n      mload\n        /* \"#utility.yul\":18479:18514   */\n      swap1\n      pop\n        /* \"#utility.yul\":18451:18528   */\n    tag_492:\n        /* \"#utility.yul\":18554:18621   */\n      tag_493\n        /* \"#utility.yul\":18614:18620   */\n      dup6\n        /* \"#utility.yul\":18607:18612   */\n      dup3\n        /* \"#utility.yul\":18554:18621   */\n      tag_293\n      jump\t// in\n    tag_493:\n        /* \"#utility.yul\":18548:18552   */\n      dup7\n        /* \"#utility.yul\":18541:18622   */\n      sstore\n        /* \"#utility.yul\":18410:18632   */\n      pop\n        /* \"#utility.yul\":17745:18632   */\n      jump(tag_490)\n        /* \"#utility.yul\":17775:18393   */\n    tag_491:\n        /* \"#utility.yul\":17827:17831   */\n      0x1f\n        /* \"#utility.yul\":17823:17832   */\n      not\n        /* \"#utility.yul\":17815:17821   */\n      dup5\n        /* \"#utility.yul\":17811:17833   */\n      and\n        /* \"#utility.yul\":17861:17898   */\n      tag_494\n        /* \"#utility.yul\":17893:17897   */\n      dup7\n        /* \"#utility.yul\":17861:17898   */\n      tag_279\n      jump\t// in\n    tag_494:\n        /* \"#utility.yul\":17920:17921   */\n      0x00\n        /* \"#utility.yul\":17934:18142   */\n    tag_495:\n        /* \"#utility.yul\":17948:17955   */\n      dup3\n        /* \"#utility.yul\":17945:17946   */\n      dup2\n        /* \"#utility.yul\":17942:17956   */\n      lt\n        /* \"#utility.yul\":17934:18142   */\n      iszero\n      tag_497\n      jumpi\n        /* \"#utility.yul\":18027:18036   */\n      dup5\n        /* \"#utility.yul\":18022:18025   */\n      dup10\n        /* \"#utility.yul\":18018:18037   */\n      add\n        /* \"#utility.yul\":18012:18038   */\n      mload\n        /* \"#utility.yul\":18004:18010   */\n      dup3\n        /* \"#utility.yul\":17997:18039   */\n      sstore\n        /* \"#utility.yul\":18078:18079   */\n      0x01\n        /* \"#utility.yul\":18070:18076   */\n      dup3\n        /* \"#utility.yul\":18066:18080   */\n      add\n        /* \"#utility.yul\":18056:18080   */\n      swap2\n      pop\n        /* \"#utility.yul\":18125:18127   */\n      0x20\n        /* \"#utility.yul\":18114:18123   */\n      dup6\n        /* \"#utility.yul\":18110:18128   */\n      add\n        /* \"#utility.yul\":18097:18128   */\n      swap5\n      pop\n        /* \"#utility.yul\":17971:17975   */\n      0x20\n        /* \"#utility.yul\":17968:17969   */\n      dup2\n        /* \"#utility.yul\":17964:17976   */\n      add\n        /* \"#utility.yul\":17959:17976   */\n      swap1\n      pop\n        /* \"#utility.yul\":17934:18142   */\n      jump(tag_495)\n    tag_497:\n        /* \"#utility.yul\":18170:18176   */\n      dup7\n        /* \"#utility.yul\":18161:18168   */\n      dup4\n        /* \"#utility.yul\":18158:18177   */\n      lt\n        /* \"#utility.yul\":18155:18334   */\n      iszero\n      tag_498\n      jumpi\n        /* \"#utility.yul\":18228:18237   */\n      dup5\n        /* \"#utility.yul\":18223:18226   */\n      dup10\n        /* \"#utility.yul\":18219:18238   */\n      add\n        /* \"#utility.yul\":18213:18239   */\n      mload\n        /* \"#utility.yul\":18271:18319   */\n      tag_499\n        /* \"#utility.yul\":18313:18317   */\n      0x1f\n        /* \"#utility.yul\":18305:18311   */\n      dup10\n        /* \"#utility.yul\":18301:18318   */\n      and\n        /* \"#utility.yul\":18290:18299   */\n      dup3\n        /* \"#utility.yul\":18271:18319   */\n      tag_292\n      jump\t// in\n    tag_499:\n        /* \"#utility.yul\":18263:18269   */\n      dup4\n        /* \"#utility.yul\":18256:18320   */\n      sstore\n        /* \"#utility.yul\":18178:18334   */\n      pop\n        /* \"#utility.yul\":18155:18334   */\n    tag_498:\n        /* \"#utility.yul\":18380:18381   */\n      0x01\n        /* \"#utility.yul\":18376:18377   */\n      0x02\n        /* \"#utility.yul\":18368:18374   */\n      dup9\n        /* \"#utility.yul\":18364:18378   */\n      mul\n        /* \"#utility.yul\":18360:18382   */\n      add\n        /* \"#utility.yul\":18354:18358   */\n      dup9\n        /* \"#utility.yul\":18347:18383   */\n      sstore\n        /* \"#utility.yul\":17782:18393   */\n      pop\n      pop\n      pop\n        /* \"#utility.yul\":17745:18632   */\n    tag_490:\n      pop\n        /* \"#utility.yul\":17335:18638   */\n      pop\n      pop\n      pop\n        /* \"#utility.yul\":17243:18638   */\n      pop\n      pop\n      jump\t// out\n        /* \"#utility.yul\":18644:18792   */\n    tag_294:\n        /* \"#utility.yul\":18746:18757   */\n      0x00\n        /* \"#utility.yul\":18783:18786   */\n      dup2\n        /* \"#utility.yul\":18768:18786   */\n      swap1\n      pop\n        /* \"#utility.yul\":18644:18792   */\n      swap3\n      swap2\n      pop\n      pop\n      jump\t// out\n        /* \"#utility.yul\":18798:18953   */\n    tag_295:\n        /* \"#utility.yul\":18938:18945   */\n      0x524f4c4531000000000000000000000000000000000000000000000000000000\n        /* \"#utility.yul\":18934:18935   */\n      0x00\n        /* \"#utility.yul\":18926:18932   */\n      dup3\n        /* \"#utility.yul\":18922:18936   */\n      add\n        /* \"#utility.yul\":18915:18946   */\n      mstore\n        /* \"#utility.yul\":18798:18953   */\n      pop\n      jump\t// out\n        /* \"#utility.yul\":18959:19359   */\n    tag_296:\n        /* \"#utility.yul\":19119:19122   */\n      0x00\n        /* \"#utility.yul\":19140:19224   */\n      tag_503\n        /* \"#utility.yul\":19222:19223   */\n      0x05\n        /* \"#utility.yul\":19217:19220   */\n      dup4\n        /* \"#utility.yul\":19140:19224   */\n      tag_294\n      jump\t// in\n    tag_503:\n        /* \"#utility.yul\":19133:19224   */\n      swap2\n      pop\n        /* \"#utility.yul\":19233:19326   */\n      tag_504\n        /* \"#utility.yul\":19322:19325   */\n      dup3\n        /* \"#utility.yul\":19233:19326   */\n      tag_295\n      jump\t// in\n    tag_504:\n        /* \"#utility.yul\":19351:19352   */\n      0x05\n        /* \"#utility.yul\":19346:19349   */\n      dup3\n        /* \"#utility.yul\":19342:19353   */\n      add\n        /* \"#utility.yul\":19335:19353   */\n      swap1\n      pop\n        /* \"#utility.yul\":18959:19359   */\n      swap2\n      swap1\n      pop\n      jump\t// out\n        /* \"#utility.yul\":19365:19746   */\n    tag_47:\n        /* \"#utility.yul\":19550:19553   */\n      0x00\n        /* \"#utility.yul\":19572:19720   */\n      tag_506\n        /* \"#utility.yul\":19716:19719   */\n      dup3\n        /* \"#utility.yul\":19572:19720   */\n      tag_296\n      jump\t// in\n    tag_506:\n        /* \"#utility.yul\":19565:19720   */\n      swap2\n      pop\n        /* \"#utility.yul\":19737:19740   */\n      dup2\n        /* \"#utility.yul\":19730:19740   */\n      swap1\n      pop\n        /* \"#utility.yul\":19365:19746   */\n      swap2\n      swap1\n      pop\n      jump\t// out\n        /* \"#utility.yul\":19752:20142   */\n    tag_297:\n        /* \"#utility.yul\":19858:19861   */\n      0x00\n        /* \"#utility.yul\":19886:19925   */\n      tag_508\n        /* \"#utility.yul\":19919:19924   */\n      dup3\n        /* \"#utility.yul\":19886:19925   */\n      tag_263\n      jump\t// in\n    tag_508:\n        /* \"#utility.yul\":19941:20030   */\n      tag_509\n        /* \"#utility.yul\":20023:20029   */\n      dup2\n        /* \"#utility.yul\":20018:20021   */\n      dup6\n        /* \"#utility.yul\":19941:20030   */\n      tag_294\n      jump\t// in\n    tag_509:\n        /* \"#utility.yul\":19934:20030   */\n      swap4\n      pop\n        /* \"#utility.yul\":20039:20104   */\n      tag_510\n        /* \"#utility.yul\":20097:20103   */\n      dup2\n        /* \"#utility.yul\":20092:20095   */\n      dup6\n        /* \"#utility.yul\":20085:20089   */\n      0x20\n        /* \"#utility.yul\":20078:20083   */\n      dup7\n        /* \"#utility.yul\":20074:20090   */\n      add\n        /* \"#utility.yul\":20039:20104   */\n      tag_265\n      jump\t// in\n    tag_510:\n        /* \"#utility.yul\":20129:20135   */\n      dup1\n        /* \"#utility.yul\":20124:20127   */\n      dup5\n        /* \"#utility.yul\":20120:20136   */\n      add\n        /* \"#utility.yul\":20113:20136   */\n      swap2\n      pop\n        /* \"#utility.yul\":19862:20142   */\n      pop\n        /* \"#utility.yul\":19752:20142   */\n      swap3\n      swap2\n      pop\n      pop\n      jump\t// out\n        /* \"#utility.yul\":20148:20423   */\n    tag_49:\n        /* \"#utility.yul\":20280:20283   */\n      0x00\n        /* \"#utility.yul\":20302:20397   */\n      tag_512\n        /* \"#utility.yul\":20393:20396   */\n      dup3\n        /* \"#utility.yul\":20384:20390   */\n      dup5\n        /* \"#utility.yul\":20302:20397   */\n      tag_297\n      jump\t// in\n    tag_512:\n        /* \"#utility.yul\":20295:20397   */\n      swap2\n      pop\n        /* \"#utility.yul\":20414:20417   */\n      dup2\n        /* \"#utility.yul\":20407:20417   */\n      swap1\n      pop\n        /* \"#utility.yul\":20148:20423   */\n      swap3\n      swap2\n      pop\n      pop\n      jump\t// out\n        /* \"#utility.yul\":20429:20584   */\n    tag_298:\n        /* \"#utility.yul\":20569:20576   */\n      0x524f4c4532000000000000000000000000000000000000000000000000000000\n        /* \"#utility.yul\":20565:20566   */\n      0x00\n        /* \"#utility.yul\":20557:20563   */\n      dup3\n        /* \"#utility.yul\":20553:20567   */\n      add\n        /* \"#utility.yul\":20546:20577   */\n      mstore\n        /* \"#utility.yul\":20429:20584   */\n      pop\n      jump\t// out\n        /* \"#utility.yul\":20590:20990   */\n    tag_299:\n        /* \"#utility.yul\":20750:20753   */\n      0x00\n        /* \"#utility.yul\":20771:20855   */\n      tag_515\n        /* \"#utility.yul\":20853:20854   */\n      0x05\n        /* \"#utility.yul\":20848:20851   */\n      dup4\n        /* \"#utility.yul\":20771:20855   */\n      tag_294\n      jump\t// in\n    tag_515:\n        /* \"#utility.yul\":20764:20855   */\n      swap2\n      pop\n        /* \"#utility.yul\":20864:20957   */\n      tag_516\n        /* \"#utility.yul\":20953:20956   */\n      dup3\n        /* \"#utility.yul\":20864:20957   */\n      tag_298\n      jump\t// in\n    tag_516:\n        /* \"#utility.yul\":20982:20983   */\n      0x05\n        /* \"#utility.yul\":20977:20980   */\n      dup3\n        /* \"#utility.yul\":20973:20984   */\n      add\n        /* \"#utility.yul\":20966:20984   */\n      swap1\n      pop\n        /* \"#utility.yul\":20590:20990   */\n      swap2\n      swap1\n      pop\n      jump\t// out\n        /* \"#utility.yul\":20996:21377   */\n    tag_53:\n        /* \"#utility.yul\":21181:21184   */\n      0x00\n        /* \"#utility.yul\":21203:21351   */\n      tag_518\n        /* \"#utility.yul\":21347:21350   */\n      dup3\n        /* \"#utility.yul\":21203:21351   */\n      tag_299\n      jump\t// in\n    tag_518:\n        /* \"#utility.yul\":21196:21351   */\n      swap2\n      pop\n        /* \"#utility.yul\":21368:21371   */\n      dup2\n        /* \"#utility.yul\":21361:21371   */\n      swap1\n      pop\n        /* \"#utility.yul\":20996:21377   */\n      swap2\n      swap1\n      pop\n      jump\t// out\n        /* \"#utility.yul\":21383:21538   */\n    tag_300:\n        /* \"#utility.yul\":21523:21530   */\n      0x524f4c4533000000000000000000000000000000000000000000000000000000\n        /* \"#utility.yul\":21519:21520   */\n      0x00\n        /* \"#utility.yul\":21511:21517   */\n      dup3\n        /* \"#utility.yul\":21507:21521   */\n      add\n        /* \"#utility.yul\":21500:21531   */\n      mstore\n        /* \"#utility.yul\":21383:21538   */\n      pop\n      jump\t// out\n        /* \"#utility.yul\":21544:21944   */\n    tag_301:\n        /* \"#utility.yul\":21704:21707   */\n      0x00\n        /* \"#utility.yul\":21725:21809   */\n      tag_521\n        /* \"#utility.yul\":21807:21808   */\n      0x05\n        /* \"#utility.yul\":21802:21805   */\n      dup4\n        /* \"#utility.yul\":21725:21809   */\n      tag_294\n      jump\t// in\n    tag_521:\n        /* \"#utility.yul\":21718:21809   */\n      swap2\n      pop\n        /* \"#utility.yul\":21818:21911   */\n      tag_522\n        /* \"#utility.yul\":21907:21910   */\n      dup3\n        /* \"#utility.yul\":21818:21911   */\n      tag_300\n      jump\t// in\n    tag_522:\n        /* \"#utility.yul\":21936:21937   */\n      0x05\n        /* \"#utility.yul\":21931:21934   */\n      dup3\n        /* \"#utility.yul\":21927:21938   */\n      add\n        /* \"#utility.yul\":21920:21938   */\n      swap1\n      pop\n        /* \"#utility.yul\":21544:21944   */\n      swap2\n      swap1\n      pop\n      jump\t// out\n        /* \"#utility.yul\":21950:22331   */\n    tag_58:\n        /* \"#utility.yul\":22135:22138   */\n      0x00\n        /* \"#utility.yul\":22157:22305   */\n      tag_524\n        /* \"#utility.yul\":22301:22304   */\n      dup3\n        /* \"#utility.yul\":22157:22305   */\n      tag_301\n      jump\t// in\n    tag_524:\n        /* \"#utility.yul\":22150:22305   */\n      swap2\n      pop\n        /* \"#utility.yul\":22322:22325   */\n      dup2\n        /* \"#utility.yul\":22315:22325   */\n      swap1\n      pop\n        /* \"#utility.yul\":21950:22331   */\n      swap2\n      swap1\n      pop\n      jump\t// out\n        /* \"#utility.yul\":22337:22492   */\n    tag_302:\n        /* \"#utility.yul\":22477:22484   */\n      0x524f4c4534000000000000000000000000000000000000000000000000000000\n        /* \"#utility.yul\":22473:22474   */\n      0x00\n        /* \"#utility.yul\":22465:22471   */\n      dup3\n        /* \"#utility.yul\":22461:22475   */\n      add\n        /* \"#utility.yul\":22454:22485   */\n      mstore\n        /* \"#utility.yul\":22337:22492   */\n      pop\n      jump\t// out\n        /* \"#utility.yul\":22498:22898   */\n    tag_303:\n        /* \"#utility.yul\":22658:22661   */\n      0x00\n        /* \"#utility.yul\":22679:22763   */\n      tag_527\n        /* \"#utility.yul\":22761:22762   */\n      0x05\n        /* \"#utility.yul\":22756:22759   */\n      dup4\n        /* \"#utility.yul\":22679:22763   */\n      tag_294\n      jump\t// in\n    tag_527:\n        /* \"#utility.yul\":22672:22763   */\n      swap2\n      pop\n        /* \"#utility.yul\":22772:22865   */\n      tag_528\n        /* \"#utility.yul\":22861:22864   */\n      dup3\n        /* \"#utility.yul\":22772:22865   */\n      tag_302\n      jump\t// in\n    tag_528:\n        /* \"#utility.yul\":22890:22891   */\n      0x05\n        /* \"#utility.yul\":22885:22888   */\n      dup3\n        /* \"#utility.yul\":22881:22892   */\n      add\n        /* \"#utility.yul\":22874:22892   */\n      swap1\n      pop\n        /* \"#utility.yul\":22498:22898   */\n      swap2\n      swap1\n      pop\n      jump\t// out\n        /* \"#utility.yul\":22904:23285   */\n    tag_63:\n        /* \"#utility.yul\":23089:23092   */\n      0x00\n        /* \"#utility.yul\":23111:23259   */\n      tag_530\n        /* \"#utility.yul\":23255:23258   */\n      dup3\n        /* \"#utility.yul\":23111:23259   */\n      tag_303\n      jump\t// in\n    tag_530:\n        /* \"#utility.yul\":23104:23259   */\n      swap2\n      pop\n        /* \"#utility.yul\":23276:23279   */\n      dup2\n        /* \"#utility.yul\":23269:23279   */\n      swap1\n      pop\n        /* \"#utility.yul\":22904:23285   */\n      swap2\n      swap1\n      pop\n      jump\t// out\n        /* \"#utility.yul\":23291:23460   */\n    tag_304:\n        /* \"#utility.yul\":23375:23386   */\n      0x00\n        /* \"#utility.yul\":23409:23415   */\n      dup3\n        /* \"#utility.yul\":23404:23407   */\n      dup3\n        /* \"#utility.yul\":23397:23416   */\n      mstore\n        /* \"#utility.yul\":23449:23453   */\n      0x20\n        /* \"#utility.yul\":23444:23447   */\n      dup3\n        /* \"#utility.yul\":23440:23454   */\n      add\n        /* \"#utility.yul\":23425:23454   */\n      swap1\n      pop\n        /* \"#utility.yul\":23291:23460   */\n      swap3\n      swap2\n      pop\n      pop\n      jump\t// out\n        /* \"#utility.yul\":23466:23632   */\n    tag_305:\n        /* \"#utility.yul\":23606:23624   */\n      0x4d656d6265722052657175657374656400000000000000000000000000000000\n        /* \"#utility.yul\":23602:23603   */\n      0x00\n        /* \"#utility.yul\":23594:23600   */\n      dup3\n        /* \"#utility.yul\":23590:23604   */\n      add\n        /* \"#utility.yul\":23583:23625   */\n      mstore\n        /* \"#utility.yul\":23466:23632   */\n      pop\n      jump\t// out\n        /* \"#utility.yul\":23638:24004   */\n    tag_306:\n        /* \"#utility.yul\":23780:23783   */\n      0x00\n        /* \"#utility.yul\":23801:23868   */\n      tag_534\n        /* \"#utility.yul\":23865:23867   */\n      0x10\n        /* \"#utility.yul\":23860:23863   */\n      dup4\n        /* \"#utility.yul\":23801:23868   */\n      tag_304\n      jump\t// in\n    tag_534:\n        /* \"#utility.yul\":23794:23868   */\n      swap2\n      pop\n        /* \"#utility.yul\":23877:23970   */\n      tag_535\n        /* \"#utility.yul\":23966:23969   */\n      dup3\n        /* \"#utility.yul\":23877:23970   */\n      tag_305\n      jump\t// in\n    tag_535:\n        /* \"#utility.yul\":23995:23997   */\n      0x20\n        /* \"#utility.yul\":23990:23993   */\n      dup3\n        /* \"#utility.yul\":23986:23998   */\n      add\n        /* \"#utility.yul\":23979:23998   */\n      swap1\n      pop\n        /* \"#utility.yul\":23638:24004   */\n      swap2\n      swap1\n      pop\n      jump\t// out\n        /* \"#utility.yul\":24010:24429   */\n    tag_73:\n        /* \"#utility.yul\":24176:24180   */\n      0x00\n        /* \"#utility.yul\":24214:24216   */\n      0x20\n        /* \"#utility.yul\":24203:24212   */\n      dup3\n        /* \"#utility.yul\":24199:24217   */\n      add\n        /* \"#utility.yul\":24191:24217   */\n      swap1\n      pop\n        /* \"#utility.yul\":24263:24272   */\n      dup2\n        /* \"#utility.yul\":24257:24261   */\n      dup2\n        /* \"#utility.yul\":24253:24273   */\n      sub\n        /* \"#utility.yul\":24249:24250   */\n      0x00\n        /* \"#utility.yul\":24238:24247   */\n      dup4\n        /* \"#utility.yul\":24234:24251   */\n      add\n        /* \"#utility.yul\":24227:24274   */\n      mstore\n        /* \"#utility.yul\":24291:24422   */\n      tag_537\n        /* \"#utility.yul\":24417:24421   */\n      dup2\n        /* \"#utility.yul\":24291:24422   */\n      tag_306\n      jump\t// in\n    tag_537:\n        /* \"#utility.yul\":24283:24422   */\n      swap1\n      pop\n        /* \"#utility.yul\":24010:24429   */\n      swap2\n      swap1\n      pop\n      jump\t// out\n        /* \"#utility.yul\":24435:24597   */\n    tag_307:\n        /* \"#utility.yul\":24575:24589   */\n      0x4d656d6265722045786973740000000000000000000000000000000000000000\n        /* \"#utility.yul\":24571:24572   */\n      0x00\n        /* \"#utility.yul\":24563:24569   */\n      dup3\n        /* \"#utility.yul\":24559:24573   */\n      add\n        /* \"#utility.yul\":24552:24590   */\n      mstore\n        /* \"#utility.yul\":24435:24597   */\n      pop\n      jump\t// out\n        /* \"#utility.yul\":24603:24969   */\n    tag_308:\n        /* \"#utility.yul\":24745:24748   */\n      0x00\n        /* \"#utility.yul\":24766:24833   */\n      tag_540\n        /* \"#utility.yul\":24830:24832   */\n      0x0c\n        /* \"#utility.yul\":24825:24828   */\n      dup4\n        /* \"#utility.yul\":24766:24833   */\n      tag_304\n      jump\t// in\n    tag_540:\n        /* \"#utility.yul\":24759:24833   */\n      swap2\n      pop\n        /* \"#utility.yul\":24842:24935   */\n      tag_541\n        /* \"#utility.yul\":24931:24934   */\n      dup3\n        /* \"#utility.yul\":24842:24935   */\n      tag_307\n      jump\t// in\n    tag_541:\n        /* \"#utility.yul\":24960:24962   */\n      0x20\n        /* \"#utility.yul\":24955:24958   */\n      dup3\n        /* \"#utility.yul\":24951:24963   */\n      add\n        /* \"#utility.yul\":24944:24963   */\n      swap1\n      pop\n        /* \"#utility.yul\":24603:24969   */\n      swap2\n      swap1\n      pop\n      jump\t// out\n        /* \"#utility.yul\":24975:25394   */\n    tag_76:\n        /* \"#utility.yul\":25141:25145   */\n      0x00\n        /* \"#utility.yul\":25179:25181   */\n      0x20\n        /* \"#utility.yul\":25168:25177   */\n      dup3\n        /* \"#utility.yul\":25164:25182   */\n      add\n        /* \"#utility.yul\":25156:25182   */\n      swap1\n      pop\n        /* \"#utility.yul\":25228:25237   */\n      dup2\n        /* \"#utility.yul\":25222:25226   */\n      dup2\n        /* \"#utility.yul\":25218:25238   */\n      sub\n        /* \"#utility.yul\":25214:25215   */\n      0x00\n        /* \"#utility.yul\":25203:25212   */\n      dup4\n        /* \"#utility.yul\":25199:25216   */\n      add\n        /* \"#utility.yul\":25192:25239   */\n      mstore\n        /* \"#utility.yul\":25256:25387   */\n      tag_543\n        /* \"#utility.yul\":25382:25386   */\n      dup2\n        /* \"#utility.yul\":25256:25387   */\n      tag_308\n      jump\t// in\n    tag_543:\n        /* \"#utility.yul\":25248:25387   */\n      swap1\n      pop\n        /* \"#utility.yul\":24975:25394   */\n      swap2\n      swap1\n      pop\n      jump\t// out\n        /* \"#utility.yul\":25400:25549   */\n    tag_309:\n        /* \"#utility.yul\":25449:25455   */\n      0x00\n        /* \"#utility.yul\":25483:25488   */\n      dup2\n        /* \"#utility.yul\":25477:25489   */\n      sload\n        /* \"#utility.yul\":25467:25489   */\n      swap1\n      pop\n        /* \"#utility.yul\":25509:25542   */\n      tag_545\n        /* \"#utility.yul\":25535:25541   */\n      dup2\n        /* \"#utility.yul\":25509:25542   */\n      tag_110\n      jump\t// in\n    tag_545:\n        /* \"#utility.yul\":25499:25542   */\n      swap1\n      pop\n        /* \"#utility.yul\":25400:25549   */\n      swap2\n      swap1\n      pop\n      jump\t// out\n        /* \"#utility.yul\":25555:27006   */\n    tag_79:\n        /* \"#utility.yul\":25666:25669   */\n      dup2\n        /* \"#utility.yul\":25660:25664   */\n      dup2\n        /* \"#utility.yul\":25657:25670   */\n      sub\n        /* \"#utility.yul\":25654:25680   */\n      tag_547\n      jumpi\n        /* \"#utility.yul\":25673:25678   */\n      pop\n      pop\n      jump(tag_546)\n        /* \"#utility.yul\":25654:25680   */\n    tag_547:\n        /* \"#utility.yul\":25704:25738   */\n      tag_548\n        /* \"#utility.yul\":25734:25737   */\n      dup3\n        /* \"#utility.yul\":25704:25738   */\n      tag_309\n      jump\t// in\n    tag_548:\n        /* \"#utility.yul\":25803:25821   */\n      0xffffffffffffffff\n        /* \"#utility.yul\":25795:25801   */\n      dup2\n        /* \"#utility.yul\":25792:25822   */\n      gt\n        /* \"#utility.yul\":25789:25845   */\n      iszero\n      tag_549\n      jumpi\n        /* \"#utility.yul\":25825:25843   */\n      tag_550\n      tag_248\n      jump\t// in\n    tag_550:\n        /* \"#utility.yul\":25789:25845   */\n    tag_549:\n        /* \"#utility.yul\":25869:25907   */\n      tag_551\n        /* \"#utility.yul\":25901:25905   */\n      dup3\n        /* \"#utility.yul\":25895:25906   */\n      sload\n        /* \"#utility.yul\":25869:25907   */\n      tag_110\n      jump\t// in\n    tag_551:\n        /* \"#utility.yul\":25954:26021   */\n      tag_552\n        /* \"#utility.yul\":26014:26020   */\n      dup3\n        /* \"#utility.yul\":26006:26012   */\n      dup3\n        /* \"#utility.yul\":26000:26004   */\n      dup6\n        /* \"#utility.yul\":25954:26021   */\n      tag_290\n      jump\t// in\n    tag_552:\n        /* \"#utility.yul\":26048:26049   */\n      0x00\n        /* \"#utility.yul\":26077:26079   */\n      0x1f\n        /* \"#utility.yul\":26069:26075   */\n      dup4\n        /* \"#utility.yul\":26066:26080   */\n      gt\n        /* \"#utility.yul\":26094:26095   */\n      0x01\n        /* \"#utility.yul\":26089:26761   */\n      dup2\n      eq\n      tag_554\n      jumpi\n        /* \"#utility.yul\":26805:26806   */\n      0x00\n        /* \"#utility.yul\":26822:26828   */\n      dup5\n        /* \"#utility.yul\":26819:26896   */\n      iszero\n      tag_555\n      jumpi\n        /* \"#utility.yul\":26871:26880   */\n      dup3\n        /* \"#utility.yul\":26866:26869   */\n      dup8\n        /* \"#utility.yul\":26862:26881   */\n      add\n        /* \"#utility.yul\":26856:26882   */\n      sload\n        /* \"#utility.yul\":26847:26882   */\n      swap1\n      pop\n        /* \"#utility.yul\":26819:26896   */\n    tag_555:\n        /* \"#utility.yul\":26922:26989   */\n      tag_556\n        /* \"#utility.yul\":26982:26988   */\n      dup6\n        /* \"#utility.yul\":26975:26980   */\n      dup3\n        /* \"#utility.yul\":26922:26989   */\n      tag_293\n      jump\t// in\n    tag_556:\n        /* \"#utility.yul\":26916:26920   */\n      dup7\n        /* \"#utility.yul\":26909:26990   */\n      sstore\n        /* \"#utility.yul\":26778:27000   */\n      pop\n        /* \"#utility.yul\":26059:27000   */\n      jump(tag_553)\n        /* \"#utility.yul\":26089:26761   */\n    tag_554:\n        /* \"#utility.yul\":26141:26145   */\n      0x1f\n        /* \"#utility.yul\":26137:26146   */\n      not\n        /* \"#utility.yul\":26129:26135   */\n      dup5\n        /* \"#utility.yul\":26125:26147   */\n      and\n        /* \"#utility.yul\":26167:26203   */\n      tag_557\n        /* \"#utility.yul\":26199:26202   */\n      dup8\n        /* \"#utility.yul\":26167:26203   */\n      tag_279\n      jump\t// in\n    tag_557:\n        /* \"#utility.yul\":26160:26203   */\n      swap7\n      pop\n        /* \"#utility.yul\":26230:26267   */\n      tag_558\n        /* \"#utility.yul\":26262:26266   */\n      dup7\n        /* \"#utility.yul\":26230:26267   */\n      tag_279\n      jump\t// in\n    tag_558:\n        /* \"#utility.yul\":26289:26290   */\n      0x00\n        /* \"#utility.yul\":26303:26510   */\n    tag_559:\n        /* \"#utility.yul\":26317:26324   */\n      dup3\n        /* \"#utility.yul\":26314:26315   */\n      dup2\n        /* \"#utility.yul\":26311:26325   */\n      lt\n        /* \"#utility.yul\":26303:26510   */\n      iszero\n      tag_561\n      jumpi\n        /* \"#utility.yul\":26396:26405   */\n      dup5\n        /* \"#utility.yul\":26391:26394   */\n      dup10\n        /* \"#utility.yul\":26387:26406   */\n      add\n        /* \"#utility.yul\":26381:26407   */\n      sload\n        /* \"#utility.yul\":26373:26379   */\n      dup3\n        /* \"#utility.yul\":26366:26408   */\n      sstore\n        /* \"#utility.yul\":26447:26448   */\n      0x01\n        /* \"#utility.yul\":26439:26445   */\n      dup3\n        /* \"#utility.yul\":26435:26449   */\n      add\n        /* \"#utility.yul\":26425:26449   */\n      swap2\n      pop\n        /* \"#utility.yul\":26494:26495   */\n      0x01\n        /* \"#utility.yul\":26483:26492   */\n      dup6\n        /* \"#utility.yul\":26479:26496   */\n      add\n        /* \"#utility.yul\":26466:26496   */\n      swap5\n      pop\n        /* \"#utility.yul\":26340:26344   */\n      0x20\n        /* \"#utility.yul\":26337:26338   */\n      dup2\n        /* \"#utility.yul\":26333:26345   */\n      add\n        /* \"#utility.yul\":26328:26345   */\n      swap1\n      pop\n        /* \"#utility.yul\":26303:26510   */\n      jump(tag_559)\n    tag_561:\n        /* \"#utility.yul\":26538:26544   */\n      dup7\n        /* \"#utility.yul\":26529:26536   */\n      dup4\n        /* \"#utility.yul\":26526:26545   */\n      lt\n        /* \"#utility.yul\":26523:26702   */\n      iszero\n      tag_562\n      jumpi\n        /* \"#utility.yul\":26596:26605   */\n      dup5\n        /* \"#utility.yul\":26591:26594   */\n      dup10\n        /* \"#utility.yul\":26587:26606   */\n      add\n        /* \"#utility.yul\":26581:26607   */\n      sload\n        /* \"#utility.yul\":26639:26687   */\n      tag_563\n        /* \"#utility.yul\":26681:26685   */\n      0x1f\n        /* \"#utility.yul\":26673:26679   */\n      dup10\n        /* \"#utility.yul\":26669:26686   */\n      and\n        /* \"#utility.yul\":26658:26667   */\n      dup3\n        /* \"#utility.yul\":26639:26687   */\n      tag_292\n      jump\t// in\n    tag_563:\n        /* \"#utility.yul\":26631:26637   */\n      dup4\n        /* \"#utility.yul\":26624:26688   */\n      sstore\n        /* \"#utility.yul\":26546:26702   */\n      pop\n        /* \"#utility.yul\":26523:26702   */\n    tag_562:\n        /* \"#utility.yul\":26748:26749   */\n      0x01\n        /* \"#utility.yul\":26744:26745   */\n      0x02\n        /* \"#utility.yul\":26736:26742   */\n      dup9\n        /* \"#utility.yul\":26732:26746   */\n      mul\n        /* \"#utility.yul\":26728:26750   */\n      add\n        /* \"#utility.yul\":26722:26726   */\n      dup9\n        /* \"#utility.yul\":26715:26751   */\n      sstore\n        /* \"#utility.yul\":26096:26761   */\n      pop\n      pop\n      pop\n        /* \"#utility.yul\":26059:27000   */\n    tag_553:\n      pop\n        /* \"#utility.yul\":25644:27006   */\n      pop\n      pop\n      pop\n        /* \"#utility.yul\":25555:27006   */\n      pop\n      pop\n    tag_546:\n      jump\t// out\n        /* \"#utility.yul\":27012:27187   */\n    tag_310:\n        /* \"#utility.yul\":27152:27179   */\n      0x596f75206e65656420746f205265717565737420466972737400000000000000\n        /* \"#utility.yul\":27148:27149   */\n      0x00\n        /* \"#utility.yul\":27140:27146   */\n      dup3\n        /* \"#utility.yul\":27136:27150   */\n      add\n        /* \"#utility.yul\":27129:27180   */\n      mstore\n        /* \"#utility.yul\":27012:27187   */\n      pop\n      jump\t// out\n        /* \"#utility.yul\":27193:27559   */\n    tag_311:\n        /* \"#utility.yul\":27335:27338   */\n      0x00\n        /* \"#utility.yul\":27356:27423   */\n      tag_566\n        /* \"#utility.yul\":27420:27422   */\n      0x19\n        /* \"#utility.yul\":27415:27418   */\n      dup4\n        /* \"#utility.yul\":27356:27423   */\n      tag_304\n      jump\t// in\n    tag_566:\n        /* \"#utility.yul\":27349:27423   */\n      swap2\n      pop\n        /* \"#utility.yul\":27432:27525   */\n      tag_567\n        /* \"#utility.yul\":27521:27524   */\n      dup3\n        /* \"#utility.yul\":27432:27525   */\n      tag_310\n      jump\t// in\n    tag_567:\n        /* \"#utility.yul\":27550:27552   */\n      0x20\n        /* \"#utility.yul\":27545:27548   */\n      dup3\n        /* \"#utility.yul\":27541:27553   */\n      add\n        /* \"#utility.yul\":27534:27553   */\n      swap1\n      pop\n        /* \"#utility.yul\":27193:27559   */\n      swap2\n      swap1\n      pop\n      jump\t// out\n        /* \"#utility.yul\":27565:27984   */\n    tag_91:\n        /* \"#utility.yul\":27731:27735   */\n      0x00\n        /* \"#utility.yul\":27769:27771   */\n      0x20\n        /* \"#utility.yul\":27758:27767   */\n      dup3\n        /* \"#utility.yul\":27754:27772   */\n      add\n        /* \"#utility.yul\":27746:27772   */\n      swap1\n      pop\n        /* \"#utility.yul\":27818:27827   */\n      dup2\n        /* \"#utility.yul\":27812:27816   */\n      dup2\n        /* \"#utility.yul\":27808:27828   */\n      sub\n        /* \"#utility.yul\":27804:27805   */\n      0x00\n        /* \"#utility.yul\":27793:27802   */\n      dup4\n        /* \"#utility.yul\":27789:27806   */\n      add\n        /* \"#utility.yul\":27782:27829   */\n      mstore\n        /* \"#utility.yul\":27846:27977   */\n      tag_569\n        /* \"#utility.yul\":27972:27976   */\n      dup2\n        /* \"#utility.yul\":27846:27977   */\n      tag_311\n      jump\t// in\n    tag_569:\n        /* \"#utility.yul\":27838:27977   */\n      swap1\n      pop\n        /* \"#utility.yul\":27565:27984   */\n      swap2\n      swap1\n      pop\n      jump\t// out\n        /* \"#utility.yul\":27990:28219   */\n    tag_312:\n        /* \"#utility.yul\":28130:28164   */\n      0x596f752063616e277420617070726f6f766520736f6d656f6e652061626f7665\n        /* \"#utility.yul\":28126:28127   */\n      0x00\n        /* \"#utility.yul\":28118:28124   */\n      dup3\n        /* \"#utility.yul\":28114:28128   */\n      add\n        /* \"#utility.yul\":28107:28165   */\n      mstore\n        /* \"#utility.yul\":28199:28211   */\n      0x207468616e20796f752e00000000000000000000000000000000000000000000\n        /* \"#utility.yul\":28194:28196   */\n      0x20\n        /* \"#utility.yul\":28186:28192   */\n      dup3\n        /* \"#utility.yul\":28182:28197   */\n      add\n        /* \"#utility.yul\":28175:28212   */\n      mstore\n        /* \"#utility.yul\":27990:28219   */\n      pop\n      jump\t// out\n        /* \"#utility.yul\":28225:28591   */\n    tag_313:\n        /* \"#utility.yul\":28367:28370   */\n      0x00\n        /* \"#utility.yul\":28388:28455   */\n      tag_572\n        /* \"#utility.yul\":28452:28454   */\n      0x2a\n        /* \"#utility.yul\":28447:28450   */\n      dup4\n        /* \"#utility.yul\":28388:28455   */\n      tag_304\n      jump\t// in\n    tag_572:\n        /* \"#utility.yul\":28381:28455   */\n      swap2\n      pop\n        /* \"#utility.yul\":28464:28557   */\n      tag_573\n        /* \"#utility.yul\":28553:28556   */\n      dup3\n        /* \"#utility.yul\":28464:28557   */\n      tag_312\n      jump\t// in\n    tag_573:\n        /* \"#utility.yul\":28582:28584   */\n      0x40\n        /* \"#utility.yul\":28577:28580   */\n      dup3\n        /* \"#utility.yul\":28573:28585   */\n      add\n        /* \"#utility.yul\":28566:28585   */\n      swap1\n      pop\n        /* \"#utility.yul\":28225:28591   */\n      swap2\n      swap1\n      pop\n      jump\t// out\n        /* \"#utility.yul\":28597:29016   */\n    tag_174:\n        /* \"#utility.yul\":28763:28767   */\n      0x00\n        /* \"#utility.yul\":28801:28803   */\n      0x20\n        /* \"#utility.yul\":28790:28799   */\n      dup3\n        /* \"#utility.yul\":28786:28804   */\n      add\n        /* \"#utility.yul\":28778:28804   */\n      swap1\n      pop\n        /* \"#utility.yul\":28850:28859   */\n      dup2\n        /* \"#utility.yul\":28844:28848   */\n      dup2\n        /* \"#utility.yul\":28840:28860   */\n      sub\n        /* \"#utility.yul\":28836:28837   */\n      0x00\n        /* \"#utility.yul\":28825:28834   */\n      dup4\n        /* \"#utility.yul\":28821:28838   */\n      add\n        /* \"#utility.yul\":28814:28861   */\n      mstore\n        /* \"#utility.yul\":28878:29009   */\n      tag_575\n        /* \"#utility.yul\":29004:29008   */\n      dup2\n        /* \"#utility.yul\":28878:29009   */\n      tag_313\n      jump\t// in\n    tag_575:\n        /* \"#utility.yul\":28870:29009   */\n      swap1\n      pop\n        /* \"#utility.yul\":28597:29016   */\n      swap2\n      swap1\n      pop\n      jump\t// out\n        /* \"#utility.yul\":29022:29202   */\n    tag_314:\n        /* \"#utility.yul\":29070:29147   */\n      0x4e487b7100000000000000000000000000000000000000000000000000000000\n        /* \"#utility.yul\":29067:29068   */\n      0x00\n        /* \"#utility.yul\":29060:29148   */\n      mstore\n        /* \"#utility.yul\":29167:29171   */\n      0x11\n        /* \"#utility.yul\":29164:29165   */\n      0x04\n        /* \"#utility.yul\":29157:29172   */\n      mstore\n        /* \"#utility.yul\":29191:29195   */\n      0x24\n        /* \"#utility.yul\":29188:29189   */\n      0x00\n        /* \"#utility.yul\":29181:29196   */\n      revert\n        /* \"#utility.yul\":29208:29402   */\n    tag_177:\n        /* \"#utility.yul\":29248:29252   */\n      0x00\n        /* \"#utility.yul\":29268:29288   */\n      tag_578\n        /* \"#utility.yul\":29286:29287   */\n      dup3\n        /* \"#utility.yul\":29268:29288   */\n      tag_268\n      jump\t// in\n    tag_578:\n        /* \"#utility.yul\":29263:29288   */\n      swap2\n      pop\n        /* \"#utility.yul\":29302:29322   */\n      tag_579\n        /* \"#utility.yul\":29320:29321   */\n      dup4\n        /* \"#utility.yul\":29302:29322   */\n      tag_268\n      jump\t// in\n    tag_579:\n        /* \"#utility.yul\":29297:29322   */\n      swap3\n      pop\n        /* \"#utility.yul\":29346:29347   */\n      dup3\n        /* \"#utility.yul\":29343:29344   */\n      dup3\n        /* \"#utility.yul\":29339:29348   */\n      sub\n        /* \"#utility.yul\":29331:29348   */\n      swap1\n      pop\n        /* \"#utility.yul\":29370:29371   */\n      dup2\n        /* \"#utility.yul\":29364:29368   */\n      dup2\n        /* \"#utility.yul\":29361:29372   */\n      gt\n        /* \"#utility.yul\":29358:29395   */\n      iszero\n      tag_580\n      jumpi\n        /* \"#utility.yul\":29375:29393   */\n      tag_581\n      tag_314\n      jump\t// in\n    tag_581:\n        /* \"#utility.yul\":29358:29395   */\n    tag_580:\n        /* \"#utility.yul\":29208:29402   */\n      swap3\n      swap2\n      pop\n      pop\n      jump\t// out\n        /* \"#utility.yul\":29408:29588   */\n    tag_180:\n        /* \"#utility.yul\":29456:29533   */\n      0x4e487b7100000000000000000000000000000000000000000000000000000000\n        /* \"#utility.yul\":29453:29454   */\n      0x00\n        /* \"#utility.yul\":29446:29534   */\n      mstore\n        /* \"#utility.yul\":29553:29557   */\n      0x32\n        /* \"#utility.yul\":29550:29551   */\n      0x04\n        /* \"#utility.yul\":29543:29558   */\n      mstore\n        /* \"#utility.yul\":29577:29581   */\n      0x24\n        /* \"#utility.yul\":29574:29575   */\n      0x00\n        /* \"#utility.yul\":29567:29582   */\n      revert\n        /* \"#utility.yul\":29594:29774   */\n    tag_190:\n        /* \"#utility.yul\":29642:29719   */\n      0x4e487b7100000000000000000000000000000000000000000000000000000000\n        /* \"#utility.yul\":29639:29640   */\n      0x00\n        /* \"#utility.yul\":29632:29720   */\n      mstore\n        /* \"#utility.yul\":29739:29743   */\n      0x31\n        /* \"#utility.yul\":29736:29737   */\n      0x04\n        /* \"#utility.yul\":29729:29744   */\n      mstore\n        /* \"#utility.yul\":29763:29767   */\n      0x24\n        /* \"#utility.yul\":29760:29761   */\n      0x00\n        /* \"#utility.yul\":29753:29768   */\n      revert\n\n    auxdata: 0xa2646970667358221220c08ba7df826cdf32c070c878ca6d77aa053134060a637ff67f557e50eff52ec464736f6c63430008100033\n}\n","bytecode":{"linkReferences":{},"object":"608060405260008055600060015534801561001957600080fd5b50612c0a806100296000396000f3fe6080604052600436106100555760003560e01c80634cd6f25e1461005a57806364e4753614610083578063a9e10bf2146100c0578063bafa08c1146100ca578063e070dd1214610107578063e473f6cd14610130575b600080fd5b34801561006657600080fd5b50610081600480360381019061007c9190611ef1565b61016d565b005b34801561008f57600080fd5b506100aa60048036038101906100a59190611fc0565b610ae1565b6040516100b79190611ffc565b60405180910390f35b6100c8610b4e565b005b3480156100d657600080fd5b506100f160048036038101906100ec9190612017565b610b50565b6040516100fe9190612182565b60405180910390f35b34801561011357600080fd5b5061012e600480360381019061012991906121a4565b611034565b005b34801561013c57600080fd5b50610157600480360381019061015291906121e4565b611766565b6040516101649190612357565b60405180910390f35b84600a600001908161017f9190612585565b5083600a60010190816101929190612585565b5082600a60020190816101a59190612585565b5081600a60030160006101000a81548173ffffffffffffffffffffffffffffffffffffffff021916908373ffffffffffffffffffffffffffffffffffffffff1602179055506040516020016101f9906126ae565b604051602081830303815290604052805190602001208560405160200161022091906126f4565b604051602081830303815290604052805190602001200361024b576001600a6004018190555061037d565b60405160200161025a90612757565b604051602081830303815290604052805190602001208560405160200161028191906126f4565b60405160208183030381529060405280519060200120036102ac576002600a6004018190555061037c565b6040516020016102bb906127b8565b60405160208183030381529060405280519060200120856040516020016102e291906126f4565b604051602081830303815290604052805190602001200361030d576003600a6004018190555061037b565b60405160200161031c90612819565b604051602081830303815290604052805190602001208560405160200161034391906126f4565b604051602081830303815290604052805190602001200361036e576004600a6004018190555061037a565b6005600a600401819055505b5b5b5b600115158115151480156103db575060405160200161039b906126ae565b60405160208183030381529060405280519060200120856040516020016103c291906126f4565b6040516020818303038152906040528051906020012014155b156107365760001515600960008473ffffffffffffffffffffffffffffffffffffffff1673ffffffffffffffffffffffffffffffffffffffff16815260200190815260200160002060009054906101000a900460ff16151514610473576040517f08c379a000000000000000000000000000000000000000000000000000000000815260040161046a9061288b565b60405180910390fd5b60001515600660008473ffffffffffffffffffffffffffffffffffffffff1673ffffffffffffffffffffffffffffffffffffffff16815260200190815260200160002060009054906101000a900460ff16151514610506576040517f08c379a00000000000000000000000000000000000000000000000000000000081526004016104fd906128f7565b60405180910390fd5b6008600a908060018154018082558091505060019003906000526020600020906005020160009091909190915060008201816000019081610547919061292d565b506001820181600101908161055c919061292d565b5060028201816002019081610571919061292d565b506003820160009054906101000a900473ffffffffffffffffffffffffffffffffffffffff168160030160006101000a81548173ffffffffffffffffffffffffffffffffffffffff021916908373ffffffffffffffffffffffffffffffffffffffff160217905550600482015481600401555050600a600760008473ffffffffffffffffffffffffffffffffffffffff1673ffffffffffffffffffffffffffffffffffffffff1681526020019081526020016000206000820181600001908161063a919061292d565b506001820181600101908161064f919061292d565b5060028201816002019081610664919061292d565b506003820160009054906101000a900473ffffffffffffffffffffffffffffffffffffffff168160030160006101000a81548173ffffffffffffffffffffffffffffffffffffffff021916908373ffffffffffffffffffffffffffffffffffffffff160217905550600482015481600401559050506001600960008473ffffffffffffffffffffffffffffffffffffffff1673ffffffffffffffffffffffffffffffffffffffff16815260200190815260200160002060006101000a81548160ff021916908315150217905550610ada565b604051602001610745906126ae565b604051602081830303815290604052805190602001208560405160200161076c91906126f4565b604051602081830303815290604052805190602001201461081b5760011515600960008473ffffffffffffffffffffffffffffffffffffffff1673ffffffffffffffffffffffffffffffffffffffff16815260200190815260200160002060009054906101000a900460ff1615151461081a576040517f08c379a000000000000000000000000000000000000000000000000000000000815260040161081190612a61565b60405180910390fd5b5b60001515600660008473ffffffffffffffffffffffffffffffffffffffff1673ffffffffffffffffffffffffffffffffffffffff16815260200190815260200160002060009054906101000a900460ff161515146108ae576040517f08c379a00000000000000000000000000000000000000000000000000000000081526004016108a5906128f7565b60405180910390fd5b6005600a9080600181540180825580915050600190039060005260206000209060050201600090919091909150600082018160000190816108ef919061292d565b5060018201816001019081610904919061292d565b5060028201816002019081610919919061292d565b506003820160009054906101000a900473ffffffffffffffffffffffffffffffffffffffff168160030160006101000a81548173ffffffffffffffffffffffffffffffffffffffff021916908373ffffffffffffffffffffffffffffffffffffffff160217905550600482015481600401555050600a600460008473ffffffffffffffffffffffffffffffffffffffff1673ffffffffffffffffffffffffffffffffffffffff168152602001908152602001600020600082018160000190816109e2919061292d565b50600182018160010190816109f7919061292d565b5060028201816002019081610a0c919061292d565b506003820160009054906101000a900473ffffffffffffffffffffffffffffffffffffffff168160030160006101000a81548173ffffffffffffffffffffffffffffffffffffffff021916908373ffffffffffffffffffffffffffffffffffffffff160217905550600482015481600401559050506001600660008473ffffffffffffffffffffffffffffffffffffffff1673ffffffffffffffffffffffffffffffffffffffff16815260200190815260200160002060006101000a81548160ff0219169083151502179055505b5050505050565b600060011515600660008473ffffffffffffffffffffffffffffffffffffffff1673ffffffffffffffffffffffffffffffffffffffff16815260200190815260200160002060009054906101000a900460ff16151503610b445760019050610b49565b600090505b919050565b565b610b58611c5f565b6001151582151503610dcb57600760008473ffffffffffffffffffffffffffffffffffffffff1673ffffffffffffffffffffffffffffffffffffffff1681526020019081526020016000206040518060a0016040529081600082018054610bbe906123a8565b80601f0160208091040260200160405190810160405280929190818152602001828054610bea906123a8565b8015610c375780601f10610c0c57610100808354040283529160200191610c37565b820191906000526020600020905b815481529060010190602001808311610c1a57829003601f168201915b50505050508152602001600182018054610c50906123a8565b80601f0160208091040260200160405190810160405280929190818152602001828054610c7c906123a8565b8015610cc95780601f10610c9e57610100808354040283529160200191610cc9565b820191906000526020600020905b815481529060010190602001808311610cac57829003601f168201915b50505050508152602001600282018054610ce2906123a8565b80601f0160208091040260200160405190810160405280929190818152602001828054610d0e906123a8565b8015610d5b5780601f10610d3057610100808354040283529160200191610d5b565b820191906000526020600020905b815481529060010190602001808311610d3e57829003601f168201915b505050505081526020016003820160009054906101000a900473ffffffffffffffffffffffffffffffffffffffff1673ffffffffffffffffffffffffffffffffffffffff1673ffffffffffffffffffffffffffffffffffffffff168152602001600482015481525050905061102e565b600460008473ffffffffffffffffffffffffffffffffffffffff1673ffffffffffffffffffffffffffffffffffffffff1681526020019081526020016000206040518060a0016040529081600082018054610e25906123a8565b80601f0160208091040260200160405190810160405280929190818152602001828054610e51906123a8565b8015610e9e5780601f10610e7357610100808354040283529160200191610e9e565b820191906000526020600020905b815481529060010190602001808311610e8157829003601f168201915b50505050508152602001600182018054610eb7906123a8565b80601f0160208091040260200160405190810160405280929190818152602001828054610ee3906123a8565b8015610f305780601f10610f0557610100808354040283529160200191610f30565b820191906000526020600020905b815481529060010190602001808311610f1357829003601f168201915b50505050508152602001600282018054610f49906123a8565b80601f0160208091040260200160405190810160405280929190818152602001828054610f75906123a8565b8015610fc25780601f10610f9757610100808354040283529160200191610fc2565b820191906000526020600020905b815481529060010190602001808311610fa557829003601f168201915b505050505081526020016003820160009054906101000a900473ffffffffffffffffffffffffffffffffffffffff1673ffffffffffffffffffffffffffffffffffffffff1673ffffffffffffffffffffffffffffffffffffffff16815260200160048201548152505090505b92915050565b6000600760008473ffffffffffffffffffffffffffffffffffffffff1673ffffffffffffffffffffffffffffffffffffffff1681526020019081526020016000206040518060a0016040529081600082018054611090906123a8565b80601f01602080910402602001604051908101604052809291908181526020018280546110bc906123a8565b80156111095780601f106110de57610100808354040283529160200191611109565b820191906000526020600020905b8154815290600101906020018083116110ec57829003601f168201915b50505050508152602001600182018054611122906123a8565b80601f016020809104026020016040519081016040528092919081815260200182805461114e906123a8565b801561119b5780601f106111705761010080835404028352916020019161119b565b820191906000526020600020905b81548152906001019060200180831161117e57829003601f168201915b505050505081526020016002820180546111b4906123a8565b80601f01602080910402602001604051908101604052809291908181526020018280546111e0906123a8565b801561122d5780601f106112025761010080835404028352916020019161122d565b820191906000526020600020905b81548152906001019060200180831161121057829003601f168201915b505050505081526020016003820160009054906101000a900473ffffffffffffffffffffffffffffffffffffffff1673ffffffffffffffffffffffffffffffffffffffff1673ffffffffffffffffffffffffffffffffffffffff16815260200160048201548152505090506000600460008473ffffffffffffffffffffffffffffffffffffffff1673ffffffffffffffffffffffffffffffffffffffff1681526020019081526020016000206040518060a00160405290816000820180546112f4906123a8565b80601f0160208091040260200160405190810160405280929190818152602001828054611320906123a8565b801561136d5780601f106113425761010080835404028352916020019161136d565b820191906000526020600020905b81548152906001019060200180831161135057829003601f168201915b50505050508152602001600182018054611386906123a8565b80601f01602080910402602001604051908101604052809291908181526020018280546113b2906123a8565b80156113ff5780601f106113d4576101008083540402835291602001916113ff565b820191906000526020600020905b8154815290600101906020018083116113e257829003601f168201915b50505050508152602001600282018054611418906123a8565b80601f0160208091040260200160405190810160405280929190818152602001828054611444906123a8565b80156114915780601f1061146657610100808354040283529160200191611491565b820191906000526020600020905b81548152906001019060200180831161147457829003601f168201915b505050505081526020016003820160009054906101000a900473ffffffffffffffffffffffffffffffffffffffff1673ffffffffffffffffffffffffffffffffffffffff1673ffffffffffffffffffffffffffffffffffffffff168152602001600482015481525050905060008260000151905060008360200151905060008460400151905060008560600151905060008660800151905060008660800151905081811115611575576040517f08c379a000000000000000000000000000000000000000000000000000000000815260040161156c90612af3565b60405180910390fd5b61158386868686600061016d565b6000600260008c73ffffffffffffffffffffffffffffffffffffffff1673ffffffffffffffffffffffffffffffffffffffff168152602001908152602001600020549050600860016008805490506115db9190612b42565b815481106115ec576115eb612b76565b5b90600052602060002090600502016008828154811061160e5761160d612b76565b5b906000526020600020906005020160008201816000019081611630919061292d565b5060018201816001019081611645919061292d565b506002820181600201908161165a919061292d565b506003820160009054906101000a900473ffffffffffffffffffffffffffffffffffffffff168160030160006101000a81548173ffffffffffffffffffffffffffffffffffffffff021916908373ffffffffffffffffffffffffffffffffffffffff1602179055506004820154816004015590505060088054806116e1576116e0612ba5565b5b6001900381819060005260206000209060050201600080820160006117069190611ca4565b6001820160006117169190611ca4565b6002820160006117269190611ca4565b6003820160006101000a81549073ffffffffffffffffffffffffffffffffffffffff02191690556004820160009055505090555050505050505050505050565b606060011515821515036119e9576008805480602002602001604051908101604052809291908181526020016000905b828210156119de57838290600052602060002090600502016040518060a00160405290816000820180546117c9906123a8565b80601f01602080910402602001604051908101604052809291908181526020018280546117f5906123a8565b80156118425780601f1061181757610100808354040283529160200191611842565b820191906000526020600020905b81548152906001019060200180831161182557829003601f168201915b5050505050815260200160018201805461185b906123a8565b80601f0160208091040260200160405190810160405280929190818152602001828054611887906123a8565b80156118d45780601f106118a9576101008083540402835291602001916118d4565b820191906000526020600020905b8154815290600101906020018083116118b757829003601f168201915b505050505081526020016002820180546118ed906123a8565b80601f0160208091040260200160405190810160405280929190818152602001828054611919906123a8565b80156119665780601f1061193b57610100808354040283529160200191611966565b820191906000526020600020905b81548152906001019060200180831161194957829003601f168201915b505050505081526020016003820160009054906101000a900473ffffffffffffffffffffffffffffffffffffffff1673ffffffffffffffffffffffffffffffffffffffff1673ffffffffffffffffffffffffffffffffffffffff16815260200160048201548152505081526020019060010190611796565b505050509050611c5a565b6005805480602002602001604051908101604052809291908181526020016000905b82821015611c5357838290600052602060002090600502016040518060a0016040529081600082018054611a3e906123a8565b80601f0160208091040260200160405190810160405280929190818152602001828054611a6a906123a8565b8015611ab75780601f10611a8c57610100808354040283529160200191611ab7565b820191906000526020600020905b815481529060010190602001808311611a9a57829003601f168201915b50505050508152602001600182018054611ad0906123a8565b80601f0160208091040260200160405190810160405280929190818152602001828054611afc906123a8565b8015611b495780601f10611b1e57610100808354040283529160200191611b49565b820191906000526020600020905b815481529060010190602001808311611b2c57829003601f168201915b50505050508152602001600282018054611b62906123a8565b80601f0160208091040260200160405190810160405280929190818152602001828054611b8e906123a8565b8015611bdb5780601f10611bb057610100808354040283529160200191611bdb565b820191906000526020600020905b815481529060010190602001808311611bbe57829003601f168201915b505050505081526020016003820160009054906101000a900473ffffffffffffffffffffffffffffffffffffffff1673ffffffffffffffffffffffffffffffffffffffff1673ffffffffffffffffffffffffffffffffffffffff16815260200160048201548152505081526020019060010190611a0b565b5050505090505b919050565b6040518060a00160405280606081526020016060815260200160608152602001600073ffffffffffffffffffffffffffffffffffffffff168152602001600081525090565b508054611cb0906123a8565b6000825580601f10611cc25750611ce1565b601f016020900490600052602060002090810190611ce09190611ce4565b5b50565b5b80821115611cfd576000816000905550600101611ce5565b5090565b6000604051905090565b600080fd5b600080fd5b600080fd5b600080fd5b6000601f19601f8301169050919050565b7f4e487b7100000000000000000000000000000000000000000000000000000000600052604160045260246000fd5b611d6882611d1f565b810181811067ffffffffffffffff82111715611d8757611d86611d30565b5b80604052505050565b6000611d9a611d01565b9050611da68282611d5f565b919050565b600067ffffffffffffffff821115611dc657611dc5611d30565b5b611dcf82611d1f565b9050602081019050919050565b82818337600083830152505050565b6000611dfe611df984611dab565b611d90565b905082815260208101848484011115611e1a57611e19611d1a565b5b611e25848285611ddc565b509392505050565b600082601f830112611e4257611e41611d15565b5b8135611e52848260208601611deb565b91505092915050565b600073ffffffffffffffffffffffffffffffffffffffff82169050919050565b6000611e8682611e5b565b9050919050565b611e9681611e7b565b8114611ea157600080fd5b50565b600081359050611eb381611e8d565b92915050565b60008115159050919050565b611ece81611eb9565b8114611ed957600080fd5b50565b600081359050611eeb81611ec5565b92915050565b600080600080600060a08688031215611f0d57611f0c611d0b565b5b600086013567ffffffffffffffff811115611f2b57611f2a611d10565b5b611f3788828901611e2d565b955050602086013567ffffffffffffffff811115611f5857611f57611d10565b5b611f6488828901611e2d565b945050604086013567ffffffffffffffff811115611f8557611f84611d10565b5b611f9188828901611e2d565b9350506060611fa288828901611ea4565b9250506080611fb388828901611edc565b9150509295509295909350565b600060208284031215611fd657611fd5611d0b565b5b6000611fe484828501611ea4565b91505092915050565b611ff681611eb9565b82525050565b60006020820190506120116000830184611fed565b92915050565b6000806040838503121561202e5761202d611d0b565b5b600061203c85828601611ea4565b925050602061204d85828601611edc565b9150509250929050565b600081519050919050565b600082825260208201905092915050565b60005b83811015612091578082015181840152602081019050612076565b60008484015250505050565b60006120a882612057565b6120b28185612062565b93506120c2818560208601612073565b6120cb81611d1f565b840191505092915050565b6120df81611e7b565b82525050565b6000819050919050565b6120f8816120e5565b82525050565b600060a083016000830151848203600086015261211b828261209d565b91505060208301518482036020860152612135828261209d565b9150506040830151848203604086015261214f828261209d565b915050606083015161216460608601826120d6565b50608083015161217760808601826120ef565b508091505092915050565b6000602082019050818103600083015261219c81846120fe565b905092915050565b600080604083850312156121bb576121ba611d0b565b5b60006121c985828601611ea4565b92505060206121da85828601611ea4565b9150509250929050565b6000602082840312156121fa576121f9611d0b565b5b600061220884828501611edc565b91505092915050565b600081519050919050565b600082825260208201905092915050565b6000819050602082019050919050565b600060a083016000830151848203600086015261225a828261209d565b91505060208301518482036020860152612274828261209d565b9150506040830151848203604086015261228e828261209d565b91505060608301516122a360608601826120d6565b5060808301516122b660808601826120ef565b508091505092915050565b60006122cd838361223d565b905092915050565b6000602082019050919050565b60006122ed82612211565b6122f7818561221c565b9350836020820285016123098561222d565b8060005b85811015612345578484038952815161232685826122c1565b9450612331836122d5565b925060208a0199505060018101905061230d565b50829750879550505050505092915050565b6000602082019050818103600083015261237181846122e2565b905092915050565b7f4e487b7100000000000000000000000000000000000000000000000000000000600052602260045260246000fd5b600060028204905060018216806123c057607f821691505b6020821081036123d3576123d2612379565b5b50919050565b60008190508160005260206000209050919050565b60006020601f8301049050919050565b600082821b905092915050565b60006008830261243b7fffffffffffffffffffffffffffffffffffffffffffffffffffffffffffffffff826123fe565b61244586836123fe565b95508019841693508086168417925050509392505050565b6000819050919050565b600061248261247d612478846120e5565b61245d565b6120e5565b9050919050565b6000819050919050565b61249c83612467565b6124b06124a882612489565b84845461240b565b825550505050565b600090565b6124c56124b8565b6124d0818484612493565b505050565b5b818110156124f4576124e96000826124bd565b6001810190506124d6565b5050565b601f8211156125395761250a816123d9565b612513846123ee565b81016020851015612522578190505b61253661252e856123ee565b8301826124d5565b50505b505050565b600082821c905092915050565b600061255c6000198460080261253e565b1980831691505092915050565b6000612575838361254b565b9150826002028217905092915050565b61258e82612057565b67ffffffffffffffff8111156125a7576125a6611d30565b5b6125b182546123a8565b6125bc8282856124f8565b600060209050601f8311600181146125ef57600084156125dd578287015190505b6125e78582612569565b86555061264f565b601f1984166125fd866123d9565b60005b8281101561262557848901518255600182019150602085019450602081019050612600565b86831015612642578489015161263e601f89168261254b565b8355505b6001600288020188555050505b505050505050565b600081905092915050565b7f524f4c4531000000000000000000000000000000000000000000000000000000600082015250565b6000612698600583612657565b91506126a382612662565b600582019050919050565b60006126b98261268b565b9150819050919050565b60006126ce82612057565b6126d88185612657565b93506126e8818560208601612073565b80840191505092915050565b600061270082846126c3565b915081905092915050565b7f524f4c4532000000000000000000000000000000000000000000000000000000600082015250565b6000612741600583612657565b915061274c8261270b565b600582019050919050565b600061276282612734565b9150819050919050565b7f524f4c4533000000000000000000000000000000000000000000000000000000600082015250565b60006127a2600583612657565b91506127ad8261276c565b600582019050919050565b60006127c382612795565b9150819050919050565b7f524f4c4534000000000000000000000000000000000000000000000000000000600082015250565b6000612803600583612657565b915061280e826127cd565b600582019050919050565b6000612824826127f6565b9150819050919050565b600082825260208201905092915050565b7f4d656d6265722052657175657374656400000000000000000000000000000000600082015250565b600061287560108361282e565b91506128808261283f565b602082019050919050565b600060208201905081810360008301526128a481612868565b9050919050565b7f4d656d6265722045786973740000000000000000000000000000000000000000600082015250565b60006128e1600c8361282e565b91506128ec826128ab565b602082019050919050565b60006020820190508181036000830152612910816128d4565b9050919050565b600081549050612926816123a8565b9050919050565b81810361293b575050612a13565b61294482612917565b67ffffffffffffffff81111561295d5761295c611d30565b5b61296782546123a8565b6129728282856124f8565b6000601f8311600181146129a1576000841561298f578287015490505b6129998582612569565b865550612a0c565b601f1984166129af876123d9565b96506129ba866123d9565b60005b828110156129e2578489015482556001820191506001850194506020810190506129bd565b868310156129ff57848901546129fb601f89168261254b565b8355505b6001600288020188555050505b5050505050505b565b7f596f75206e65656420746f205265717565737420466972737400000000000000600082015250565b6000612a4b60198361282e565b9150612a5682612a15565b602082019050919050565b60006020820190508181036000830152612a7a81612a3e565b9050919050565b7f596f752063616e277420617070726f6f766520736f6d656f6e652061626f766560008201527f207468616e20796f752e00000000000000000000000000000000000000000000602082015250565b6000612add602a8361282e565b9150612ae882612a81565b604082019050919050565b60006020820190508181036000830152612b0c81612ad0565b9050919050565b7f4e487b7100000000000000000000000000000000000000000000000000000000600052601160045260246000fd5b6000612b4d826120e5565b9150612b58836120e5565b9250828203905081811115612b7057612b6f612b13565b5b92915050565b7f4e487b7100000000000000000000000000000000000000000000000000000000600052603260045260246000fd5b7f4e487b7100000000000000000000000000000000000000000000000000000000600052603160045260246000fdfea2646970667358221220c08ba7df826cdf32c070c878ca6d77aa053134060a637ff67f557e50eff52ec464736f6c63430008100033","opcodes":"PUSH1 0x80 PUSH1 0x40 MSTORE PUSH1 0x0 DUP1 SSTORE PUSH1 0x0 PUSH1 0x1 SSTORE CALLVALUE DUP1 ISZERO PUSH2 0x19 JUMPI PUSH1 0x0 DUP1 REVERT JUMPDEST POP PUSH2 0x2C0A DUP1 PUSH2 0x29 PUSH1 0x0 CODECOPY PUSH1 0x0 RETURN INVALID PUSH1 0x80 PUSH1 0x40 MSTORE PUSH1 0x4 CALLDATASIZE LT PUSH2 0x55 JUMPI PUSH1 0x0 CALLDATALOAD PUSH1 0xE0 SHR DUP1 PUSH4 0x4CD6F25E EQ PUSH2 0x5A JUMPI DUP1 PUSH4 0x64E47536 EQ PUSH2 0x83 JUMPI DUP1 PUSH4 0xA9E10BF2 EQ PUSH2 0xC0 JUMPI DUP1 PUSH4 0xBAFA08C1 EQ PUSH2 0xCA JUMPI DUP1 PUSH4 0xE070DD12 EQ PUSH2 0x107 JUMPI DUP1 PUSH4 0xE473F6CD EQ PUSH2 0x130 JUMPI JUMPDEST PUSH1 0x0 DUP1 REVERT JUMPDEST CALLVALUE DUP1 ISZERO PUSH2 0x66 JUMPI PUSH1 0x0 DUP1 REVERT JUMPDEST POP PUSH2 0x81 PUSH1 0x4 DUP1 CALLDATASIZE SUB DUP2 ADD SWAP1 PUSH2 0x7C SWAP2 SWAP1 PUSH2 0x1EF1 JUMP JUMPDEST PUSH2 0x16D JUMP JUMPDEST STOP JUMPDEST CALLVALUE DUP1 ISZERO PUSH2 0x8F JUMPI PUSH1 0x0 DUP1 REVERT JUMPDEST POP PUSH2 0xAA PUSH1 0x4 DUP1 CALLDATASIZE SUB DUP2 ADD SWAP1 PUSH2 0xA5 SWAP2 SWAP1 PUSH2 0x1FC0 JUMP JUMPDEST PUSH2 0xAE1 JUMP JUMPDEST PUSH1 0x40 MLOAD PUSH2 0xB7 SWAP2 SWAP1 PUSH2 0x1FFC JUMP JUMPDEST PUSH1 0x40 MLOAD DUP1 SWAP2 SUB SWAP1 RETURN JUMPDEST PUSH2 0xC8 PUSH2 0xB4E JUMP JUMPDEST STOP JUMPDEST CALLVALUE DUP1 ISZERO PUSH2 0xD6 JUMPI PUSH1 0x0 DUP1 REVERT JUMPDEST POP PUSH2 0xF1 PUSH1 0x4 DUP1 CALLDATASIZE SUB DUP2 ADD SWAP1 PUSH2 0xEC SWAP2 SWAP1 PUSH2 0x2017 JUMP JUMPDEST PUSH2 0xB50 JUMP JUMPDEST PUSH1 0x40 MLOAD PUSH2 0xFE SWAP2 SWAP1 PUSH2 0x2182 JUMP JUMPDEST PUSH1 0x40 MLOAD DUP1 SWAP2 SUB SWAP1 RETURN JUMPDEST CALLVALUE DUP1 ISZERO PUSH2 0x113 JUMPI PUSH1 0x0 DUP1 REVERT JUMPDEST POP PUSH2 0x12E PUSH1 0x4 DUP1 CALLDATASIZE SUB DUP2 ADD SWAP1 PUSH2 0x129 SWAP2 SWAP1 PUSH2 0x21A4 JUMP JUMPDEST PUSH2 0x1034 JUMP JUMPDEST STOP JUMPDEST CALLVALUE DUP1 ISZERO PUSH2 0x13C JUMPI PUSH1 0x0 DUP1 REVERT JUMPDEST POP PUSH2 0x157 PUSH1 0x4 DUP1 CALLDATASIZE SUB DUP2 ADD SWAP1 PUSH2 0x152 SWAP2 SWAP1 PUSH2 0x21E4 JUMP JUMPDEST PUSH2 0x1766 JUMP JUMPDEST PUSH1 0x40 MLOAD PUSH2 0x164 SWAP2 SWAP1 PUSH2 0x2357 JUMP JUMPDEST PUSH1 0x40 MLOAD DUP1 SWAP2 SUB SWAP1 RETURN JUMPDEST DUP5 PUSH1 0xA PUSH1 0x0 ADD SWAP1 DUP2 PUSH2 0x17F SWAP2 SWAP1 PUSH2 0x2585 JUMP JUMPDEST POP DUP4 PUSH1 0xA PUSH1 0x1 ADD SWAP1 DUP2 PUSH2 0x192 SWAP2 SWAP1 PUSH2 0x2585 JUMP JUMPDEST POP DUP3 PUSH1 0xA PUSH1 0x2 ADD SWAP1 DUP2 PUSH2 0x1A5 SWAP2 SWAP1 PUSH2 0x2585 JUMP JUMPDEST POP DUP2 PUSH1 0xA PUSH1 0x3 ADD PUSH1 0x0 PUSH2 0x100 EXP DUP2 SLOAD DUP2 PUSH20 0xFFFFFFFFFFFFFFFFFFFFFFFFFFFFFFFFFFFFFFFF MUL NOT AND SWAP1 DUP4 PUSH20 0xFFFFFFFFFFFFFFFFFFFFFFFFFFFFFFFFFFFFFFFF AND MUL OR SWAP1 SSTORE POP PUSH1 0x40 MLOAD PUSH1 0x20 ADD PUSH2 0x1F9 SWAP1 PUSH2 0x26AE JUMP JUMPDEST PUSH1 0x40 MLOAD PUSH1 0x20 DUP2 DUP4 SUB SUB DUP2 MSTORE SWAP1 PUSH1 0x40 MSTORE DUP1 MLOAD SWAP1 PUSH1 0x20 ADD KECCAK256 DUP6 PUSH1 0x40 MLOAD PUSH1 0x20 ADD PUSH2 0x220 SWAP2 SWAP1 PUSH2 0x26F4 JUMP JUMPDEST PUSH1 0x40 MLOAD PUSH1 0x20 DUP2 DUP4 SUB SUB DUP2 MSTORE SWAP1 PUSH1 0x40 MSTORE DUP1 MLOAD SWAP1 PUSH1 0x20 ADD KECCAK256 SUB PUSH2 0x24B JUMPI PUSH1 0x1 PUSH1 0xA PUSH1 0x4 ADD DUP2 SWAP1 SSTORE POP PUSH2 0x37D JUMP JUMPDEST PUSH1 0x40 MLOAD PUSH1 0x20 ADD PUSH2 0x25A SWAP1 PUSH2 0x2757 JUMP JUMPDEST PUSH1 0x40 MLOAD PUSH1 0x20 DUP2 DUP4 SUB SUB DUP2 MSTORE SWAP1 PUSH1 0x40 MSTORE DUP1 MLOAD SWAP1 PUSH1 0x20 ADD KECCAK256 DUP6 PUSH1 0x40 MLOAD PUSH1 0x20 ADD PUSH2 0x281 SWAP2 SWAP1 PUSH2 0x26F4 JUMP JUMPDEST PUSH1 0x40 MLOAD PUSH1 0x20 DUP2 DUP4 SUB SUB DUP2 MSTORE SWAP1 PUSH1 0x40 MSTORE DUP1 MLOAD SWAP1 PUSH1 0x20 ADD KECCAK256 SUB PUSH2 0x2AC JUMPI PUSH1 0x2 PUSH1 0xA PUSH1 0x4 ADD DUP2 SWAP1 SSTORE POP PUSH2 0x37C JUMP JUMPDEST PUSH1 0x40 MLOAD PUSH1 0x20 ADD PUSH2 0x2BB SWAP1 PUSH2 0x27B8 JUMP JUMPDEST PUSH1 0x40 MLOAD PUSH1 0x20 DUP2 DUP4 SUB SUB DUP2 MSTORE SWAP1 PUSH1 0x40 MSTORE DUP1 MLOAD SWAP1 PUSH1 0x20 ADD KECCAK256 DUP6 PUSH1 0x40 MLOAD PUSH1 0x20 ADD PUSH2 0x2E2 SWAP2 SWAP1 PUSH2 0x26F4 JUMP JUMPDEST PUSH1 0x40 MLOAD PUSH1 0x20 DUP2 DUP4 SUB SUB DUP2 MSTORE SWAP1 PUSH1 0x40 MSTORE DUP1 MLOAD SWAP1 PUSH1 0x20 ADD KECCAK256 SUB PUSH2 0x30D JUMPI PUSH1 0x3 PUSH1 0xA PUSH1 0x4 ADD DUP2 SWAP1 SSTORE POP PUSH2 0x37B JUMP JUMPDEST PUSH1 0x40 MLOAD PUSH1 0x20 ADD PUSH2 0x31C SWAP1 PUSH2 0x2819 JUMP JUMPDEST PUSH1 0x40 MLOAD PUSH1 0x20 DUP2 DUP4 SUB SUB DUP2 MSTORE SWAP1 PUSH1 0x40 MSTORE DUP1 MLOAD SWAP1 PUSH1 0x20 ADD KECCAK256 DUP6 PUSH1 0x40 MLOAD PUSH1 0x20 ADD PUSH2 0x343 SWAP2 SWAP1 PUSH2 0x26F4 JUMP JUMPDEST PUSH1 0x40 MLOAD PUSH1 0x20 DUP2 DUP4 SUB SUB DUP2 MSTORE SWAP1 PUSH1 0x40 MSTORE DUP1 MLOAD SWAP1 PUSH1 0x20 ADD KECCAK256 SUB PUSH2 0x36E JUMPI PUSH1 0x4 PUSH1 0xA PUSH1 0x4 ADD DUP2 SWAP1 SSTORE POP PUSH2 0x37A JUMP JUMPDEST PUSH1 0x5 PUSH1 0xA PUSH1 0x4 ADD DUP2 SWAP1 SSTORE POP JUMPDEST JUMPDEST JUMPDEST JUMPDEST PUSH1 0x1 ISZERO ISZERO DUP2 ISZERO ISZERO EQ DUP1 ISZERO PUSH2 0x3DB JUMPI POP PUSH1 0x40 MLOAD PUSH1 0x20 ADD PUSH2 0x39B SWAP1 PUSH2 0x26AE JUMP JUMPDEST PUSH1 0x40 MLOAD PUSH1 0x20 DUP2 DUP4 SUB SUB DUP2 MSTORE SWAP1 PUSH1 0x40 MSTORE DUP1 MLOAD SWAP1 PUSH1 0x20 ADD KECCAK256 DUP6 PUSH1 0x40 MLOAD PUSH1 0x20 ADD PUSH2 0x3C2 SWAP2 SWAP1 PUSH2 0x26F4 JUMP JUMPDEST PUSH1 0x40 MLOAD PUSH1 0x20 DUP2 DUP4 SUB SUB DUP2 MSTORE SWAP1 PUSH1 0x40 MSTORE DUP1 MLOAD SWAP1 PUSH1 0x20 ADD KECCAK256 EQ ISZERO JUMPDEST ISZERO PUSH2 0x736 JUMPI PUSH1 0x0 ISZERO ISZERO PUSH1 0x9 PUSH1 0x0 DUP5 PUSH20 0xFFFFFFFFFFFFFFFFFFFFFFFFFFFFFFFFFFFFFFFF AND PUSH20 0xFFFFFFFFFFFFFFFFFFFFFFFFFFFFFFFFFFFFFFFF AND DUP2 MSTORE PUSH1 0x20 ADD SWAP1 DUP2 MSTORE PUSH1 0x20 ADD PUSH1 0x0 KECCAK256 PUSH1 0x0 SWAP1 SLOAD SWAP1 PUSH2 0x100 EXP SWAP1 DIV PUSH1 0xFF AND ISZERO ISZERO EQ PUSH2 0x473 JUMPI PUSH1 0x40 MLOAD PUSH32 0x8C379A000000000000000000000000000000000000000000000000000000000 DUP2 MSTORE PUSH1 0x4 ADD PUSH2 0x46A SWAP1 PUSH2 0x288B JUMP JUMPDEST PUSH1 0x40 MLOAD DUP1 SWAP2 SUB SWAP1 REVERT JUMPDEST PUSH1 0x0 ISZERO ISZERO PUSH1 0x6 PUSH1 0x0 DUP5 PUSH20 0xFFFFFFFFFFFFFFFFFFFFFFFFFFFFFFFFFFFFFFFF AND PUSH20 0xFFFFFFFFFFFFFFFFFFFFFFFFFFFFFFFFFFFFFFFF AND DUP2 MSTORE PUSH1 0x20 ADD SWAP1 DUP2 MSTORE PUSH1 0x20 ADD PUSH1 0x0 KECCAK256 PUSH1 0x0 SWAP1 SLOAD SWAP1 PUSH2 0x100 EXP SWAP1 DIV PUSH1 0xFF AND ISZERO ISZERO EQ PUSH2 0x506 JUMPI PUSH1 0x40 MLOAD PUSH32 0x8C379A000000000000000000000000000000000000000000000000000000000 DUP2 MSTORE PUSH1 0x4 ADD PUSH2 0x4FD SWAP1 PUSH2 0x28F7 JUMP JUMPDEST PUSH1 0x40 MLOAD DUP1 SWAP2 SUB SWAP1 REVERT JUMPDEST PUSH1 0x8 PUSH1 0xA SWAP1 DUP1 PUSH1 0x1 DUP2 SLOAD ADD DUP1 DUP3 SSTORE DUP1 SWAP2 POP POP PUSH1 0x1 SWAP1 SUB SWAP1 PUSH1 0x0 MSTORE PUSH1 0x20 PUSH1 0x0 KECCAK256 SWAP1 PUSH1 0x5 MUL ADD PUSH1 0x0 SWAP1 SWAP2 SWAP1 SWAP2 SWAP1 SWAP2 POP PUSH1 0x0 DUP3 ADD DUP2 PUSH1 0x0 ADD SWAP1 DUP2 PUSH2 0x547 SWAP2 SWAP1 PUSH2 0x292D JUMP JUMPDEST POP PUSH1 0x1 DUP3 ADD DUP2 PUSH1 0x1 ADD SWAP1 DUP2 PUSH2 0x55C SWAP2 SWAP1 PUSH2 0x292D JUMP JUMPDEST POP PUSH1 0x2 DUP3 ADD DUP2 PUSH1 0x2 ADD SWAP1 DUP2 PUSH2 0x571 SWAP2 SWAP1 PUSH2 0x292D JUMP JUMPDEST POP PUSH1 0x3 DUP3 ADD PUSH1 0x0 SWAP1 SLOAD SWAP1 PUSH2 0x100 EXP SWAP1 DIV PUSH20 0xFFFFFFFFFFFFFFFFFFFFFFFFFFFFFFFFFFFFFFFF AND DUP2 PUSH1 0x3 ADD PUSH1 0x0 PUSH2 0x100 EXP DUP2 SLOAD DUP2 PUSH20 0xFFFFFFFFFFFFFFFFFFFFFFFFFFFFFFFFFFFFFFFF MUL NOT AND SWAP1 DUP4 PUSH20 0xFFFFFFFFFFFFFFFFFFFFFFFFFFFFFFFFFFFFFFFF AND MUL OR SWAP1 SSTORE POP PUSH1 0x4 DUP3 ADD SLOAD DUP2 PUSH1 0x4 ADD SSTORE POP POP PUSH1 0xA PUSH1 0x7 PUSH1 0x0 DUP5 PUSH20 0xFFFFFFFFFFFFFFFFFFFFFFFFFFFFFFFFFFFFFFFF AND PUSH20 0xFFFFFFFFFFFFFFFFFFFFFFFFFFFFFFFFFFFFFFFF AND DUP2 MSTORE PUSH1 0x20 ADD SWAP1 DUP2 MSTORE PUSH1 0x20 ADD PUSH1 0x0 KECCAK256 PUSH1 0x0 DUP3 ADD DUP2 PUSH1 0x0 ADD SWAP1 DUP2 PUSH2 0x63A SWAP2 SWAP1 PUSH2 0x292D JUMP JUMPDEST POP PUSH1 0x1 DUP3 ADD DUP2 PUSH1 0x1 ADD SWAP1 DUP2 PUSH2 0x64F SWAP2 SWAP1 PUSH2 0x292D JUMP JUMPDEST POP PUSH1 0x2 DUP3 ADD DUP2 PUSH1 0x2 ADD SWAP1 DUP2 PUSH2 0x664 SWAP2 SWAP1 PUSH2 0x292D JUMP JUMPDEST POP PUSH1 0x3 DUP3 ADD PUSH1 0x0 SWAP1 SLOAD SWAP1 PUSH2 0x100 EXP SWAP1 DIV PUSH20 0xFFFFFFFFFFFFFFFFFFFFFFFFFFFFFFFFFFFFFFFF AND DUP2 PUSH1 0x3 ADD PUSH1 0x0 PUSH2 0x100 EXP DUP2 SLOAD DUP2 PUSH20 0xFFFFFFFFFFFFFFFFFFFFFFFFFFFFFFFFFFFFFFFF MUL NOT AND SWAP1 DUP4 PUSH20 0xFFFFFFFFFFFFFFFFFFFFFFFFFFFFFFFFFFFFFFFF AND MUL OR SWAP1 SSTORE POP PUSH1 0x4 DUP3 ADD SLOAD DUP2 PUSH1 0x4 ADD SSTORE SWAP1 POP POP PUSH1 0x1 PUSH1 0x9 PUSH1 0x0 DUP5 PUSH20 0xFFFFFFFFFFFFFFFFFFFFFFFFFFFFFFFFFFFFFFFF AND PUSH20 0xFFFFFFFFFFFFFFFFFFFFFFFFFFFFFFFFFFFFFFFF AND DUP2 MSTORE PUSH1 0x20 ADD SWAP1 DUP2 MSTORE PUSH1 0x20 ADD PUSH1 0x0 KECCAK256 PUSH1 0x0 PUSH2 0x100 EXP DUP2 SLOAD DUP2 PUSH1 0xFF MUL NOT AND SWAP1 DUP4 ISZERO ISZERO MUL OR SWAP1 SSTORE POP PUSH2 0xADA JUMP JUMPDEST PUSH1 0x40 MLOAD PUSH1 0x20 ADD PUSH2 0x745 SWAP1 PUSH2 0x26AE JUMP JUMPDEST PUSH1 0x40 MLOAD PUSH1 0x20 DUP2 DUP4 SUB SUB DUP2 MSTORE SWAP1 PUSH1 0x40 MSTORE DUP1 MLOAD SWAP1 PUSH1 0x20 ADD KECCAK256 DUP6 PUSH1 0x40 MLOAD PUSH1 0x20 ADD PUSH2 0x76C SWAP2 SWAP1 PUSH2 0x26F4 JUMP JUMPDEST PUSH1 0x40 MLOAD PUSH1 0x20 DUP2 DUP4 SUB SUB DUP2 MSTORE SWAP1 PUSH1 0x40 MSTORE DUP1 MLOAD SWAP1 PUSH1 0x20 ADD KECCAK256 EQ PUSH2 0x81B JUMPI PUSH1 0x1 ISZERO ISZERO PUSH1 0x9 PUSH1 0x0 DUP5 PUSH20 0xFFFFFFFFFFFFFFFFFFFFFFFFFFFFFFFFFFFFFFFF AND PUSH20 0xFFFFFFFFFFFFFFFFFFFFFFFFFFFFFFFFFFFFFFFF AND DUP2 MSTORE PUSH1 0x20 ADD SWAP1 DUP2 MSTORE PUSH1 0x20 ADD PUSH1 0x0 KECCAK256 PUSH1 0x0 SWAP1 SLOAD SWAP1 PUSH2 0x100 EXP SWAP1 DIV PUSH1 0xFF AND ISZERO ISZERO EQ PUSH2 0x81A JUMPI PUSH1 0x40 MLOAD PUSH32 0x8C379A000000000000000000000000000000000000000000000000000000000 DUP2 MSTORE PUSH1 0x4 ADD PUSH2 0x811 SWAP1 PUSH2 0x2A61 JUMP JUMPDEST PUSH1 0x40 MLOAD DUP1 SWAP2 SUB SWAP1 REVERT JUMPDEST JUMPDEST PUSH1 0x0 ISZERO ISZERO PUSH1 0x6 PUSH1 0x0 DUP5 PUSH20 0xFFFFFFFFFFFFFFFFFFFFFFFFFFFFFFFFFFFFFFFF AND PUSH20 0xFFFFFFFFFFFFFFFFFFFFFFFFFFFFFFFFFFFFFFFF AND DUP2 MSTORE PUSH1 0x20 ADD SWAP1 DUP2 MSTORE PUSH1 0x20 ADD PUSH1 0x0 KECCAK256 PUSH1 0x0 SWAP1 SLOAD SWAP1 PUSH2 0x100 EXP SWAP1 DIV PUSH1 0xFF AND ISZERO ISZERO EQ PUSH2 0x8AE JUMPI PUSH1 0x40 MLOAD PUSH32 0x8C379A000000000000000000000000000000000000000000000000000000000 DUP2 MSTORE PUSH1 0x4 ADD PUSH2 0x8A5 SWAP1 PUSH2 0x28F7 JUMP JUMPDEST PUSH1 0x40 MLOAD DUP1 SWAP2 SUB SWAP1 REVERT JUMPDEST PUSH1 0x5 PUSH1 0xA SWAP1 DUP1 PUSH1 0x1 DUP2 SLOAD ADD DUP1 DUP3 SSTORE DUP1 SWAP2 POP POP PUSH1 0x1 SWAP1 SUB SWAP1 PUSH1 0x0 MSTORE PUSH1 0x20 PUSH1 0x0 KECCAK256 SWAP1 PUSH1 0x5 MUL ADD PUSH1 0x0 SWAP1 SWAP2 SWAP1 SWAP2 SWAP1 SWAP2 POP PUSH1 0x0 DUP3 ADD DUP2 PUSH1 0x0 ADD SWAP1 DUP2 PUSH2 0x8EF SWAP2 SWAP1 PUSH2 0x292D JUMP JUMPDEST POP PUSH1 0x1 DUP3 ADD DUP2 PUSH1 0x1 ADD SWAP1 DUP2 PUSH2 0x904 SWAP2 SWAP1 PUSH2 0x292D JUMP JUMPDEST POP PUSH1 0x2 DUP3 ADD DUP2 PUSH1 0x2 ADD SWAP1 DUP2 PUSH2 0x919 SWAP2 SWAP1 PUSH2 0x292D JUMP JUMPDEST POP PUSH1 0x3 DUP3 ADD PUSH1 0x0 SWAP1 SLOAD SWAP1 PUSH2 0x100 EXP SWAP1 DIV PUSH20 0xFFFFFFFFFFFFFFFFFFFFFFFFFFFFFFFFFFFFFFFF AND DUP2 PUSH1 0x3 ADD PUSH1 0x0 PUSH2 0x100 EXP DUP2 SLOAD DUP2 PUSH20 0xFFFFFFFFFFFFFFFFFFFFFFFFFFFFFFFFFFFFFFFF MUL NOT AND SWAP1 DUP4 PUSH20 0xFFFFFFFFFFFFFFFFFFFFFFFFFFFFFFFFFFFFFFFF AND MUL OR SWAP1 SSTORE POP PUSH1 0x4 DUP3 ADD SLOAD DUP2 PUSH1 0x4 ADD SSTORE POP POP PUSH1 0xA PUSH1 0x4 PUSH1 0x0 DUP5 PUSH20 0xFFFFFFFFFFFFFFFFFFFFFFFFFFFFFFFFFFFFFFFF AND PUSH20 0xFFFFFFFFFFFFFFFFFFFFFFFFFFFFFFFFFFFFFFFF AND DUP2 MSTORE PUSH1 0x20 ADD SWAP1 DUP2 MSTORE PUSH1 0x20 ADD PUSH1 0x0 KECCAK256 PUSH1 0x0 DUP3 ADD DUP2 PUSH1 0x0 ADD SWAP1 DUP2 PUSH2 0x9E2 SWAP2 SWAP1 PUSH2 0x292D JUMP JUMPDEST POP PUSH1 0x1 DUP3 ADD DUP2 PUSH1 0x1 ADD SWAP1 DUP2 PUSH2 0x9F7 SWAP2 SWAP1 PUSH2 0x292D JUMP JUMPDEST POP PUSH1 0x2 DUP3 ADD DUP2 PUSH1 0x2 ADD SWAP1 DUP2 PUSH2 0xA0C SWAP2 SWAP1 PUSH2 0x292D JUMP JUMPDEST POP PUSH1 0x3 DUP3 ADD PUSH1 0x0 SWAP1 SLOAD SWAP1 PUSH2 0x100 EXP SWAP1 DIV PUSH20 0xFFFFFFFFFFFFFFFFFFFFFFFFFFFFFFFFFFFFFFFF AND DUP2 PUSH1 0x3 ADD PUSH1 0x0 PUSH2 0x100 EXP DUP2 SLOAD DUP2 PUSH20 0xFFFFFFFFFFFFFFFFFFFFFFFFFFFFFFFFFFFFFFFF MUL NOT AND SWAP1 DUP4 PUSH20 0xFFFFFFFFFFFFFFFFFFFFFFFFFFFFFFFFFFFFFFFF AND MUL OR SWAP1 SSTORE POP PUSH1 0x4 DUP3 ADD SLOAD DUP2 PUSH1 0x4 ADD SSTORE SWAP1 POP POP PUSH1 0x1 PUSH1 0x6 PUSH1 0x0 DUP5 PUSH20 0xFFFFFFFFFFFFFFFFFFFFFFFFFFFFFFFFFFFFFFFF AND PUSH20 0xFFFFFFFFFFFFFFFFFFFFFFFFFFFFFFFFFFFFFFFF AND DUP2 MSTORE PUSH1 0x20 ADD SWAP1 DUP2 MSTORE PUSH1 0x20 ADD PUSH1 0x0 KECCAK256 PUSH1 0x0 PUSH2 0x100 EXP DUP2 SLOAD DUP2 PUSH1 0xFF MUL NOT AND SWAP1 DUP4 ISZERO ISZERO MUL OR SWAP1 SSTORE POP JUMPDEST POP POP POP POP POP JUMP JUMPDEST PUSH1 0x0 PUSH1 0x1 ISZERO ISZERO PUSH1 0x6 PUSH1 0x0 DUP5 PUSH20 0xFFFFFFFFFFFFFFFFFFFFFFFFFFFFFFFFFFFFFFFF AND PUSH20 0xFFFFFFFFFFFFFFFFFFFFFFFFFFFFFFFFFFFFFFFF AND DUP2 MSTORE PUSH1 0x20 ADD SWAP1 DUP2 MSTORE PUSH1 0x20 ADD PUSH1 0x0 KECCAK256 PUSH1 0x0 SWAP1 SLOAD SWAP1 PUSH2 0x100 EXP SWAP1 DIV PUSH1 0xFF AND ISZERO ISZERO SUB PUSH2 0xB44 JUMPI PUSH1 0x1 SWAP1 POP PUSH2 0xB49 JUMP JUMPDEST PUSH1 0x0 SWAP1 POP JUMPDEST SWAP2 SWAP1 POP JUMP JUMPDEST JUMP JUMPDEST PUSH2 0xB58 PUSH2 0x1C5F JUMP JUMPDEST PUSH1 0x1 ISZERO ISZERO DUP3 ISZERO ISZERO SUB PUSH2 0xDCB JUMPI PUSH1 0x7 PUSH1 0x0 DUP5 PUSH20 0xFFFFFFFFFFFFFFFFFFFFFFFFFFFFFFFFFFFFFFFF AND PUSH20 0xFFFFFFFFFFFFFFFFFFFFFFFFFFFFFFFFFFFFFFFF AND DUP2 MSTORE PUSH1 0x20 ADD SWAP1 DUP2 MSTORE PUSH1 0x20 ADD PUSH1 0x0 KECCAK256 PUSH1 0x40 MLOAD DUP1 PUSH1 0xA0 ADD PUSH1 0x40 MSTORE SWAP1 DUP2 PUSH1 0x0 DUP3 ADD DUP1 SLOAD PUSH2 0xBBE SWAP1 PUSH2 0x23A8 JUMP JUMPDEST DUP1 PUSH1 0x1F ADD PUSH1 0x20 DUP1 SWAP2 DIV MUL PUSH1 0x20 ADD PUSH1 0x40 MLOAD SWAP1 DUP2 ADD PUSH1 0x40 MSTORE DUP1 SWAP3 SWAP2 SWAP1 DUP2 DUP2 MSTORE PUSH1 0x20 ADD DUP3 DUP1 SLOAD PUSH2 0xBEA SWAP1 PUSH2 0x23A8 JUMP JUMPDEST DUP1 ISZERO PUSH2 0xC37 JUMPI DUP1 PUSH1 0x1F LT PUSH2 0xC0C JUMPI PUSH2 0x100 DUP1 DUP4 SLOAD DIV MUL DUP4 MSTORE SWAP2 PUSH1 0x20 ADD SWAP2 PUSH2 0xC37 JUMP JUMPDEST DUP3 ADD SWAP2 SWAP1 PUSH1 0x0 MSTORE PUSH1 0x20 PUSH1 0x0 KECCAK256 SWAP1 JUMPDEST DUP2 SLOAD DUP2 MSTORE SWAP1 PUSH1 0x1 ADD SWAP1 PUSH1 0x20 ADD DUP1 DUP4 GT PUSH2 0xC1A JUMPI DUP3 SWAP1 SUB PUSH1 0x1F AND DUP3 ADD SWAP2 JUMPDEST POP POP POP POP POP DUP2 MSTORE PUSH1 0x20 ADD PUSH1 0x1 DUP3 ADD DUP1 SLOAD PUSH2 0xC50 SWAP1 PUSH2 0x23A8 JUMP JUMPDEST DUP1 PUSH1 0x1F ADD PUSH1 0x20 DUP1 SWAP2 DIV MUL PUSH1 0x20 ADD PUSH1 0x40 MLOAD SWAP1 DUP2 ADD PUSH1 0x40 MSTORE DUP1 SWAP3 SWAP2 SWAP1 DUP2 DUP2 MSTORE PUSH1 0x20 ADD DUP3 DUP1 SLOAD PUSH2 0xC7C SWAP1 PUSH2 0x23A8 JUMP JUMPDEST DUP1 ISZERO PUSH2 0xCC9 JUMPI DUP1 PUSH1 0x1F LT PUSH2 0xC9E JUMPI PUSH2 0x100 DUP1 DUP4 SLOAD DIV MUL DUP4 MSTORE SWAP2 PUSH1 0x20 ADD SWAP2 PUSH2 0xCC9 JUMP JUMPDEST DUP3 ADD SWAP2 SWAP1 PUSH1 0x0 MSTORE PUSH1 0x20 PUSH1 0x0 KECCAK256 SWAP1 JUMPDEST DUP2 SLOAD DUP2 MSTORE SWAP1 PUSH1 0x1 ADD SWAP1 PUSH1 0x20 ADD DUP1 DUP4 GT PUSH2 0xCAC JUMPI DUP3 SWAP1 SUB PUSH1 0x1F AND DUP3 ADD SWAP2 JUMPDEST POP POP POP POP POP DUP2 MSTORE PUSH1 0x20 ADD PUSH1 0x2 DUP3 ADD DUP1 SLOAD PUSH2 0xCE2 SWAP1 PUSH2 0x23A8 JUMP JUMPDEST DUP1 PUSH1 0x1F ADD PUSH1 0x20 DUP1 SWAP2 DIV MUL PUSH1 0x20 ADD PUSH1 0x40 MLOAD SWAP1 DUP2 ADD PUSH1 0x40 MSTORE DUP1 SWAP3 SWAP2 SWAP1 DUP2 DUP2 MSTORE PUSH1 0x20 ADD DUP3 DUP1 SLOAD PUSH2 0xD0E SWAP1 PUSH2 0x23A8 JUMP JUMPDEST DUP1 ISZERO PUSH2 0xD5B JUMPI DUP1 PUSH1 0x1F LT PUSH2 0xD30 JUMPI PUSH2 0x100 DUP1 DUP4 SLOAD DIV MUL DUP4 MSTORE SWAP2 PUSH1 0x20 ADD SWAP2 PUSH2 0xD5B JUMP JUMPDEST DUP3 ADD SWAP2 SWAP1 PUSH1 0x0 MSTORE PUSH1 0x20 PUSH1 0x0 KECCAK256 SWAP1 JUMPDEST DUP2 SLOAD DUP2 MSTORE SWAP1 PUSH1 0x1 ADD SWAP1 PUSH1 0x20 ADD DUP1 DUP4 GT PUSH2 0xD3E JUMPI DUP3 SWAP1 SUB PUSH1 0x1F AND DUP3 ADD SWAP2 JUMPDEST POP POP POP POP POP DUP2 MSTORE PUSH1 0x20 ADD PUSH1 0x3 DUP3 ADD PUSH1 0x0 SWAP1 SLOAD SWAP1 PUSH2 0x100 EXP SWAP1 DIV PUSH20 0xFFFFFFFFFFFFFFFFFFFFFFFFFFFFFFFFFFFFFFFF AND PUSH20 0xFFFFFFFFFFFFFFFFFFFFFFFFFFFFFFFFFFFFFFFF AND PUSH20 0xFFFFFFFFFFFFFFFFFFFFFFFFFFFFFFFFFFFFFFFF AND DUP2 MSTORE PUSH1 0x20 ADD PUSH1 0x4 DUP3 ADD SLOAD DUP2 MSTORE POP POP SWAP1 POP PUSH2 0x102E JUMP JUMPDEST PUSH1 0x4 PUSH1 0x0 DUP5 PUSH20 0xFFFFFFFFFFFFFFFFFFFFFFFFFFFFFFFFFFFFFFFF AND PUSH20 0xFFFFFFFFFFFFFFFFFFFFFFFFFFFFFFFFFFFFFFFF AND DUP2 MSTORE PUSH1 0x20 ADD SWAP1 DUP2 MSTORE PUSH1 0x20 ADD PUSH1 0x0 KECCAK256 PUSH1 0x40 MLOAD DUP1 PUSH1 0xA0 ADD PUSH1 0x40 MSTORE SWAP1 DUP2 PUSH1 0x0 DUP3 ADD DUP1 SLOAD PUSH2 0xE25 SWAP1 PUSH2 0x23A8 JUMP JUMPDEST DUP1 PUSH1 0x1F ADD PUSH1 0x20 DUP1 SWAP2 DIV MUL PUSH1 0x20 ADD PUSH1 0x40 MLOAD SWAP1 DUP2 ADD PUSH1 0x40 MSTORE DUP1 SWAP3 SWAP2 SWAP1 DUP2 DUP2 MSTORE PUSH1 0x20 ADD DUP3 DUP1 SLOAD PUSH2 0xE51 SWAP1 PUSH2 0x23A8 JUMP JUMPDEST DUP1 ISZERO PUSH2 0xE9E JUMPI DUP1 PUSH1 0x1F LT PUSH2 0xE73 JUMPI PUSH2 0x100 DUP1 DUP4 SLOAD DIV MUL DUP4 MSTORE SWAP2 PUSH1 0x20 ADD SWAP2 PUSH2 0xE9E JUMP JUMPDEST DUP3 ADD SWAP2 SWAP1 PUSH1 0x0 MSTORE PUSH1 0x20 PUSH1 0x0 KECCAK256 SWAP1 JUMPDEST DUP2 SLOAD DUP2 MSTORE SWAP1 PUSH1 0x1 ADD SWAP1 PUSH1 0x20 ADD DUP1 DUP4 GT PUSH2 0xE81 JUMPI DUP3 SWAP1 SUB PUSH1 0x1F AND DUP3 ADD SWAP2 JUMPDEST POP POP POP POP POP DUP2 MSTORE PUSH1 0x20 ADD PUSH1 0x1 DUP3 ADD DUP1 SLOAD PUSH2 0xEB7 SWAP1 PUSH2 0x23A8 JUMP JUMPDEST DUP1 PUSH1 0x1F ADD PUSH1 0x20 DUP1 SWAP2 DIV MUL PUSH1 0x20 ADD PUSH1 0x40 MLOAD SWAP1 DUP2 ADD PUSH1 0x40 MSTORE DUP1 SWAP3 SWAP2 SWAP1 DUP2 DUP2 MSTORE PUSH1 0x20 ADD DUP3 DUP1 SLOAD PUSH2 0xEE3 SWAP1 PUSH2 0x23A8 JUMP JUMPDEST DUP1 ISZERO PUSH2 0xF30 JUMPI DUP1 PUSH1 0x1F LT PUSH2 0xF05 JUMPI PUSH2 0x100 DUP1 DUP4 SLOAD DIV MUL DUP4 MSTORE SWAP2 PUSH1 0x20 ADD SWAP2 PUSH2 0xF30 JUMP JUMPDEST DUP3 ADD SWAP2 SWAP1 PUSH1 0x0 MSTORE PUSH1 0x20 PUSH1 0x0 KECCAK256 SWAP1 JUMPDEST DUP2 SLOAD DUP2 MSTORE SWAP1 PUSH1 0x1 ADD SWAP1 PUSH1 0x20 ADD DUP1 DUP4 GT PUSH2 0xF13 JUMPI DUP3 SWAP1 SUB PUSH1 0x1F AND DUP3 ADD SWAP2 JUMPDEST POP POP POP POP POP DUP2 MSTORE PUSH1 0x20 ADD PUSH1 0x2 DUP3 ADD DUP1 SLOAD PUSH2 0xF49 SWAP1 PUSH2 0x23A8 JUMP JUMPDEST DUP1 PUSH1 0x1F ADD PUSH1 0x20 DUP1 SWAP2 DIV MUL PUSH1 0x20 ADD PUSH1 0x40 MLOAD SWAP1 DUP2 ADD PUSH1 0x40 MSTORE DUP1 SWAP3 SWAP2 SWAP1 DUP2 DUP2 MSTORE PUSH1 0x20 ADD DUP3 DUP1 SLOAD PUSH2 0xF75 SWAP1 PUSH2 0x23A8 JUMP JUMPDEST DUP1 ISZERO PUSH2 0xFC2 JUMPI DUP1 PUSH1 0x1F LT PUSH2 0xF97 JUMPI PUSH2 0x100 DUP1 DUP4 SLOAD DIV MUL DUP4 MSTORE SWAP2 PUSH1 0x20 ADD SWAP2 PUSH2 0xFC2 JUMP JUMPDEST DUP3 ADD SWAP2 SWAP1 PUSH1 0x0 MSTORE PUSH1 0x20 PUSH1 0x0 KECCAK256 SWAP1 JUMPDEST DUP2 SLOAD DUP2 MSTORE SWAP1 PUSH1 0x1 ADD SWAP1 PUSH1 0x20 ADD DUP1 DUP4 GT PUSH2 0xFA5 JUMPI DUP3 SWAP1 SUB PUSH1 0x1F AND DUP3 ADD SWAP2 JUMPDEST POP POP POP POP POP DUP2 MSTORE PUSH1 0x20 ADD PUSH1 0x3 DUP3 ADD PUSH1 0x0 SWAP1 SLOAD SWAP1 PUSH2 0x100 EXP SWAP1 DIV PUSH20 0xFFFFFFFFFFFFFFFFFFFFFFFFFFFFFFFFFFFFFFFF AND PUSH20 0xFFFFFFFFFFFFFFFFFFFFFFFFFFFFFFFFFFFFFFFF AND PUSH20 0xFFFFFFFFFFFFFFFFFFFFFFFFFFFFFFFFFFFFFFFF AND DUP2 MSTORE PUSH1 0x20 ADD PUSH1 0x4 DUP3 ADD SLOAD DUP2 MSTORE POP POP SWAP1 POP JUMPDEST SWAP3 SWAP2 POP POP JUMP JUMPDEST PUSH1 0x0 PUSH1 0x7 PUSH1 0x0 DUP5 PUSH20 0xFFFFFFFFFFFFFFFFFFFFFFFFFFFFFFFFFFFFFFFF AND PUSH20 0xFFFFFFFFFFFFFFFFFFFFFFFFFFFFFFFFFFFFFFFF AND DUP2 MSTORE PUSH1 0x20 ADD SWAP1 DUP2 MSTORE PUSH1 0x20 ADD PUSH1 0x0 KECCAK256 PUSH1 0x40 MLOAD DUP1 PUSH1 0xA0 ADD PUSH1 0x40 MSTORE SWAP1 DUP2 PUSH1 0x0 DUP3 ADD DUP1 SLOAD PUSH2 0x1090 SWAP1 PUSH2 0x23A8 JUMP JUMPDEST DUP1 PUSH1 0x1F ADD PUSH1 0x20 DUP1 SWAP2 DIV MUL PUSH1 0x20 ADD PUSH1 0x40 MLOAD SWAP1 DUP2 ADD PUSH1 0x40 MSTORE DUP1 SWAP3 SWAP2 SWAP1 DUP2 DUP2 MSTORE PUSH1 0x20 ADD DUP3 DUP1 SLOAD PUSH2 0x10BC SWAP1 PUSH2 0x23A8 JUMP JUMPDEST DUP1 ISZERO PUSH2 0x1109 JUMPI DUP1 PUSH1 0x1F LT PUSH2 0x10DE JUMPI PUSH2 0x100 DUP1 DUP4 SLOAD DIV MUL DUP4 MSTORE SWAP2 PUSH1 0x20 ADD SWAP2 PUSH2 0x1109 JUMP JUMPDEST DUP3 ADD SWAP2 SWAP1 PUSH1 0x0 MSTORE PUSH1 0x20 PUSH1 0x0 KECCAK256 SWAP1 JUMPDEST DUP2 SLOAD DUP2 MSTORE SWAP1 PUSH1 0x1 ADD SWAP1 PUSH1 0x20 ADD DUP1 DUP4 GT PUSH2 0x10EC JUMPI DUP3 SWAP1 SUB PUSH1 0x1F AND DUP3 ADD SWAP2 JUMPDEST POP POP POP POP POP DUP2 MSTORE PUSH1 0x20 ADD PUSH1 0x1 DUP3 ADD DUP1 SLOAD PUSH2 0x1122 SWAP1 PUSH2 0x23A8 JUMP JUMPDEST DUP1 PUSH1 0x1F ADD PUSH1 0x20 DUP1 SWAP2 DIV MUL PUSH1 0x20 ADD PUSH1 0x40 MLOAD SWAP1 DUP2 ADD PUSH1 0x40 MSTORE DUP1 SWAP3 SWAP2 SWAP1 DUP2 DUP2 MSTORE PUSH1 0x20 ADD DUP3 DUP1 SLOAD PUSH2 0x114E SWAP1 PUSH2 0x23A8 JUMP JUMPDEST DUP1 ISZERO PUSH2 0x119B JUMPI DUP1 PUSH1 0x1F LT PUSH2 0x1170 JUMPI PUSH2 0x100 DUP1 DUP4 SLOAD DIV MUL DUP4 MSTORE SWAP2 PUSH1 0x20 ADD SWAP2 PUSH2 0x119B JUMP JUMPDEST DUP3 ADD SWAP2 SWAP1 PUSH1 0x0 MSTORE PUSH1 0x20 PUSH1 0x0 KECCAK256 SWAP1 JUMPDEST DUP2 SLOAD DUP2 MSTORE SWAP1 PUSH1 0x1 ADD SWAP1 PUSH1 0x20 ADD DUP1 DUP4 GT PUSH2 0x117E JUMPI DUP3 SWAP1 SUB PUSH1 0x1F AND DUP3 ADD SWAP2 JUMPDEST POP POP POP POP POP DUP2 MSTORE PUSH1 0x20 ADD PUSH1 0x2 DUP3 ADD DUP1 SLOAD PUSH2 0x11B4 SWAP1 PUSH2 0x23A8 JUMP JUMPDEST DUP1 PUSH1 0x1F ADD PUSH1 0x20 DUP1 SWAP2 DIV MUL PUSH1 0x20 ADD PUSH1 0x40 MLOAD SWAP1 DUP2 ADD PUSH1 0x40 MSTORE DUP1 SWAP3 SWAP2 SWAP1 DUP2 DUP2 MSTORE PUSH1 0x20 ADD DUP3 DUP1 SLOAD PUSH2 0x11E0 SWAP1 PUSH2 0x23A8 JUMP JUMPDEST DUP1 ISZERO PUSH2 0x122D JUMPI DUP1 PUSH1 0x1F LT PUSH2 0x1202 JUMPI PUSH2 0x100 DUP1 DUP4 SLOAD DIV MUL DUP4 MSTORE SWAP2 PUSH1 0x20 ADD SWAP2 PUSH2 0x122D JUMP JUMPDEST DUP3 ADD SWAP2 SWAP1 PUSH1 0x0 MSTORE PUSH1 0x20 PUSH1 0x0 KECCAK256 SWAP1 JUMPDEST DUP2 SLOAD DUP2 MSTORE SWAP1 PUSH1 0x1 ADD SWAP1 PUSH1 0x20 ADD DUP1 DUP4 GT PUSH2 0x1210 JUMPI DUP3 SWAP1 SUB PUSH1 0x1F AND DUP3 ADD SWAP2 JUMPDEST POP POP POP POP POP DUP2 MSTORE PUSH1 0x20 ADD PUSH1 0x3 DUP3 ADD PUSH1 0x0 SWAP1 SLOAD SWAP1 PUSH2 0x100 EXP SWAP1 DIV PUSH20 0xFFFFFFFFFFFFFFFFFFFFFFFFFFFFFFFFFFFFFFFF AND PUSH20 0xFFFFFFFFFFFFFFFFFFFFFFFFFFFFFFFFFFFFFFFF AND PUSH20 0xFFFFFFFFFFFFFFFFFFFFFFFFFFFFFFFFFFFFFFFF AND DUP2 MSTORE PUSH1 0x20 ADD PUSH1 0x4 DUP3 ADD SLOAD DUP2 MSTORE POP POP SWAP1 POP PUSH1 0x0 PUSH1 0x4 PUSH1 0x0 DUP5 PUSH20 0xFFFFFFFFFFFFFFFFFFFFFFFFFFFFFFFFFFFFFFFF AND PUSH20 0xFFFFFFFFFFFFFFFFFFFFFFFFFFFFFFFFFFFFFFFF AND DUP2 MSTORE PUSH1 0x20 ADD SWAP1 DUP2 MSTORE PUSH1 0x20 ADD PUSH1 0x0 KECCAK256 PUSH1 0x40 MLOAD DUP1 PUSH1 0xA0 ADD PUSH1 0x40 MSTORE SWAP1 DUP2 PUSH1 0x0 DUP3 ADD DUP1 SLOAD PUSH2 0x12F4 SWAP1 PUSH2 0x23A8 JUMP JUMPDEST DUP1 PUSH1 0x1F ADD PUSH1 0x20 DUP1 SWAP2 DIV MUL PUSH1 0x20 ADD PUSH1 0x40 MLOAD SWAP1 DUP2 ADD PUSH1 0x40 MSTORE DUP1 SWAP3 SWAP2 SWAP1 DUP2 DUP2 MSTORE PUSH1 0x20 ADD DUP3 DUP1 SLOAD PUSH2 0x1320 SWAP1 PUSH2 0x23A8 JUMP JUMPDEST DUP1 ISZERO PUSH2 0x136D JUMPI DUP1 PUSH1 0x1F LT PUSH2 0x1342 JUMPI PUSH2 0x100 DUP1 DUP4 SLOAD DIV MUL DUP4 MSTORE SWAP2 PUSH1 0x20 ADD SWAP2 PUSH2 0x136D JUMP JUMPDEST DUP3 ADD SWAP2 SWAP1 PUSH1 0x0 MSTORE PUSH1 0x20 PUSH1 0x0 KECCAK256 SWAP1 JUMPDEST DUP2 SLOAD DUP2 MSTORE SWAP1 PUSH1 0x1 ADD SWAP1 PUSH1 0x20 ADD DUP1 DUP4 GT PUSH2 0x1350 JUMPI DUP3 SWAP1 SUB PUSH1 0x1F AND DUP3 ADD SWAP2 JUMPDEST POP POP POP POP POP DUP2 MSTORE PUSH1 0x20 ADD PUSH1 0x1 DUP3 ADD DUP1 SLOAD PUSH2 0x1386 SWAP1 PUSH2 0x23A8 JUMP JUMPDEST DUP1 PUSH1 0x1F ADD PUSH1 0x20 DUP1 SWAP2 DIV MUL PUSH1 0x20 ADD PUSH1 0x40 MLOAD SWAP1 DUP2 ADD PUSH1 0x40 MSTORE DUP1 SWAP3 SWAP2 SWAP1 DUP2 DUP2 MSTORE PUSH1 0x20 ADD DUP3 DUP1 SLOAD PUSH2 0x13B2 SWAP1 PUSH2 0x23A8 JUMP JUMPDEST DUP1 ISZERO PUSH2 0x13FF JUMPI DUP1 PUSH1 0x1F LT PUSH2 0x13D4 JUMPI PUSH2 0x100 DUP1 DUP4 SLOAD DIV MUL DUP4 MSTORE SWAP2 PUSH1 0x20 ADD SWAP2 PUSH2 0x13FF JUMP JUMPDEST DUP3 ADD SWAP2 SWAP1 PUSH1 0x0 MSTORE PUSH1 0x20 PUSH1 0x0 KECCAK256 SWAP1 JUMPDEST DUP2 SLOAD DUP2 MSTORE SWAP1 PUSH1 0x1 ADD SWAP1 PUSH1 0x20 ADD DUP1 DUP4 GT PUSH2 0x13E2 JUMPI DUP3 SWAP1 SUB PUSH1 0x1F AND DUP3 ADD SWAP2 JUMPDEST POP POP POP POP POP DUP2 MSTORE PUSH1 0x20 ADD PUSH1 0x2 DUP3 ADD DUP1 SLOAD PUSH2 0x1418 SWAP1 PUSH2 0x23A8 JUMP JUMPDEST DUP1 PUSH1 0x1F ADD PUSH1 0x20 DUP1 SWAP2 DIV MUL PUSH1 0x20 ADD PUSH1 0x40 MLOAD SWAP1 DUP2 ADD PUSH1 0x40 MSTORE DUP1 SWAP3 SWAP2 SWAP1 DUP2 DUP2 MSTORE PUSH1 0x20 ADD DUP3 DUP1 SLOAD PUSH2 0x1444 SWAP1 PUSH2 0x23A8 JUMP JUMPDEST DUP1 ISZERO PUSH2 0x1491 JUMPI DUP1 PUSH1 0x1F LT PUSH2 0x1466 JUMPI PUSH2 0x100 DUP1 DUP4 SLOAD DIV MUL DUP4 MSTORE SWAP2 PUSH1 0x20 ADD SWAP2 PUSH2 0x1491 JUMP JUMPDEST DUP3 ADD SWAP2 SWAP1 PUSH1 0x0 MSTORE PUSH1 0x20 PUSH1 0x0 KECCAK256 SWAP1 JUMPDEST DUP2 SLOAD DUP2 MSTORE SWAP1 PUSH1 0x1 ADD SWAP1 PUSH1 0x20 ADD DUP1 DUP4 GT PUSH2 0x1474 JUMPI DUP3 SWAP1 SUB PUSH1 0x1F AND DUP3 ADD SWAP2 JUMPDEST POP POP POP POP POP DUP2 MSTORE PUSH1 0x20 ADD PUSH1 0x3 DUP3 ADD PUSH1 0x0 SWAP1 SLOAD SWAP1 PUSH2 0x100 EXP SWAP1 DIV PUSH20 0xFFFFFFFFFFFFFFFFFFFFFFFFFFFFFFFFFFFFFFFF AND PUSH20 0xFFFFFFFFFFFFFFFFFFFFFFFFFFFFFFFFFFFFFFFF AND PUSH20 0xFFFFFFFFFFFFFFFFFFFFFFFFFFFFFFFFFFFFFFFF AND DUP2 MSTORE PUSH1 0x20 ADD PUSH1 0x4 DUP3 ADD SLOAD DUP2 MSTORE POP POP SWAP1 POP PUSH1 0x0 DUP3 PUSH1 0x0 ADD MLOAD SWAP1 POP PUSH1 0x0 DUP4 PUSH1 0x20 ADD MLOAD SWAP1 POP PUSH1 0x0 DUP5 PUSH1 0x40 ADD MLOAD SWAP1 POP PUSH1 0x0 DUP6 PUSH1 0x60 ADD MLOAD SWAP1 POP PUSH1 0x0 DUP7 PUSH1 0x80 ADD MLOAD SWAP1 POP PUSH1 0x0 DUP7 PUSH1 0x80 ADD MLOAD SWAP1 POP DUP2 DUP2 GT ISZERO PUSH2 0x1575 JUMPI PUSH1 0x40 MLOAD PUSH32 0x8C379A000000000000000000000000000000000000000000000000000000000 DUP2 MSTORE PUSH1 0x4 ADD PUSH2 0x156C SWAP1 PUSH2 0x2AF3 JUMP JUMPDEST PUSH1 0x40 MLOAD DUP1 SWAP2 SUB SWAP1 REVERT JUMPDEST PUSH2 0x1583 DUP7 DUP7 DUP7 DUP7 PUSH1 0x0 PUSH2 0x16D JUMP JUMPDEST PUSH1 0x0 PUSH1 0x2 PUSH1 0x0 DUP13 PUSH20 0xFFFFFFFFFFFFFFFFFFFFFFFFFFFFFFFFFFFFFFFF AND PUSH20 0xFFFFFFFFFFFFFFFFFFFFFFFFFFFFFFFFFFFFFFFF AND DUP2 MSTORE PUSH1 0x20 ADD SWAP1 DUP2 MSTORE PUSH1 0x20 ADD PUSH1 0x0 KECCAK256 SLOAD SWAP1 POP PUSH1 0x8 PUSH1 0x1 PUSH1 0x8 DUP1 SLOAD SWAP1 POP PUSH2 0x15DB SWAP2 SWAP1 PUSH2 0x2B42 JUMP JUMPDEST DUP2 SLOAD DUP2 LT PUSH2 0x15EC JUMPI PUSH2 0x15EB PUSH2 0x2B76 JUMP JUMPDEST JUMPDEST SWAP1 PUSH1 0x0 MSTORE PUSH1 0x20 PUSH1 0x0 KECCAK256 SWAP1 PUSH1 0x5 MUL ADD PUSH1 0x8 DUP3 DUP2 SLOAD DUP2 LT PUSH2 0x160E JUMPI PUSH2 0x160D PUSH2 0x2B76 JUMP JUMPDEST JUMPDEST SWAP1 PUSH1 0x0 MSTORE PUSH1 0x20 PUSH1 0x0 KECCAK256 SWAP1 PUSH1 0x5 MUL ADD PUSH1 0x0 DUP3 ADD DUP2 PUSH1 0x0 ADD SWAP1 DUP2 PUSH2 0x1630 SWAP2 SWAP1 PUSH2 0x292D JUMP JUMPDEST POP PUSH1 0x1 DUP3 ADD DUP2 PUSH1 0x1 ADD SWAP1 DUP2 PUSH2 0x1645 SWAP2 SWAP1 PUSH2 0x292D JUMP JUMPDEST POP PUSH1 0x2 DUP3 ADD DUP2 PUSH1 0x2 ADD SWAP1 DUP2 PUSH2 0x165A SWAP2 SWAP1 PUSH2 0x292D JUMP JUMPDEST POP PUSH1 0x3 DUP3 ADD PUSH1 0x0 SWAP1 SLOAD SWAP1 PUSH2 0x100 EXP SWAP1 DIV PUSH20 0xFFFFFFFFFFFFFFFFFFFFFFFFFFFFFFFFFFFFFFFF AND DUP2 PUSH1 0x3 ADD PUSH1 0x0 PUSH2 0x100 EXP DUP2 SLOAD DUP2 PUSH20 0xFFFFFFFFFFFFFFFFFFFFFFFFFFFFFFFFFFFFFFFF MUL NOT AND SWAP1 DUP4 PUSH20 0xFFFFFFFFFFFFFFFFFFFFFFFFFFFFFFFFFFFFFFFF AND MUL OR SWAP1 SSTORE POP PUSH1 0x4 DUP3 ADD SLOAD DUP2 PUSH1 0x4 ADD SSTORE SWAP1 POP POP PUSH1 0x8 DUP1 SLOAD DUP1 PUSH2 0x16E1 JUMPI PUSH2 0x16E0 PUSH2 0x2BA5 JUMP JUMPDEST JUMPDEST PUSH1 0x1 SWAP1 SUB DUP2 DUP2 SWAP1 PUSH1 0x0 MSTORE PUSH1 0x20 PUSH1 0x0 KECCAK256 SWAP1 PUSH1 0x5 MUL ADD PUSH1 0x0 DUP1 DUP3 ADD PUSH1 0x0 PUSH2 0x1706 SWAP2 SWAP1 PUSH2 0x1CA4 JUMP JUMPDEST PUSH1 0x1 DUP3 ADD PUSH1 0x0 PUSH2 0x1716 SWAP2 SWAP1 PUSH2 0x1CA4 JUMP JUMPDEST PUSH1 0x2 DUP3 ADD PUSH1 0x0 PUSH2 0x1726 SWAP2 SWAP1 PUSH2 0x1CA4 JUMP JUMPDEST PUSH1 0x3 DUP3 ADD PUSH1 0x0 PUSH2 0x100 EXP DUP2 SLOAD SWAP1 PUSH20 0xFFFFFFFFFFFFFFFFFFFFFFFFFFFFFFFFFFFFFFFF MUL NOT AND SWAP1 SSTORE PUSH1 0x4 DUP3 ADD PUSH1 0x0 SWAP1 SSTORE POP POP SWAP1 SSTORE POP POP POP POP POP POP POP POP POP POP POP JUMP JUMPDEST PUSH1 0x60 PUSH1 0x1 ISZERO ISZERO DUP3 ISZERO ISZERO SUB PUSH2 0x19E9 JUMPI PUSH1 0x8 DUP1 SLOAD DUP1 PUSH1 0x20 MUL PUSH1 0x20 ADD PUSH1 0x40 MLOAD SWAP1 DUP2 ADD PUSH1 0x40 MSTORE DUP1 SWAP3 SWAP2 SWAP1 DUP2 DUP2 MSTORE PUSH1 0x20 ADD PUSH1 0x0 SWAP1 JUMPDEST DUP3 DUP3 LT ISZERO PUSH2 0x19DE JUMPI DUP4 DUP3 SWAP1 PUSH1 0x0 MSTORE PUSH1 0x20 PUSH1 0x0 KECCAK256 SWAP1 PUSH1 0x5 MUL ADD PUSH1 0x40 MLOAD DUP1 PUSH1 0xA0 ADD PUSH1 0x40 MSTORE SWAP1 DUP2 PUSH1 0x0 DUP3 ADD DUP1 SLOAD PUSH2 0x17C9 SWAP1 PUSH2 0x23A8 JUMP JUMPDEST DUP1 PUSH1 0x1F ADD PUSH1 0x20 DUP1 SWAP2 DIV MUL PUSH1 0x20 ADD PUSH1 0x40 MLOAD SWAP1 DUP2 ADD PUSH1 0x40 MSTORE DUP1 SWAP3 SWAP2 SWAP1 DUP2 DUP2 MSTORE PUSH1 0x20 ADD DUP3 DUP1 SLOAD PUSH2 0x17F5 SWAP1 PUSH2 0x23A8 JUMP JUMPDEST DUP1 ISZERO PUSH2 0x1842 JUMPI DUP1 PUSH1 0x1F LT PUSH2 0x1817 JUMPI PUSH2 0x100 DUP1 DUP4 SLOAD DIV MUL DUP4 MSTORE SWAP2 PUSH1 0x20 ADD SWAP2 PUSH2 0x1842 JUMP JUMPDEST DUP3 ADD SWAP2 SWAP1 PUSH1 0x0 MSTORE PUSH1 0x20 PUSH1 0x0 KECCAK256 SWAP1 JUMPDEST DUP2 SLOAD DUP2 MSTORE SWAP1 PUSH1 0x1 ADD SWAP1 PUSH1 0x20 ADD DUP1 DUP4 GT PUSH2 0x1825 JUMPI DUP3 SWAP1 SUB PUSH1 0x1F AND DUP3 ADD SWAP2 JUMPDEST POP POP POP POP POP DUP2 MSTORE PUSH1 0x20 ADD PUSH1 0x1 DUP3 ADD DUP1 SLOAD PUSH2 0x185B SWAP1 PUSH2 0x23A8 JUMP JUMPDEST DUP1 PUSH1 0x1F ADD PUSH1 0x20 DUP1 SWAP2 DIV MUL PUSH1 0x20 ADD PUSH1 0x40 MLOAD SWAP1 DUP2 ADD PUSH1 0x40 MSTORE DUP1 SWAP3 SWAP2 SWAP1 DUP2 DUP2 MSTORE PUSH1 0x20 ADD DUP3 DUP1 SLOAD PUSH2 0x1887 SWAP1 PUSH2 0x23A8 JUMP JUMPDEST DUP1 ISZERO PUSH2 0x18D4 JUMPI DUP1 PUSH1 0x1F LT PUSH2 0x18A9 JUMPI PUSH2 0x100 DUP1 DUP4 SLOAD DIV MUL DUP4 MSTORE SWAP2 PUSH1 0x20 ADD SWAP2 PUSH2 0x18D4 JUMP JUMPDEST DUP3 ADD SWAP2 SWAP1 PUSH1 0x0 MSTORE PUSH1 0x20 PUSH1 0x0 KECCAK256 SWAP1 JUMPDEST DUP2 SLOAD DUP2 MSTORE SWAP1 PUSH1 0x1 ADD SWAP1 PUSH1 0x20 ADD DUP1 DUP4 GT PUSH2 0x18B7 JUMPI DUP3 SWAP1 SUB PUSH1 0x1F AND DUP3 ADD SWAP2 JUMPDEST POP POP POP POP POP DUP2 MSTORE PUSH1 0x20 ADD PUSH1 0x2 DUP3 ADD DUP1 SLOAD PUSH2 0x18ED SWAP1 PUSH2 0x23A8 JUMP JUMPDEST DUP1 PUSH1 0x1F ADD PUSH1 0x20 DUP1 SWAP2 DIV MUL PUSH1 0x20 ADD PUSH1 0x40 MLOAD SWAP1 DUP2 ADD PUSH1 0x40 MSTORE DUP1 SWAP3 SWAP2 SWAP1 DUP2 DUP2 MSTORE PUSH1 0x20 ADD DUP3 DUP1 SLOAD PUSH2 0x1919 SWAP1 PUSH2 0x23A8 JUMP JUMPDEST DUP1 ISZERO PUSH2 0x1966 JUMPI DUP1 PUSH1 0x1F LT PUSH2 0x193B JUMPI PUSH2 0x100 DUP1 DUP4 SLOAD DIV MUL DUP4 MSTORE SWAP2 PUSH1 0x20 ADD SWAP2 PUSH2 0x1966 JUMP JUMPDEST DUP3 ADD SWAP2 SWAP1 PUSH1 0x0 MSTORE PUSH1 0x20 PUSH1 0x0 KECCAK256 SWAP1 JUMPDEST DUP2 SLOAD DUP2 MSTORE SWAP1 PUSH1 0x1 ADD SWAP1 PUSH1 0x20 ADD DUP1 DUP4 GT PUSH2 0x1949 JUMPI DUP3 SWAP1 SUB PUSH1 0x1F AND DUP3 ADD SWAP2 JUMPDEST POP POP POP POP POP DUP2 MSTORE PUSH1 0x20 ADD PUSH1 0x3 DUP3 ADD PUSH1 0x0 SWAP1 SLOAD SWAP1 PUSH2 0x100 EXP SWAP1 DIV PUSH20 0xFFFFFFFFFFFFFFFFFFFFFFFFFFFFFFFFFFFFFFFF AND PUSH20 0xFFFFFFFFFFFFFFFFFFFFFFFFFFFFFFFFFFFFFFFF AND PUSH20 0xFFFFFFFFFFFFFFFFFFFFFFFFFFFFFFFFFFFFFFFF AND DUP2 MSTORE PUSH1 0x20 ADD PUSH1 0x4 DUP3 ADD SLOAD DUP2 MSTORE POP POP DUP2 MSTORE PUSH1 0x20 ADD SWAP1 PUSH1 0x1 ADD SWAP1 PUSH2 0x1796 JUMP JUMPDEST POP POP POP POP SWAP1 POP PUSH2 0x1C5A JUMP JUMPDEST PUSH1 0x5 DUP1 SLOAD DUP1 PUSH1 0x20 MUL PUSH1 0x20 ADD PUSH1 0x40 MLOAD SWAP1 DUP2 ADD PUSH1 0x40 MSTORE DUP1 SWAP3 SWAP2 SWAP1 DUP2 DUP2 MSTORE PUSH1 0x20 ADD PUSH1 0x0 SWAP1 JUMPDEST DUP3 DUP3 LT ISZERO PUSH2 0x1C53 JUMPI DUP4 DUP3 SWAP1 PUSH1 0x0 MSTORE PUSH1 0x20 PUSH1 0x0 KECCAK256 SWAP1 PUSH1 0x5 MUL ADD PUSH1 0x40 MLOAD DUP1 PUSH1 0xA0 ADD PUSH1 0x40 MSTORE SWAP1 DUP2 PUSH1 0x0 DUP3 ADD DUP1 SLOAD PUSH2 0x1A3E SWAP1 PUSH2 0x23A8 JUMP JUMPDEST DUP1 PUSH1 0x1F ADD PUSH1 0x20 DUP1 SWAP2 DIV MUL PUSH1 0x20 ADD PUSH1 0x40 MLOAD SWAP1 DUP2 ADD PUSH1 0x40 MSTORE DUP1 SWAP3 SWAP2 SWAP1 DUP2 DUP2 MSTORE PUSH1 0x20 ADD DUP3 DUP1 SLOAD PUSH2 0x1A6A SWAP1 PUSH2 0x23A8 JUMP JUMPDEST DUP1 ISZERO PUSH2 0x1AB7 JUMPI DUP1 PUSH1 0x1F LT PUSH2 0x1A8C JUMPI PUSH2 0x100 DUP1 DUP4 SLOAD DIV MUL DUP4 MSTORE SWAP2 PUSH1 0x20 ADD SWAP2 PUSH2 0x1AB7 JUMP JUMPDEST DUP3 ADD SWAP2 SWAP1 PUSH1 0x0 MSTORE PUSH1 0x20 PUSH1 0x0 KECCAK256 SWAP1 JUMPDEST DUP2 SLOAD DUP2 MSTORE SWAP1 PUSH1 0x1 ADD SWAP1 PUSH1 0x20 ADD DUP1 DUP4 GT PUSH2 0x1A9A JUMPI DUP3 SWAP1 SUB PUSH1 0x1F AND DUP3 ADD SWAP2 JUMPDEST POP POP POP POP POP DUP2 MSTORE PUSH1 0x20 ADD PUSH1 0x1 DUP3 ADD DUP1 SLOAD PUSH2 0x1AD0 SWAP1 PUSH2 0x23A8 JUMP JUMPDEST DUP1 PUSH1 0x1F ADD PUSH1 0x20 DUP1 SWAP2 DIV MUL PUSH1 0x20 ADD PUSH1 0x40 MLOAD SWAP1 DUP2 ADD PUSH1 0x40 MSTORE DUP1 SWAP3 SWAP2 SWAP1 DUP2 DUP2 MSTORE PUSH1 0x20 ADD DUP3 DUP1 SLOAD PUSH2 0x1AFC SWAP1 PUSH2 0x23A8 JUMP JUMPDEST DUP1 ISZERO PUSH2 0x1B49 JUMPI DUP1 PUSH1 0x1F LT PUSH2 0x1B1E JUMPI PUSH2 0x100 DUP1 DUP4 SLOAD DIV MUL DUP4 MSTORE SWAP2 PUSH1 0x20 ADD SWAP2 PUSH2 0x1B49 JUMP JUMPDEST DUP3 ADD SWAP2 SWAP1 PUSH1 0x0 MSTORE PUSH1 0x20 PUSH1 0x0 KECCAK256 SWAP1 JUMPDEST DUP2 SLOAD DUP2 MSTORE SWAP1 PUSH1 0x1 ADD SWAP1 PUSH1 0x20 ADD DUP1 DUP4 GT PUSH2 0x1B2C JUMPI DUP3 SWAP1 SUB PUSH1 0x1F AND DUP3 ADD SWAP2 JUMPDEST POP POP POP POP POP DUP2 MSTORE PUSH1 0x20 ADD PUSH1 0x2 DUP3 ADD DUP1 SLOAD PUSH2 0x1B62 SWAP1 PUSH2 0x23A8 JUMP JUMPDEST DUP1 PUSH1 0x1F ADD PUSH1 0x20 DUP1 SWAP2 DIV MUL PUSH1 0x20 ADD PUSH1 0x40 MLOAD SWAP1 DUP2 ADD PUSH1 0x40 MSTORE DUP1 SWAP3 SWAP2 SWAP1 DUP2 DUP2 MSTORE PUSH1 0x20 ADD DUP3 DUP1 SLOAD PUSH2 0x1B8E SWAP1 PUSH2 0x23A8 JUMP JUMPDEST DUP1 ISZERO PUSH2 0x1BDB JUMPI DUP1 PUSH1 0x1F LT PUSH2 0x1BB0 JUMPI PUSH2 0x100 DUP1 DUP4 SLOAD DIV MUL DUP4 MSTORE SWAP2 PUSH1 0x20 ADD SWAP2 PUSH2 0x1BDB JUMP JUMPDEST DUP3 ADD SWAP2 SWAP1 PUSH1 0x0 MSTORE PUSH1 0x20 PUSH1 0x0 KECCAK256 SWAP1 JUMPDEST DUP2 SLOAD DUP2 MSTORE SWAP1 PUSH1 0x1 ADD SWAP1 PUSH1 0x20 ADD DUP1 DUP4 GT PUSH2 0x1BBE JUMPI DUP3 SWAP1 SUB PUSH1 0x1F AND DUP3 ADD SWAP2 JUMPDEST POP POP POP POP POP DUP2 MSTORE PUSH1 0x20 ADD PUSH1 0x3 DUP3 ADD PUSH1 0x0 SWAP1 SLOAD SWAP1 PUSH2 0x100 EXP SWAP1 DIV PUSH20 0xFFFFFFFFFFFFFFFFFFFFFFFFFFFFFFFFFFFFFFFF AND PUSH20 0xFFFFFFFFFFFFFFFFFFFFFFFFFFFFFFFFFFFFFFFF AND PUSH20 0xFFFFFFFFFFFFFFFFFFFFFFFFFFFFFFFFFFFFFFFF AND DUP2 MSTORE PUSH1 0x20 ADD PUSH1 0x4 DUP3 ADD SLOAD DUP2 MSTORE POP POP DUP2 MSTORE PUSH1 0x20 ADD SWAP1 PUSH1 0x1 ADD SWAP1 PUSH2 0x1A0B JUMP JUMPDEST POP POP POP POP SWAP1 POP JUMPDEST SWAP2 SWAP1 POP JUMP JUMPDEST PUSH1 0x40 MLOAD DUP1 PUSH1 0xA0 ADD PUSH1 0x40 MSTORE DUP1 PUSH1 0x60 DUP2 MSTORE PUSH1 0x20 ADD PUSH1 0x60 DUP2 MSTORE PUSH1 0x20 ADD PUSH1 0x60 DUP2 MSTORE PUSH1 0x20 ADD PUSH1 0x0 PUSH20 0xFFFFFFFFFFFFFFFFFFFFFFFFFFFFFFFFFFFFFFFF AND DUP2 MSTORE PUSH1 0x20 ADD PUSH1 0x0 DUP2 MSTORE POP SWAP1 JUMP JUMPDEST POP DUP1 SLOAD PUSH2 0x1CB0 SWAP1 PUSH2 0x23A8 JUMP JUMPDEST PUSH1 0x0 DUP3 SSTORE DUP1 PUSH1 0x1F LT PUSH2 0x1CC2 JUMPI POP PUSH2 0x1CE1 JUMP JUMPDEST PUSH1 0x1F ADD PUSH1 0x20 SWAP1 DIV SWAP1 PUSH1 0x0 MSTORE PUSH1 0x20 PUSH1 0x0 KECCAK256 SWAP1 DUP2 ADD SWAP1 PUSH2 0x1CE0 SWAP2 SWAP1 PUSH2 0x1CE4 JUMP JUMPDEST JUMPDEST POP JUMP JUMPDEST JUMPDEST DUP1 DUP3 GT ISZERO PUSH2 0x1CFD JUMPI PUSH1 0x0 DUP2 PUSH1 0x0 SWAP1 SSTORE POP PUSH1 0x1 ADD PUSH2 0x1CE5 JUMP JUMPDEST POP SWAP1 JUMP JUMPDEST PUSH1 0x0 PUSH1 0x40 MLOAD SWAP1 POP SWAP1 JUMP JUMPDEST PUSH1 0x0 DUP1 REVERT JUMPDEST PUSH1 0x0 DUP1 REVERT JUMPDEST PUSH1 0x0 DUP1 REVERT JUMPDEST PUSH1 0x0 DUP1 REVERT JUMPDEST PUSH1 0x0 PUSH1 0x1F NOT PUSH1 0x1F DUP4 ADD AND SWAP1 POP SWAP2 SWAP1 POP JUMP JUMPDEST PUSH32 0x4E487B7100000000000000000000000000000000000000000000000000000000 PUSH1 0x0 MSTORE PUSH1 0x41 PUSH1 0x4 MSTORE PUSH1 0x24 PUSH1 0x0 REVERT JUMPDEST PUSH2 0x1D68 DUP3 PUSH2 0x1D1F JUMP JUMPDEST DUP2 ADD DUP2 DUP2 LT PUSH8 0xFFFFFFFFFFFFFFFF DUP3 GT OR ISZERO PUSH2 0x1D87 JUMPI PUSH2 0x1D86 PUSH2 0x1D30 JUMP JUMPDEST JUMPDEST DUP1 PUSH1 0x40 MSTORE POP POP POP JUMP JUMPDEST PUSH1 0x0 PUSH2 0x1D9A PUSH2 0x1D01 JUMP JUMPDEST SWAP1 POP PUSH2 0x1DA6 DUP3 DUP3 PUSH2 0x1D5F JUMP JUMPDEST SWAP2 SWAP1 POP JUMP JUMPDEST PUSH1 0x0 PUSH8 0xFFFFFFFFFFFFFFFF DUP3 GT ISZERO PUSH2 0x1DC6 JUMPI PUSH2 0x1DC5 PUSH2 0x1D30 JUMP JUMPDEST JUMPDEST PUSH2 0x1DCF DUP3 PUSH2 0x1D1F JUMP JUMPDEST SWAP1 POP PUSH1 0x20 DUP2 ADD SWAP1 POP SWAP2 SWAP1 POP JUMP JUMPDEST DUP3 DUP2 DUP4 CALLDATACOPY PUSH1 0x0 DUP4 DUP4 ADD MSTORE POP POP POP JUMP JUMPDEST PUSH1 0x0 PUSH2 0x1DFE PUSH2 0x1DF9 DUP5 PUSH2 0x1DAB JUMP JUMPDEST PUSH2 0x1D90 JUMP JUMPDEST SWAP1 POP DUP3 DUP2 MSTORE PUSH1 0x20 DUP2 ADD DUP5 DUP5 DUP5 ADD GT ISZERO PUSH2 0x1E1A JUMPI PUSH2 0x1E19 PUSH2 0x1D1A JUMP JUMPDEST JUMPDEST PUSH2 0x1E25 DUP5 DUP3 DUP6 PUSH2 0x1DDC JUMP JUMPDEST POP SWAP4 SWAP3 POP POP POP JUMP JUMPDEST PUSH1 0x0 DUP3 PUSH1 0x1F DUP4 ADD SLT PUSH2 0x1E42 JUMPI PUSH2 0x1E41 PUSH2 0x1D15 JUMP JUMPDEST JUMPDEST DUP2 CALLDATALOAD PUSH2 0x1E52 DUP5 DUP3 PUSH1 0x20 DUP7 ADD PUSH2 0x1DEB JUMP JUMPDEST SWAP2 POP POP SWAP3 SWAP2 POP POP JUMP JUMPDEST PUSH1 0x0 PUSH20 0xFFFFFFFFFFFFFFFFFFFFFFFFFFFFFFFFFFFFFFFF DUP3 AND SWAP1 POP SWAP2 SWAP1 POP JUMP JUMPDEST PUSH1 0x0 PUSH2 0x1E86 DUP3 PUSH2 0x1E5B JUMP JUMPDEST SWAP1 POP SWAP2 SWAP1 POP JUMP JUMPDEST PUSH2 0x1E96 DUP2 PUSH2 0x1E7B JUMP JUMPDEST DUP2 EQ PUSH2 0x1EA1 JUMPI PUSH1 0x0 DUP1 REVERT JUMPDEST POP JUMP JUMPDEST PUSH1 0x0 DUP2 CALLDATALOAD SWAP1 POP PUSH2 0x1EB3 DUP2 PUSH2 0x1E8D JUMP JUMPDEST SWAP3 SWAP2 POP POP JUMP JUMPDEST PUSH1 0x0 DUP2 ISZERO ISZERO SWAP1 POP SWAP2 SWAP1 POP JUMP JUMPDEST PUSH2 0x1ECE DUP2 PUSH2 0x1EB9 JUMP JUMPDEST DUP2 EQ PUSH2 0x1ED9 JUMPI PUSH1 0x0 DUP1 REVERT JUMPDEST POP JUMP JUMPDEST PUSH1 0x0 DUP2 CALLDATALOAD SWAP1 POP PUSH2 0x1EEB DUP2 PUSH2 0x1EC5 JUMP JUMPDEST SWAP3 SWAP2 POP POP JUMP JUMPDEST PUSH1 0x0 DUP1 PUSH1 0x0 DUP1 PUSH1 0x0 PUSH1 0xA0 DUP7 DUP9 SUB SLT ISZERO PUSH2 0x1F0D JUMPI PUSH2 0x1F0C PUSH2 0x1D0B JUMP JUMPDEST JUMPDEST PUSH1 0x0 DUP7 ADD CALLDATALOAD PUSH8 0xFFFFFFFFFFFFFFFF DUP2 GT ISZERO PUSH2 0x1F2B JUMPI PUSH2 0x1F2A PUSH2 0x1D10 JUMP JUMPDEST JUMPDEST PUSH2 0x1F37 DUP9 DUP3 DUP10 ADD PUSH2 0x1E2D JUMP JUMPDEST SWAP6 POP POP PUSH1 0x20 DUP7 ADD CALLDATALOAD PUSH8 0xFFFFFFFFFFFFFFFF DUP2 GT ISZERO PUSH2 0x1F58 JUMPI PUSH2 0x1F57 PUSH2 0x1D10 JUMP JUMPDEST JUMPDEST PUSH2 0x1F64 DUP9 DUP3 DUP10 ADD PUSH2 0x1E2D JUMP JUMPDEST SWAP5 POP POP PUSH1 0x40 DUP7 ADD CALLDATALOAD PUSH8 0xFFFFFFFFFFFFFFFF DUP2 GT ISZERO PUSH2 0x1F85 JUMPI PUSH2 0x1F84 PUSH2 0x1D10 JUMP JUMPDEST JUMPDEST PUSH2 0x1F91 DUP9 DUP3 DUP10 ADD PUSH2 0x1E2D JUMP JUMPDEST SWAP4 POP POP PUSH1 0x60 PUSH2 0x1FA2 DUP9 DUP3 DUP10 ADD PUSH2 0x1EA4 JUMP JUMPDEST SWAP3 POP POP PUSH1 0x80 PUSH2 0x1FB3 DUP9 DUP3 DUP10 ADD PUSH2 0x1EDC JUMP JUMPDEST SWAP2 POP POP SWAP3 SWAP6 POP SWAP3 SWAP6 SWAP1 SWAP4 POP JUMP JUMPDEST PUSH1 0x0 PUSH1 0x20 DUP3 DUP5 SUB SLT ISZERO PUSH2 0x1FD6 JUMPI PUSH2 0x1FD5 PUSH2 0x1D0B JUMP JUMPDEST JUMPDEST PUSH1 0x0 PUSH2 0x1FE4 DUP5 DUP3 DUP6 ADD PUSH2 0x1EA4 JUMP JUMPDEST SWAP2 POP POP SWAP3 SWAP2 POP POP JUMP JUMPDEST PUSH2 0x1FF6 DUP2 PUSH2 0x1EB9 JUMP JUMPDEST DUP3 MSTORE POP POP JUMP JUMPDEST PUSH1 0x0 PUSH1 0x20 DUP3 ADD SWAP1 POP PUSH2 0x2011 PUSH1 0x0 DUP4 ADD DUP5 PUSH2 0x1FED JUMP JUMPDEST SWAP3 SWAP2 POP POP JUMP JUMPDEST PUSH1 0x0 DUP1 PUSH1 0x40 DUP4 DUP6 SUB SLT ISZERO PUSH2 0x202E JUMPI PUSH2 0x202D PUSH2 0x1D0B JUMP JUMPDEST JUMPDEST PUSH1 0x0 PUSH2 0x203C DUP6 DUP3 DUP7 ADD PUSH2 0x1EA4 JUMP JUMPDEST SWAP3 POP POP PUSH1 0x20 PUSH2 0x204D DUP6 DUP3 DUP7 ADD PUSH2 0x1EDC JUMP JUMPDEST SWAP2 POP POP SWAP3 POP SWAP3 SWAP1 POP JUMP JUMPDEST PUSH1 0x0 DUP2 MLOAD SWAP1 POP SWAP2 SWAP1 POP JUMP JUMPDEST PUSH1 0x0 DUP3 DUP3 MSTORE PUSH1 0x20 DUP3 ADD SWAP1 POP SWAP3 SWAP2 POP POP JUMP JUMPDEST PUSH1 0x0 JUMPDEST DUP4 DUP2 LT ISZERO PUSH2 0x2091 JUMPI DUP1 DUP3 ADD MLOAD DUP2 DUP5 ADD MSTORE PUSH1 0x20 DUP2 ADD SWAP1 POP PUSH2 0x2076 JUMP JUMPDEST PUSH1 0x0 DUP5 DUP5 ADD MSTORE POP POP POP POP JUMP JUMPDEST PUSH1 0x0 PUSH2 0x20A8 DUP3 PUSH2 0x2057 JUMP JUMPDEST PUSH2 0x20B2 DUP2 DUP6 PUSH2 0x2062 JUMP JUMPDEST SWAP4 POP PUSH2 0x20C2 DUP2 DUP6 PUSH1 0x20 DUP7 ADD PUSH2 0x2073 JUMP JUMPDEST PUSH2 0x20CB DUP2 PUSH2 0x1D1F JUMP JUMPDEST DUP5 ADD SWAP2 POP POP SWAP3 SWAP2 POP POP JUMP JUMPDEST PUSH2 0x20DF DUP2 PUSH2 0x1E7B JUMP JUMPDEST DUP3 MSTORE POP POP JUMP JUMPDEST PUSH1 0x0 DUP2 SWAP1 POP SWAP2 SWAP1 POP JUMP JUMPDEST PUSH2 0x20F8 DUP2 PUSH2 0x20E5 JUMP JUMPDEST DUP3 MSTORE POP POP JUMP JUMPDEST PUSH1 0x0 PUSH1 0xA0 DUP4 ADD PUSH1 0x0 DUP4 ADD MLOAD DUP5 DUP3 SUB PUSH1 0x0 DUP7 ADD MSTORE PUSH2 0x211B DUP3 DUP3 PUSH2 0x209D JUMP JUMPDEST SWAP2 POP POP PUSH1 0x20 DUP4 ADD MLOAD DUP5 DUP3 SUB PUSH1 0x20 DUP7 ADD MSTORE PUSH2 0x2135 DUP3 DUP3 PUSH2 0x209D JUMP JUMPDEST SWAP2 POP POP PUSH1 0x40 DUP4 ADD MLOAD DUP5 DUP3 SUB PUSH1 0x40 DUP7 ADD MSTORE PUSH2 0x214F DUP3 DUP3 PUSH2 0x209D JUMP JUMPDEST SWAP2 POP POP PUSH1 0x60 DUP4 ADD MLOAD PUSH2 0x2164 PUSH1 0x60 DUP7 ADD DUP3 PUSH2 0x20D6 JUMP JUMPDEST POP PUSH1 0x80 DUP4 ADD MLOAD PUSH2 0x2177 PUSH1 0x80 DUP7 ADD DUP3 PUSH2 0x20EF JUMP JUMPDEST POP DUP1 SWAP2 POP POP SWAP3 SWAP2 POP POP JUMP JUMPDEST PUSH1 0x0 PUSH1 0x20 DUP3 ADD SWAP1 POP DUP2 DUP2 SUB PUSH1 0x0 DUP4 ADD MSTORE PUSH2 0x219C DUP2 DUP5 PUSH2 0x20FE JUMP JUMPDEST SWAP1 POP SWAP3 SWAP2 POP POP JUMP JUMPDEST PUSH1 0x0 DUP1 PUSH1 0x40 DUP4 DUP6 SUB SLT ISZERO PUSH2 0x21BB JUMPI PUSH2 0x21BA PUSH2 0x1D0B JUMP JUMPDEST JUMPDEST PUSH1 0x0 PUSH2 0x21C9 DUP6 DUP3 DUP7 ADD PUSH2 0x1EA4 JUMP JUMPDEST SWAP3 POP POP PUSH1 0x20 PUSH2 0x21DA DUP6 DUP3 DUP7 ADD PUSH2 0x1EA4 JUMP JUMPDEST SWAP2 POP POP SWAP3 POP SWAP3 SWAP1 POP JUMP JUMPDEST PUSH1 0x0 PUSH1 0x20 DUP3 DUP5 SUB SLT ISZERO PUSH2 0x21FA JUMPI PUSH2 0x21F9 PUSH2 0x1D0B JUMP JUMPDEST JUMPDEST PUSH1 0x0 PUSH2 0x2208 DUP5 DUP3 DUP6 ADD PUSH2 0x1EDC JUMP JUMPDEST SWAP2 POP POP SWAP3 SWAP2 POP POP JUMP JUMPDEST PUSH1 0x0 DUP2 MLOAD SWAP1 POP SWAP2 SWAP1 POP JUMP JUMPDEST PUSH1 0x0 DUP3 DUP3 MSTORE PUSH1 0x20 DUP3 ADD SWAP1 POP SWAP3 SWAP2 POP POP JUMP JUMPDEST PUSH1 0x0 DUP2 SWAP1 POP PUSH1 0x20 DUP3 ADD SWAP1 POP SWAP2 SWAP1 POP JUMP JUMPDEST PUSH1 0x0 PUSH1 0xA0 DUP4 ADD PUSH1 0x0 DUP4 ADD MLOAD DUP5 DUP3 SUB PUSH1 0x0 DUP7 ADD MSTORE PUSH2 0x225A DUP3 DUP3 PUSH2 0x209D JUMP JUMPDEST SWAP2 POP POP PUSH1 0x20 DUP4 ADD MLOAD DUP5 DUP3 SUB PUSH1 0x20 DUP7 ADD MSTORE PUSH2 0x2274 DUP3 DUP3 PUSH2 0x209D JUMP JUMPDEST SWAP2 POP POP PUSH1 0x40 DUP4 ADD MLOAD DUP5 DUP3 SUB PUSH1 0x40 DUP7 ADD MSTORE PUSH2 0x228E DUP3 DUP3 PUSH2 0x209D JUMP JUMPDEST SWAP2 POP POP PUSH1 0x60 DUP4 ADD MLOAD PUSH2 0x22A3 PUSH1 0x60 DUP7 ADD DUP3 PUSH2 0x20D6 JUMP JUMPDEST POP PUSH1 0x80 DUP4 ADD MLOAD PUSH2 0x22B6 PUSH1 0x80 DUP7 ADD DUP3 PUSH2 0x20EF JUMP JUMPDEST POP DUP1 SWAP2 POP POP SWAP3 SWAP2 POP POP JUMP JUMPDEST PUSH1 0x0 PUSH2 0x22CD DUP4 DUP4 PUSH2 0x223D JUMP JUMPDEST SWAP1 POP SWAP3 SWAP2 POP POP JUMP JUMPDEST PUSH1 0x0 PUSH1 0x20 DUP3 ADD SWAP1 POP SWAP2 SWAP1 POP JUMP JUMPDEST PUSH1 0x0 PUSH2 0x22ED DUP3 PUSH2 0x2211 JUMP JUMPDEST PUSH2 0x22F7 DUP2 DUP6 PUSH2 0x221C JUMP JUMPDEST SWAP4 POP DUP4 PUSH1 0x20 DUP3 MUL DUP6 ADD PUSH2 0x2309 DUP6 PUSH2 0x222D JUMP JUMPDEST DUP1 PUSH1 0x0 JUMPDEST DUP6 DUP2 LT ISZERO PUSH2 0x2345 JUMPI DUP5 DUP5 SUB DUP10 MSTORE DUP2 MLOAD PUSH2 0x2326 DUP6 DUP3 PUSH2 0x22C1 JUMP JUMPDEST SWAP5 POP PUSH2 0x2331 DUP4 PUSH2 0x22D5 JUMP JUMPDEST SWAP3 POP PUSH1 0x20 DUP11 ADD SWAP10 POP POP PUSH1 0x1 DUP2 ADD SWAP1 POP PUSH2 0x230D JUMP JUMPDEST POP DUP3 SWAP8 POP DUP8 SWAP6 POP POP POP POP POP POP SWAP3 SWAP2 POP POP JUMP JUMPDEST PUSH1 0x0 PUSH1 0x20 DUP3 ADD SWAP1 POP DUP2 DUP2 SUB PUSH1 0x0 DUP4 ADD MSTORE PUSH2 0x2371 DUP2 DUP5 PUSH2 0x22E2 JUMP JUMPDEST SWAP1 POP SWAP3 SWAP2 POP POP JUMP JUMPDEST PUSH32 0x4E487B7100000000000000000000000000000000000000000000000000000000 PUSH1 0x0 MSTORE PUSH1 0x22 PUSH1 0x4 MSTORE PUSH1 0x24 PUSH1 0x0 REVERT JUMPDEST PUSH1 0x0 PUSH1 0x2 DUP3 DIV SWAP1 POP PUSH1 0x1 DUP3 AND DUP1 PUSH2 0x23C0 JUMPI PUSH1 0x7F DUP3 AND SWAP2 POP JUMPDEST PUSH1 0x20 DUP3 LT DUP2 SUB PUSH2 0x23D3 JUMPI PUSH2 0x23D2 PUSH2 0x2379 JUMP JUMPDEST JUMPDEST POP SWAP2 SWAP1 POP JUMP JUMPDEST PUSH1 0x0 DUP2 SWAP1 POP DUP2 PUSH1 0x0 MSTORE PUSH1 0x20 PUSH1 0x0 KECCAK256 SWAP1 POP SWAP2 SWAP1 POP JUMP JUMPDEST PUSH1 0x0 PUSH1 0x20 PUSH1 0x1F DUP4 ADD DIV SWAP1 POP SWAP2 SWAP1 POP JUMP JUMPDEST PUSH1 0x0 DUP3 DUP3 SHL SWAP1 POP SWAP3 SWAP2 POP POP JUMP JUMPDEST PUSH1 0x0 PUSH1 0x8 DUP4 MUL PUSH2 0x243B PUSH32 0xFFFFFFFFFFFFFFFFFFFFFFFFFFFFFFFFFFFFFFFFFFFFFFFFFFFFFFFFFFFFFFFF DUP3 PUSH2 0x23FE JUMP JUMPDEST PUSH2 0x2445 DUP7 DUP4 PUSH2 0x23FE JUMP JUMPDEST SWAP6 POP DUP1 NOT DUP5 AND SWAP4 POP DUP1 DUP7 AND DUP5 OR SWAP3 POP POP POP SWAP4 SWAP3 POP POP POP JUMP JUMPDEST PUSH1 0x0 DUP2 SWAP1 POP SWAP2 SWAP1 POP JUMP JUMPDEST PUSH1 0x0 PUSH2 0x2482 PUSH2 0x247D PUSH2 0x2478 DUP5 PUSH2 0x20E5 JUMP JUMPDEST PUSH2 0x245D JUMP JUMPDEST PUSH2 0x20E5 JUMP JUMPDEST SWAP1 POP SWAP2 SWAP1 POP JUMP JUMPDEST PUSH1 0x0 DUP2 SWAP1 POP SWAP2 SWAP1 POP JUMP JUMPDEST PUSH2 0x249C DUP4 PUSH2 0x2467 JUMP JUMPDEST PUSH2 0x24B0 PUSH2 0x24A8 DUP3 PUSH2 0x2489 JUMP JUMPDEST DUP5 DUP5 SLOAD PUSH2 0x240B JUMP JUMPDEST DUP3 SSTORE POP POP POP POP JUMP JUMPDEST PUSH1 0x0 SWAP1 JUMP JUMPDEST PUSH2 0x24C5 PUSH2 0x24B8 JUMP JUMPDEST PUSH2 0x24D0 DUP2 DUP5 DUP5 PUSH2 0x2493 JUMP JUMPDEST POP POP POP JUMP JUMPDEST JUMPDEST DUP2 DUP2 LT ISZERO PUSH2 0x24F4 JUMPI PUSH2 0x24E9 PUSH1 0x0 DUP3 PUSH2 0x24BD JUMP JUMPDEST PUSH1 0x1 DUP2 ADD SWAP1 POP PUSH2 0x24D6 JUMP JUMPDEST POP POP JUMP JUMPDEST PUSH1 0x1F DUP3 GT ISZERO PUSH2 0x2539 JUMPI PUSH2 0x250A DUP2 PUSH2 0x23D9 JUMP JUMPDEST PUSH2 0x2513 DUP5 PUSH2 0x23EE JUMP JUMPDEST DUP2 ADD PUSH1 0x20 DUP6 LT ISZERO PUSH2 0x2522 JUMPI DUP2 SWAP1 POP JUMPDEST PUSH2 0x2536 PUSH2 0x252E DUP6 PUSH2 0x23EE JUMP JUMPDEST DUP4 ADD DUP3 PUSH2 0x24D5 JUMP JUMPDEST POP POP JUMPDEST POP POP POP JUMP JUMPDEST PUSH1 0x0 DUP3 DUP3 SHR SWAP1 POP SWAP3 SWAP2 POP POP JUMP JUMPDEST PUSH1 0x0 PUSH2 0x255C PUSH1 0x0 NOT DUP5 PUSH1 0x8 MUL PUSH2 0x253E JUMP JUMPDEST NOT DUP1 DUP4 AND SWAP2 POP POP SWAP3 SWAP2 POP POP JUMP JUMPDEST PUSH1 0x0 PUSH2 0x2575 DUP4 DUP4 PUSH2 0x254B JUMP JUMPDEST SWAP2 POP DUP3 PUSH1 0x2 MUL DUP3 OR SWAP1 POP SWAP3 SWAP2 POP POP JUMP JUMPDEST PUSH2 0x258E DUP3 PUSH2 0x2057 JUMP JUMPDEST PUSH8 0xFFFFFFFFFFFFFFFF DUP2 GT ISZERO PUSH2 0x25A7 JUMPI PUSH2 0x25A6 PUSH2 0x1D30 JUMP JUMPDEST JUMPDEST PUSH2 0x25B1 DUP3 SLOAD PUSH2 0x23A8 JUMP JUMPDEST PUSH2 0x25BC DUP3 DUP3 DUP6 PUSH2 0x24F8 JUMP JUMPDEST PUSH1 0x0 PUSH1 0x20 SWAP1 POP PUSH1 0x1F DUP4 GT PUSH1 0x1 DUP2 EQ PUSH2 0x25EF JUMPI PUSH1 0x0 DUP5 ISZERO PUSH2 0x25DD JUMPI DUP3 DUP8 ADD MLOAD SWAP1 POP JUMPDEST PUSH2 0x25E7 DUP6 DUP3 PUSH2 0x2569 JUMP JUMPDEST DUP7 SSTORE POP PUSH2 0x264F JUMP JUMPDEST PUSH1 0x1F NOT DUP5 AND PUSH2 0x25FD DUP7 PUSH2 0x23D9 JUMP JUMPDEST PUSH1 0x0 JUMPDEST DUP3 DUP2 LT ISZERO PUSH2 0x2625 JUMPI DUP5 DUP10 ADD MLOAD DUP3 SSTORE PUSH1 0x1 DUP3 ADD SWAP2 POP PUSH1 0x20 DUP6 ADD SWAP5 POP PUSH1 0x20 DUP2 ADD SWAP1 POP PUSH2 0x2600 JUMP JUMPDEST DUP7 DUP4 LT ISZERO PUSH2 0x2642 JUMPI DUP5 DUP10 ADD MLOAD PUSH2 0x263E PUSH1 0x1F DUP10 AND DUP3 PUSH2 0x254B JUMP JUMPDEST DUP4 SSTORE POP JUMPDEST PUSH1 0x1 PUSH1 0x2 DUP9 MUL ADD DUP9 SSTORE POP POP POP JUMPDEST POP POP POP POP POP POP JUMP JUMPDEST PUSH1 0x0 DUP2 SWAP1 POP SWAP3 SWAP2 POP POP JUMP JUMPDEST PUSH32 0x524F4C4531000000000000000000000000000000000000000000000000000000 PUSH1 0x0 DUP3 ADD MSTORE POP JUMP JUMPDEST PUSH1 0x0 PUSH2 0x2698 PUSH1 0x5 DUP4 PUSH2 0x2657 JUMP JUMPDEST SWAP2 POP PUSH2 0x26A3 DUP3 PUSH2 0x2662 JUMP JUMPDEST PUSH1 0x5 DUP3 ADD SWAP1 POP SWAP2 SWAP1 POP JUMP JUMPDEST PUSH1 0x0 PUSH2 0x26B9 DUP3 PUSH2 0x268B JUMP JUMPDEST SWAP2 POP DUP2 SWAP1 POP SWAP2 SWAP1 POP JUMP JUMPDEST PUSH1 0x0 PUSH2 0x26CE DUP3 PUSH2 0x2057 JUMP JUMPDEST PUSH2 0x26D8 DUP2 DUP6 PUSH2 0x2657 JUMP JUMPDEST SWAP4 POP PUSH2 0x26E8 DUP2 DUP6 PUSH1 0x20 DUP7 ADD PUSH2 0x2073 JUMP JUMPDEST DUP1 DUP5 ADD SWAP2 POP POP SWAP3 SWAP2 POP POP JUMP JUMPDEST PUSH1 0x0 PUSH2 0x2700 DUP3 DUP5 PUSH2 0x26C3 JUMP JUMPDEST SWAP2 POP DUP2 SWAP1 POP SWAP3 SWAP2 POP POP JUMP JUMPDEST PUSH32 0x524F4C4532000000000000000000000000000000000000000000000000000000 PUSH1 0x0 DUP3 ADD MSTORE POP JUMP JUMPDEST PUSH1 0x0 PUSH2 0x2741 PUSH1 0x5 DUP4 PUSH2 0x2657 JUMP JUMPDEST SWAP2 POP PUSH2 0x274C DUP3 PUSH2 0x270B JUMP JUMPDEST PUSH1 0x5 DUP3 ADD SWAP1 POP SWAP2 SWAP1 POP JUMP JUMPDEST PUSH1 0x0 PUSH2 0x2762 DUP3 PUSH2 0x2734 JUMP JUMPDEST SWAP2 POP DUP2 SWAP1 POP SWAP2 SWAP1 POP JUMP JUMPDEST PUSH32 0x524F4C4533000000000000000000000000000000000000000000000000000000 PUSH1 0x0 DUP3 ADD MSTORE POP JUMP JUMPDEST PUSH1 0x0 PUSH2 0x27A2 PUSH1 0x5 DUP4 PUSH2 0x2657 JUMP JUMPDEST SWAP2 POP PUSH2 0x27AD DUP3 PUSH2 0x276C JUMP JUMPDEST PUSH1 0x5 DUP3 ADD SWAP1 POP SWAP2 SWAP1 POP JUMP JUMPDEST PUSH1 0x0 PUSH2 0x27C3 DUP3 PUSH2 0x2795 JUMP JUMPDEST SWAP2 POP DUP2 SWAP1 POP SWAP2 SWAP1 POP JUMP JUMPDEST PUSH32 0x524F4C4534000000000000000000000000000000000000000000000000000000 PUSH1 0x0 DUP3 ADD MSTORE POP JUMP JUMPDEST PUSH1 0x0 PUSH2 0x2803 PUSH1 0x5 DUP4 PUSH2 0x2657 JUMP JUMPDEST SWAP2 POP PUSH2 0x280E DUP3 PUSH2 0x27CD JUMP JUMPDEST PUSH1 0x5 DUP3 ADD SWAP1 POP SWAP2 SWAP1 POP JUMP JUMPDEST PUSH1 0x0 PUSH2 0x2824 DUP3 PUSH2 0x27F6 JUMP JUMPDEST SWAP2 POP DUP2 SWAP1 POP SWAP2 SWAP1 POP JUMP JUMPDEST PUSH1 0x0 DUP3 DUP3 MSTORE PUSH1 0x20 DUP3 ADD SWAP1 POP SWAP3 SWAP2 POP POP JUMP JUMPDEST PUSH32 0x4D656D6265722052657175657374656400000000000000000000000000000000 PUSH1 0x0 DUP3 ADD MSTORE POP JUMP JUMPDEST PUSH1 0x0 PUSH2 0x2875 PUSH1 0x10 DUP4 PUSH2 0x282E JUMP JUMPDEST SWAP2 POP PUSH2 0x2880 DUP3 PUSH2 0x283F JUMP JUMPDEST PUSH1 0x20 DUP3 ADD SWAP1 POP SWAP2 SWAP1 POP JUMP JUMPDEST PUSH1 0x0 PUSH1 0x20 DUP3 ADD SWAP1 POP DUP2 DUP2 SUB PUSH1 0x0 DUP4 ADD MSTORE PUSH2 0x28A4 DUP2 PUSH2 0x2868 JUMP JUMPDEST SWAP1 POP SWAP2 SWAP1 POP JUMP JUMPDEST PUSH32 0x4D656D6265722045786973740000000000000000000000000000000000000000 PUSH1 0x0 DUP3 ADD MSTORE POP JUMP JUMPDEST PUSH1 0x0 PUSH2 0x28E1 PUSH1 0xC DUP4 PUSH2 0x282E JUMP JUMPDEST SWAP2 POP PUSH2 0x28EC DUP3 PUSH2 0x28AB JUMP JUMPDEST PUSH1 0x20 DUP3 ADD SWAP1 POP SWAP2 SWAP1 POP JUMP JUMPDEST PUSH1 0x0 PUSH1 0x20 DUP3 ADD SWAP1 POP DUP2 DUP2 SUB PUSH1 0x0 DUP4 ADD MSTORE PUSH2 0x2910 DUP2 PUSH2 0x28D4 JUMP JUMPDEST SWAP1 POP SWAP2 SWAP1 POP JUMP JUMPDEST PUSH1 0x0 DUP2 SLOAD SWAP1 POP PUSH2 0x2926 DUP2 PUSH2 0x23A8 JUMP JUMPDEST SWAP1 POP SWAP2 SWAP1 POP JUMP JUMPDEST DUP2 DUP2 SUB PUSH2 0x293B JUMPI POP POP PUSH2 0x2A13 JUMP JUMPDEST PUSH2 0x2944 DUP3 PUSH2 0x2917 JUMP JUMPDEST PUSH8 0xFFFFFFFFFFFFFFFF DUP2 GT ISZERO PUSH2 0x295D JUMPI PUSH2 0x295C PUSH2 0x1D30 JUMP JUMPDEST JUMPDEST PUSH2 0x2967 DUP3 SLOAD PUSH2 0x23A8 JUMP JUMPDEST PUSH2 0x2972 DUP3 DUP3 DUP6 PUSH2 0x24F8 JUMP JUMPDEST PUSH1 0x0 PUSH1 0x1F DUP4 GT PUSH1 0x1 DUP2 EQ PUSH2 0x29A1 JUMPI PUSH1 0x0 DUP5 ISZERO PUSH2 0x298F JUMPI DUP3 DUP8 ADD SLOAD SWAP1 POP JUMPDEST PUSH2 0x2999 DUP6 DUP3 PUSH2 0x2569 JUMP JUMPDEST DUP7 SSTORE POP PUSH2 0x2A0C JUMP JUMPDEST PUSH1 0x1F NOT DUP5 AND PUSH2 0x29AF DUP8 PUSH2 0x23D9 JUMP JUMPDEST SWAP7 POP PUSH2 0x29BA DUP7 PUSH2 0x23D9 JUMP JUMPDEST PUSH1 0x0 JUMPDEST DUP3 DUP2 LT ISZERO PUSH2 0x29E2 JUMPI DUP5 DUP10 ADD SLOAD DUP3 SSTORE PUSH1 0x1 DUP3 ADD SWAP2 POP PUSH1 0x1 DUP6 ADD SWAP5 POP PUSH1 0x20 DUP2 ADD SWAP1 POP PUSH2 0x29BD JUMP JUMPDEST DUP7 DUP4 LT ISZERO PUSH2 0x29FF JUMPI DUP5 DUP10 ADD SLOAD PUSH2 0x29FB PUSH1 0x1F DUP10 AND DUP3 PUSH2 0x254B JUMP JUMPDEST DUP4 SSTORE POP JUMPDEST PUSH1 0x1 PUSH1 0x2 DUP9 MUL ADD DUP9 SSTORE POP POP POP JUMPDEST POP POP POP POP POP POP JUMPDEST JUMP JUMPDEST PUSH32 0x596F75206E65656420746F205265717565737420466972737400000000000000 PUSH1 0x0 DUP3 ADD MSTORE POP JUMP JUMPDEST PUSH1 0x0 PUSH2 0x2A4B PUSH1 0x19 DUP4 PUSH2 0x282E JUMP JUMPDEST SWAP2 POP PUSH2 0x2A56 DUP3 PUSH2 0x2A15 JUMP JUMPDEST PUSH1 0x20 DUP3 ADD SWAP1 POP SWAP2 SWAP1 POP JUMP JUMPDEST PUSH1 0x0 PUSH1 0x20 DUP3 ADD SWAP1 POP DUP2 DUP2 SUB PUSH1 0x0 DUP4 ADD MSTORE PUSH2 0x2A7A DUP2 PUSH2 0x2A3E JUMP JUMPDEST SWAP1 POP SWAP2 SWAP1 POP JUMP JUMPDEST PUSH32 0x596F752063616E277420617070726F6F766520736F6D656F6E652061626F7665 PUSH1 0x0 DUP3 ADD MSTORE PUSH32 0x207468616E20796F752E00000000000000000000000000000000000000000000 PUSH1 0x20 DUP3 ADD MSTORE POP JUMP JUMPDEST PUSH1 0x0 PUSH2 0x2ADD PUSH1 0x2A DUP4 PUSH2 0x282E JUMP JUMPDEST SWAP2 POP PUSH2 0x2AE8 DUP3 PUSH2 0x2A81 JUMP JUMPDEST PUSH1 0x40 DUP3 ADD SWAP1 POP SWAP2 SWAP1 POP JUMP JUMPDEST PUSH1 0x0 PUSH1 0x20 DUP3 ADD SWAP1 POP DUP2 DUP2 SUB PUSH1 0x0 DUP4 ADD MSTORE PUSH2 0x2B0C DUP2 PUSH2 0x2AD0 JUMP JUMPDEST SWAP1 POP SWAP2 SWAP1 POP JUMP JUMPDEST PUSH32 0x4E487B7100000000000000000000000000000000000000000000000000000000 PUSH1 0x0 MSTORE PUSH1 0x11 PUSH1 0x4 MSTORE PUSH1 0x24 PUSH1 0x0 REVERT JUMPDEST PUSH1 0x0 PUSH2 0x2B4D DUP3 PUSH2 0x20E5 JUMP JUMPDEST SWAP2 POP PUSH2 0x2B58 DUP4 PUSH2 0x20E5 JUMP JUMPDEST SWAP3 POP DUP3 DUP3 SUB SWAP1 POP DUP2 DUP2 GT ISZERO PUSH2 0x2B70 JUMPI PUSH2 0x2B6F PUSH2 0x2B13 JUMP JUMPDEST JUMPDEST SWAP3 SWAP2 POP POP JUMP JUMPDEST PUSH32 0x4E487B7100000000000000000000000000000000000000000000000000000000 PUSH1 0x0 MSTORE PUSH1 0x32 PUSH1 0x4 MSTORE PUSH1 0x24 PUSH1 0x0 REVERT JUMPDEST PUSH32 0x4E487B7100000000000000000000000000000000000000000000000000000000 PUSH1 0x0 MSTORE PUSH1 0x31 PUSH1 0x4 MSTORE PUSH1 0x24 PUSH1 0x0 REVERT INVALID LOG2 PUSH5 0x6970667358 0x22 SLT KECCAK256 0xC0 DUP12 0xA7 0xDF DUP3 PUSH13 0xDF32C070C878CA6D77AA053134 MOD EXP PUSH4 0x7FF67F55 PUSH31 0x50EFF52EC464736F6C63430008100033000000000000000000000000000000 "},"gasEstimates":{"creation":{"codeDepositCost":"2254800","executionCost":"12424","totalCost":"2267224"},"external":{"addOrRequestMember(string,string,string,address,bool)":"infinite","approoveRequest(address,address)":"infinite","findMember(address,bool)":"infinite","getApprovedOrRequestedMember(bool)":"infinite","memberExistOrNot(address)":"2929","recieve()":"142"}},"methodIdentifiers":{"addOrRequestMember(string,string,string,address,bool)":"4cd6f25e","approoveRequest(address,address)":"e070dd12","findMember(address,bool)":"bafa08c1","getApprovedOrRequestedMember(bool)":"e473f6cd","memberExistOrNot(address)":"64e47536","recieve()":"a9e10bf2"}},"storageLayout":{"storage":[{"astId":19,"contract":"MainContract.sol:MainContract","label":"requestIndex","offset":0,"slot":"0","type":"t_uint256"},{"astId":22,"contract":"MainContract.sol:MainContract","label":"memberIndex","offset":0,"slot":"1","type":"t_uint256"},{"astId":26,"contract":"MainContract.sol:MainContract","label":"indexFromRequest","offset":0,"slot":"2","type":"t_mapping(t_address,t_uint256)"},{"astId":30,"contract":"MainContract.sol:MainContract","label":"indexFromApproove","offset":0,"slot":"3","type":"t_mapping(t_address,t_uint256)"},{"astId":35,"contract":"MainContract.sol:MainContract","label":"getMemberWithAddress","offset":0,"slot":"4","type":"t_mapping(t_address,t_struct(MemberStruct)16_storage)"},{"astId":39,"contract":"MainContract.sol:MainContract","label":"arrayOfMembers","offset":0,"slot":"5","type":"t_array(t_struct(MemberStruct)16_storage)dyn_storage"},{"astId":43,"contract":"MainContract.sol:MainContract","label":"memberExist","offset":0,"slot":"6","type":"t_mapping(t_address,t_bool)"},{"astId":48,"contract":"MainContract.sol:MainContract","label":"getRequestedMemberWithAddress","offset":0,"slot":"7","type":"t_mapping(t_address,t_struct(MemberStruct)16_storage)"},{"astId":52,"contract":"MainContract.sol:MainContract","label":"arrayOfRequestedMembers","offset":0,"slot":"8","type":"t_array(t_struct(MemberStruct)16_storage)dyn_storage"},{"astId":56,"contract":"MainContract.sol:MainContract","label":"memberRequested","offset":0,"slot":"9","type":"t_mapping(t_address,t_bool)"},{"astId":79,"contract":"MainContract.sol:MainContract","label":"instanceOfMemberStruct","offset":0,"slot":"10","type":"t_struct(MemberStruct)16_storage"}],"types":{"t_address":{"encoding":"inplace","label":"address","numberOfBytes":"20"},"t_array(t_struct(MemberStruct)16_storage)dyn_storage":{"base":"t_struct(MemberStruct)16_storage","encoding":"dynamic_array","label":"struct MainContract.MemberStruct[]","numberOfBytes":"32"},"t_bool":{"encoding":"inplace","label":"bool","numberOfBytes":"1"},"t_mapping(t_address,t_bool)":{"encoding":"mapping","key":"t_address","label":"mapping(address => bool)","numberOfBytes":"32","value":"t_bool"},"t_mapping(t_address,t_struct(MemberStruct)16_storage)":{"encoding":"mapping","key":"t_address","label":"mapping(address => struct MainContract.MemberStruct)","numberOfBytes":"32","value":"t_struct(MemberStruct)16_storage"},"t_mapping(t_address,t_uint256)":{"encoding":"mapping","key":"t_address","label":"mapping(address => uint256)","numberOfBytes":"32","value":"t_uint256"},"t_string_storage":{"encoding":"bytes","label":"string","numberOfBytes":"32"},"t_struct(MemberStruct)16_storage":{"encoding":"inplace","label":"struct MainContract.MemberStruct","members":[{"astId":7,"contract":"MainContract.sol:MainContract","label":"post","offset":0,"slot":"0","type":"t_string_storage"},{"astId":9,"contract":"MainContract.sol:MainContract","label":"dept","offset":0,"slot":"1","type":"t_string_storage"},{"astId":11,"contract":"MainContract.sol:MainContract","label":"name","offset":0,"slot":"2","type":"t_string_storage"},{"astId":13,"contract":"MainContract.sol:MainContract","label":"userAddress","offset":0,"slot":"3","type":"t_address"},{"astId":15,"contract":"MainContract.sol:MainContract","label":"power","offset":0,"slot":"4","type":"t_uint256"}],"numberOfBytes":"160"},"t_uint256":{"encoding":"inplace","label":"uint256","numberOfBytes":"32"}}},"userdoc":{"kind":"user","methods":{},"version":1}}